S00F000041726475696E6F2E7372656343
S1130000C2C00000E0C00000DEC000008EC10000DD
S1130010DAC00000D8C00000D6C00000D4C0000080
S1130020D2C00000D0C00000CEC00000CCC0000090
S1130030CAC00000C8C00000C6C00000B0C30000B1
S1130040C2C00000C0C00000BEC00000BCC00000B0
S1130050BAC00000B8C00000B6C00000B4C00000C0
S1130060B2C00000B0C00000AEC00000ACC00000D0
S1130070AAC00000A8C00000A6C00000A4C00000E0
S1130080A2C00000A0C000009EC000009CC00000F0
S11300909AC0000098C0000096C00000C1C50000CE
S11300A092C0000090C000008EC000008CC0000010
S11300B08AC0000088C0000086C0000084C0000020
S11300C082C0000080C000007EC000007CC0000030
S11300D07AC0000078C0000076C0000074C0000040
S11300E072C000002B067D067D067D067D067D061A
S11300F07D067D062B067D067D067D067D067D0636
S11301007D067D062D067D067D067D067D067D0623
S11301107D067D067D067D067D067D067D067D06C3
S11301207D067D062D067D067D067D067D067D0603
S11301307D067D067D067D067D067D067D067D06A3
S11301407D067D0679067D067D067D067D067D0697
S11301507D067D0656067D067D067D067D067D06AA
S11301607D067D067D067D067D067D067D067D0673
S11301707D067D064A067D067D067D067D067D0696
S11301807D067D06680611241FBECFEFD1E2DEBFD7
S1130190CDBF00E00CBF13E0A0E0B2E0ECE5FBE172
S11301A000E00BBF02C007900D92A234B107D9F74B
S11301B023E0A2E4B3E001C01D92AB37B207E1F73C
S11301C033D00C94AC0D1CCFECE7F0E0808182605E
S11301D08083EAE7F0E0808180648083808184FF0B
S11301E0FDCF209178008091790090E0982F8827A6
S11301F0820F911D08958298EAE7F0E0808180687B
S1130200808380818160808380818260808380811B
S113021084608083ECE7F0E0808180688083808163
S113022080648083D1CF0895CF93DF93CDB7DEB7B9
S11302302D970FB6F894DEBF0FBECDBF87E893E1CC
S11302400197F1F700C0000060E074E284EF90E0F1
S11302507DD580E07ED020E034E244EF50E06AE0D7
S113026077ED83EA9CE35BD489E592E00E94A309DD
S113027060E074E284EF90E09AD4C3D1BCDFABD1E8
S11302805BD239D214D49FEB27E289E0915020400D
S11302908040E1F700C000000F2EF8ECCF2ED12CE7
S11302A0E12CF12CF02D65D0882399F0CE01039632
S11302B0B3D02E8130E0A8ECB0E0D1D7A7019601ED
S11302C0ACD7DA01C90184569109A109B1099A830D
S11302D0898329813A81C901AA2797FDA095BA2F5C
S11302E09C01AD012C593F4F4F4F5F4FA0E4BFE13C
S11302F0C5D7A701960191D73A83298389819A8129
S11303001816190644F489819A8180349F411CF49B
S113031089819A81D5D38FE39DE023E08150904079
S11303202040E1F700C00000BECF1F920F920FB62D
S11303300F9211248F939F9381E090E09093430355
S1130340809342039F918F910F900FBE0F901F9047
S11303501895FDD063E08BE2E7D0F894E9E6F0E08D
S113036080818062808380818F7E8083EA9A789402
S113037008958091420390914303892B31F01092A8
S113038043031092420381E0089580E008950F939F
S11303901F93CF93DF93EB01182F1295107F81E603
S11303A0810FB5D0082F82E6810FB1D0202F30E025
S11303B0220F331F220F331F220F331F829586957E
S11303C08770280F311D3983288385E6810F9FD0DC
S11303D0982F9F709A83882351F01A592396082FD7
S11303E0010F812F94D089931F5F1013FACFDF91EF
S11303F0CF911F910F910895CF93DF93EC018CE27D
S113040086D0982F917098831982827090E09B8394
S11304108A83DF91CF9108950F931F93CF93DF9336
S1130420CDB7DEB768970FB6F894DEBF0FBECDBF69
S11304308C011A821982CE010196DEDF898188231C
S113044001F1BE016D5F7F4F80E090E0A0DF60E0CE
S11304508CE26AD040E061E08CE2A9D0CE01019642
S1130460CBDF8A81811104C01092430310924203AE
S11304708BE0FE013396D80101900D928A95E1F745
S11304802BC08A81882301F1BE01625F7F4F81E026
S113049090E07DDF60E08CE247D040E062E08CE2F7
S11304A086D0CE010196A8DF8981811104C0109203
S11304B04303109242038BE0FE013E96D801019063
S11304C00D928A95E1F708C08BE0FE013396D801BE
S11304D001900D928A95E1F7C80168960FB6F894D9
S11304E0DEBF0FBECDBFDF91CF911F910F91089555
S11304F02F9808952F9A0895FBDF80EC4BD4FADFF0
S113050083EC99E00197F1F700C000000895CF93C0
S1130510C82FEEDF83E03ED48C2F3CD440D4C82FC8
S1130520E9DF8C2FCF910895CF93DF93D82FC62F77
S1130530DFDF82E02FD48D2F2DD48C2F2BD4DADF64
S1130540DF91CF910895682F8FE0EECF0895CF9378
S1130550C82F1AD4D1DF8EE0DADF807E803869F0CC
S11305601F928F9388E692E09F938F93DBD60F9030
S11305700F900F900F9081E018C08C2FE4DF8EE075
S1130580C6DF807E8C1781F01F928F9382EB92E0FE
S11305909F938F93C7D686EF92E0D5D60F900F9096
S11305A00F900F9081E001C080E0CF9108951F93D8
S11305B0CF93DF93182FD62FC42F9ADF85E0EAD389
S11305C0812FE8D38D2FE6D38C2FE4D393DFDF91F3
S11305D0CF911F9108957894F7C20895CF93DF9334
S11305E000D0CDB7DEB790E599831A828B8363E0A0
S11305F0CE010196F3D20F900F900F90DF91CF911F
S11306000895CF93DF93F7DD90910602992341F08B
S1130610EFE5F3E080E0119211928F5F8917D8F330
S1130620C0914703D0E0D0DDCC0FDD1FC15ADC4FB1
S113063099838883E0914703F0E0EE0FFF1FE15AAE
S1130640FC4F8081918190934603809345031092DF
S11306504403DF91CF910895E2E0F1E080818F7B44
S113066080838FE193E00197F1F700C0000080815F
S1130670806480830895882319F0813039F00895C7
S1130680E2E0F1E080818D7F80830895E2E0F1E093
S1130690808182608083089590E0A0CF0895CF93F5
S11306A0DF93E2E0F1E090819F7D908390819860F8
S11306B09083EFEEF0E03197F1F700C00000D091A5
S11306C00601E2E0F1E09081977F9083EFEEF0E0A5
S11306D03197F1F700C00000C09106018111BCDF21
S11306E0E2E0F1E08081806280838D2F90E09C2B9A
S11306F0DF91CF910895CF93DF9381E0BCDF82E354
S113070090E06CDF80E0CBDFEC012FEF83EF91E032
S1130710215080409040E1F700C0000080E0BFDF3E
S11307208C179D0711F0EC01F0CF96DF80E090E08C
S113073055DFDF91CF910895E1E0F1E080818061A0
S11307408083A2E0B1E08C9180618C93808182608F
S113075080838081806280838081886080838081BF
S11307608064808379DFE7E0F1E080818E7F80839D
S113077080818D7F808380818B7F80838081877F50
S1130780808380818F7E808380818F7D8083808140
S11307908F7B808380818F778083ADCF08951F9274
S11307A00F920FB60F9211240BB60F928F929F9255
S11307B0AF92BF92CF92DF92EF92FF922F933F932B
S11307C04F935F936F937F938F939F93AF93BF9355
S11307D0CF93DF93EF93FF93809148039091490364
S11307E00196909349038093480380914803909124
S11307F0490302970CF43EC180E090E050DF9093EF
S11308006803809367038091690390916A03209140
S1130810670330916803821B930B90936E0380935C
S11308206D038091690390916A039F938F9389EF7D
S113083092E09F938F9376D580916703909168039C
S11308409F938F9384E093E09F938F936BD58091D4
S11308506E038F9380916D038F938EE093E09F934B
S11308608F9360D5C0916D03D0916E03BE0188272C
S113087077FD8095982F99D36B017C0180901302AA
S113088090901402A0901502B0901602A501940154
S113089018D49B01AC016091520370915303809171
S11308A054039091550382D260935203709353037F
S11308B0809354039093550320914E0330914F033A
S11308C04091500350915103C701B6016ED2A50166
S11308D09401D0D24B015C0160934A0370934B03A3
S11308E080934C0390934D03C0924E03D0924F03D8
S11308F0E0925003F09251038DB79EB70C960FB659
S1130900F8949EBF0FBE8DBF229744F410925203F9
S113091010925303109254031092550320910F0226
S1130920309110024091110250911202C701B60198
S1130930C8D36B017C0120910702309108024091D9
S1130940090250910A02C501B401BBD39B01AC0159
S1130950C701B6012BD26B017C0120915203309167
S11309605303409154035091550360910B027091CD
S11309700C0280910D0290910E02A3D39B01AC0155
S1130980C701B60113D2DED260936B0370936C037C
S11309907F936F9386E193E09F938F93C3D40F90DB
S11309A00F900F900F9080916B0390916C038D3298
S11309B0914044F08CE291E090936C0380936B033C
S11309C080E059DE80916B0390916C03843D9E4FCF
S11309D044F484ED9EEF90936C0380936B0381E069
S11309E04ADE20916B0330916C03332384F42F5F30
S11309F03F4F40E5429FC001439F900D112465ED98
S1130A007EEFD6D370936C0360936B030DC040E507
S1130A10429FC001439F900D11246CE271E0C8D342
S1130A2070936C0360936B0380916C038F9380913C
S1130A306B038F9382E293E09F938F9373D4E09040
S1130A406B03F0906C03C70199279F938F938FE2F8
S1130A5093E09F938F9366D48E2D1EDE10924903EC
S1130A60109248038DB79EB708960FB6F8949EBFB0
S1130A700FBE8DBFFF91EF91DF91CF91BF91AF91E9
S1130A809F918F917F916F915F914F913F912F91A2
S1130A90FF90EF90DF90CF90BF90AF909F908F909A
S1130AA00F900BBE0F900FBE0F901F901895F894E7
S1130AB081E08093700087E08093B100789408957A
S1130AC090936A03809369030895CF92DF92EF9223
S1130AD0FF926B017C01E1E8F0E080818460808317
S1130AE080818D7F808380818E7F80836091560397
S1130AF07091570380E090E056D2A7019601E1D2AD
S1130B0020E030E040E05FE350D121D270938700D1
S1130B1060938600FF90EF90DF90CF9008950F933D
S1130B201F93E1E8F0E0A081A061A083A081A86008
S1130B30A083E0E8F0E0A081A260A083A081AE7F62
S1130B40A083A081A068A083A081AF7BA083032F92
S1130B50142F252F33271093570300935603B5DF23
S1130B60259A1F910F910895CF92DF92EF92FF92F1
S1130B706B017C01609156037091570380E090E013
S1130B8012D2A70196019DD220E030E040E05FE35D
S1130B900CD1DDD17093700360936F03709389005F
S1130BA060938800FF90EF90DF90CF9008959B01B1
S1130BB0AC016AE077ED83EA9CE3B1DF66EA7BE9A6
S1130BC084EC9AE3D1CF08958CE08093B8008FEF42
S1130BD08093BB0084E08093BC000895ECEBF0E0CC
S1130BE0208120FDFDCF60935A03FC0120812093D6
S1130BF05B0320FD0CC0623050F0DC011196ECE583
S1130C00F3E081E09D9191938F5F8613FBCF109267
S1130C10590388EF8093170285EA8093BC000895F6
S1130C201F920F920FB60F9211240BB60F922F93AF
S1130C303F938F939F93AF93BF93EF93FF938091D1
S1130C40B90090E0FC013897E135F10508F055C092
S1130C50EE58FF4FFEC210925803E0915803809162
S1130C605A03E81770F481E08E0F80935803F0E084
S1130C70E55AFC4F80818093BB0085E88093BC00DB
S1130C8043C08091590381608093590384E9809320
S1130C90BC003AC0E091580381E08E0F8093580362
S1130CA08091BB00F0E0E55AFC4F8083209158030B
S1130CB030E080915A0390E001972817390724F413
S1130CC085EC8093BC0020C085E88093BC001CC0E8
S1130CD08091BB00E0915803F0E0E55AFC4F80831B
S1130CE08091590381608093590384E98093BC0007
S1130CF00BC085EA8093BC0007C08091B900809343
S1130D00170284E08093BC00FF91EF91BF91AF91F3
S1130D109F918F913F912F910F900BBE0F900FBE1B
S1130D200F901F901895E0ECF0E0908195FFFDCFB7
S1130D308093C60080E090E00895E0ECF0E08081CC
S1130D408823ECF78091C60090E0089520E038E510
S1130D5042E050E040D221501092C5002093C400DC
S1130D60E2ECF0E088E0808386E08083E1ECF0E070
S1130D708081806180838081886080836DE976E0F2
S1130D8083E996E085C2089587E884B981E58CBD3E
S1130D902F9A08958EBD0DB407FEFDCF08951EBC95
S1130DA00DB407FEFDCF8EB508955058BB27AA2772
S1130DB00ED04DC13ED130F043D120F031F49F3FED
S1130DC011F41EF433C10EF4E095E7FB29C1E92FB9
S1130DD04FD180F3BA17620773078407950718F099
S1130DE071F49EF567C10EF4E0950B2EBA2FA02D79
S1130DF00B01B90190010C01CA01A0011124FF27C4
S1130E00591B99F0593F50F4503E68F11A16F040BE
S1130E10A22F232F342F4427585FF3CF46953795BD
S1130E202795A795F0405395C9F77EF41F16BA0B82
S1130E30620B730B840BBAF09150A1F0FF0FBB1F30
S1130E40661F771F881FC2F70EC0BA0F621F731F79
S1130E50841F48F4879577956795B795F7959E3FD6
S1130E6008F0B3CF9395880F08F09927EE0F979564
S1130E70879508950CD0EBC0E3D040F0DAD030F081
S1130E8021F45F3F19F0CCC0511115C1CFC0F0D08F
S1130E9098F39923C9F35523B1F3951B550BBB273D
S1130EA0AA2762177307840738F09F5F5F4F220FEA
S1130EB0331F441FAA1FA9F333D00E2E3AF0E0E8E3
S1130EC030D091505040E695001CCAF729D0FE2F2F
S1130ED027D0660F771F881FBB1F261737074807C1
S1130EE0AB07B0E809F0BB0B802DBF01FF27935877
S1130EF05F4F2AF09E3F510568F092C0DCC05F3F0F
S1130F00ECF3983EDCF3869577956795B795F7955E
S1130F109F5FC9F7880F911D9695879597F9089556
S1130F20E1E0660F771F881FBB1F621773078407F2
S1130F30BA0720F0621B730B840BBA0BEE1F88F701
S1130F40E095089504D06894B111B5C0089598D07F
S1130F5088F09F5790F0B92F9927B751A0F0D1F09E
S1130F60660F771F881F991F1AF0BA95C9F712C028
S1130F70B13081F09FD0B1E008959CC0672F782FE5
S1130F808827B85F39F0B93FCCF386957795679594
S1130F90B395D9F73EF490958095709561957F4F00
S1130FA08F4F9F4F0895E89409C097FB3EF49095A6
S1130FB08095709561957F4F8F4F9F4F9923A9F02E
S1130FC0F92F96E9BB279395F695879577956795BD
S1130FD0B795F111F8CFFAF4BB0F11F460FF1BC001
S1130FE06F5F7F4F8F4F9F4F16C0882311F096E994
S1130FF011C0772321F09EE8872F762F05C0662342
S113100071F096E8862F70E060E02AF09A95660FFA
S1131010771F881FDAF7880F9695879597F90895B3
S113102097F99F6780E870E060E008959FEF80EC97
S1131030089500240A94161617061806090608953A
S113104000240A9412161306140605060895092EA0
S11310500394000C11F4882352F0BB0F40F4BF2B0F
S113106011F460FF04C06F5F7F4F8F4F9F4F08954F
S113107057FD9058440F551F59F05F3F71F0479545
S1131080880F97FB991F61F09F3F79F0879508952A
S1131090121613061406551FF2CF4695F1DF08C049
S11310A0161617061806991FF1CF86957105610566
S11310B008940895E894BB2766277727CB0197F90E
S11310C008950BD0C4CFB5DF28F0BADF18F095230C
S11310D009F0A6CFABCF1124EECFCADFA0F3959FC2
S11310E0D1F3950F50E0551F629FF001729FBB270B
S11310F0F00DB11D639FAA27F00DB11DAA1F649FB7
S11311006627B00DA11D661F829F2227B00DA11D69
S1131110621F739FB00DA11D621F839FA00D611DEF
S1131120221F749F3327A00D611D231F849F600D10
S1131130211D822F762F6A2F11249F5750408AF049
S1131140E1F088234AF0EE0FFF1FBB1F661F771FD5
S1131150881F91505040A9F79E3F510570F060CF11
S1131160AACF5F3FECF3983EDCF3869577956795BD
S1131170B795F795E7959F5FC1F7FE2B880F911DF3
S11311809695879597F90895AA1BBB1B51E107C053
S1131190AA1FBB1FA617B70710F0A61BB70B881F03
S11311A0991F5A95A9F780959095BC01CD01089592
S11311B097FB072E16F4009406D077FD08D0E4DFE1
S11311C007FC05D03EF4909581959F4F0895709546
S11311D061957F4F0895A1E21A2EAA1BBB1BFD0146
S11311E00DC0AA1FBB1FEE1FFF1FA217B307E40702
S11311F0F50720F0A21BB30BE40BF50B661F771F5A
S1131200881F991F1A9469F7609570958095909539
S11312109B01AC01BD01CF010895052E97FB16F487
S113122000940FD057FD05D0D6DF07FC02D046F45A
S113123008C050954095309521953F4F4F4F5F4FD3
S1131240089590958095709561957F4F8F4F9F4F2E
S11312500895EE0FFF1F0590F491E02D1994A29FBD
S1131260B001B39FC001A39F700D811D1124911D76
S1131270B29F700D811D1124911D0895F0DFA59F6B
S1131280900DB49F900DA49F800D911D112408957D
S11312900F931F93CF93DF93EC018B01009731F4ED
S11312A06115710519F480E090E037C06EE070E0DC
S11312B081E090E063D2FC010097A9F380E8838386
S11312C00115110571F01387028781E883838091EA
S11312D0710390917203892B21F4F0937203E093CC
S11312E071032097C9F0D187C0878381826083838B
S11312F08091730390917403892B71F4F0937403B8
S1131300E09373038091750390917603892B21F404
S1131310F0937603E0937503CF01DF91CF911F9192
S11313200F910895CF93DF93CDB7DEB7FE013696C4
S113133061917191AF01809173039091740330D0E6
S1131340DF91CF9108950F931F93CF93DF93E09193
S11313507303F0917403238121FF1BC0EC0100E0AF
S113136010E089916091730370917403DB01189606
S1131370ED91FC911997882331F01995892B89F304
S11313800FEF1FEFEECF8AE01995892B11F4C801F6
S113139002C08FEF9FEFDF91CF911F910F910895BE
S11313A02F923F924F925F926F927F928F929F9271
S11313B0AF92BF92CF92DF92EF92FF920F931F935F
S11313C0CF93DF93CDB7DEB72C970FB6F894DEBF7B
S11313D00FBECDBF7C016B018A01FC01178216820E
S11313E0838181FFB0C1CE0101964C01F701938145
S11313F0F60193FD859193FF81916F01882309F490
S11314009EC1853239F493FD859193FF81916F01DB
S1131410853221F4B70190E00FD3E8CF512C312C61
S113142020E02032A0F48B3269F030F4803259F09D
S1131430833269F420612CC08D3239F0803339F461
S1131440216026C02260246023C0286021C027FDBB
S113145027C030ED380F3A3078F426FF06C0FAE0A2
S11314605F9E300D1124532E13C08AE0389E300D38
S11314701124332E20620CC08E3221F426FD5FC16C
S1131480206406C08C3611F4206802C0883641F40A
S1131490F60193FD859193FF81916F018111C1CF75
S11314A0982F9F7D9554933028F40C5F1F4FFFE3D2
S11314B0F9830DC0833631F0833771F0833509F039
S11314C057C021C0F801808189830E5F1F4F4424D7
S11314D04394512C540114C03801F2E06F0E711C76
S11314E0F801A080B18026FF03C0652D70E002C022
S11314F06FEF7FEFC5012C8794D22C0183012C85DB
S11315002F77222E16C03801F2E06F0E711CF801FD
S1131510A080B18026FF03C0652D70E002C06FEF8C
S11315207FEFC5012C876BD22C012C852068222EDD
S1131530830123FC19C0832D90E048165906A0F4BA
S1131540B70180E290E078D23A94F5CFF50127FC18
S1131550859127FE81915F01B70190E06DD2311032
S11315603A94F1E04F1A51084114510479F7DEC05E
S1131570843611F0893631F5F80127FF07C0608100
S11315807181828193810C5F1F4F08C060817181DA
S1131590882777FD8095982F0E5F1F4F2F76B22EE8
S11315A097FF09C090958095709561957F4F8F4FF7
S11315B09F4F2068B22E2AE030E0A4016FD2A82EFB
S11315C0A81843C0853729F42F7EB22E2AE030E0D4
S11315D025C0F22FF97FBF2E8F36C1F018F488355D
S11315E079F0ADC0803719F0883721F0A8C02F2FCB
S11315F02061B22EB4FE0DC08B2D8460B82E09C0BC
S113160024FF0AC09F2F9660B92E06C028E030E060
S113161005C020E130E002C020E132E0F801B7FE6D
S113162007C060817181828193810C5F1F4F06C066
S11316306081718180E090E00E5F1F4FA4012ED283
S1131640A82EA818FB2DFF77BF2EB6FE0BC02B2D9E
S11316502E7FA51450F4B4FE0AC0B2FC08C02B2D92
S11316602E7E05C07A2C2B2D03C07A2C01C0752C3C
S113167024FF0DC0FE01EA0DF11D8081803311F4B9
S1131680297E09C022FF06C07394739404C0822F7C
S1131690867809F0739423FD12C020FF06C05A2CEB
S11316A0731418F4530C5718732C731460F4B701A3
S11316B080E290E02C87C0D173942C85F6CF73140C
S11316C010F4371801C0312C24FF11C0B70180E396
S11316D090E02C87B1D12C8522FF16C021FF03C0D6
S11316E088E590E002C088E790E0B7010CC0822F43
S11316F0867851F021FD02C080E201C08BE227FD13
S11317008DE2B70190E098D1A51430F4B70180E3DD
S113171090E092D15A94F8CFAA94F401EA0DF11D05
S11317208081B70190E088D1A110F6CF332009F46D
S11317305DCEB70180E290E07FD13A94F7CFF70114
S11317408681978102C08FEF9FEF2C960FB6F89495
S1131750DEBF0FBECDBFDF91CF911F910F91FF90E0
S1131760EF90DF90CF90BF90AF909F908F907F903D
S11317706F905F904F903F902F9008950F931F9319
S1131780CF93DF93869F8001879F100D969F100D46
S11317901124C8010DD0EC01009721F0A80160E0EC
S11317A070E038D1CE01DF91CF911F910F91089550
S11317B0CF93DF938230910510F482E090E0E091C2
S11317C07903F0917A0320E030E0A0E0B0E03097B4
S11317D039F14081518148175907B8F04817590722
S11317E071F482819381109729F013969C938E93C0
S11317F012972CC090937A038093790327C0211504
S1131800310531F04217530718F0A901DB0101C07B
S1131810EF019A01BD01DF010280F381E02DD7CFF2
S113182021153105F9F0281B390B2430310580F4DA
S11318308A819B816115710521F0FB019383828369
S113184004C090937A0380937903FE01329644C0D6
S1131850FE01E20FF31F81939193225031093983E2
S113186028833AC02091770330917803232B41F4E5
S1131870209102023091030230937803209377037E
S113188020910002309101022115310541F42DB758
S11318903EB74091040250910502241B350BE091A0
S11318A07703F0917803E217F307A0F42E1B3F0BA4
S11318B02817390778F0AC014E5F5F4F24173507BE
S11318C048F04E0F5F1F5093780340937703819342
S11318D0919302C0E0E0F0E0CF01DF91CF91089551
S11318E0CF93DF93009709F487C0FC0132971382EA
S11318F01282C0917903D0917A03209781F42081D8
S11319003181280F391F80917703909178038217D2
S1131910930779F5F0937803E09377036DC0DE01C4
S113192020E030E0AE17BF0750F412964D915C9161
S113193013979D014115510509F1DA01F3CFB383E2
S1131940A28340815181840F951F8A179B0771F4EC
S11319508D919C911197840F951F0296918380839A
S113196012968D919C91139793838283211531054F
S113197029F4F0937A03E09379033EC0D9011396D6
S1131980FC93EE9312974D915D91A40FB51FEA1746
S1131990FB0779F480819181840F951F0296D90108
S11319A011969C938E938281938113969C938E932C
S11319B01297E0E0F0E08A819B81009719F0FE0124
S11319C0EC01F9CFCE01029628813981820F931F51
S11319D020917703309178032817390769F43097F9
S11319E029F410927A031092790302C013821282AE
S11319F0D0937803C0937703DF91CF910895FC01CE
S1131A000590615070400110D8F7809590958E0F25
S1131A109F1F0895DC0101C06D9341505040E0F7D1
S1131A200895FC016150704001900110D8F7809531
S1131A3090958E0F9F1F08950F931F93CF93DF935D
S1131A40182F092FEB018B8181FD03C08FEF9FEFCE
S1131A5020C082FF10C04E815F812C813D814217DE
S1131A6053077CF4E881F9819F012F5F3F4F39834D
S1131A702883108306C0E885F985812F1995892B61
S1131A8029F72E813F812F5F3F4F3F832E83812F84
S1131A90902FDF91CF911F910F910895FA01AA27FA
S1131AA0283051F1203181F1E8946F936E7F6E5F9D
S1131AB07F4F8F4F9F4FAF4FB1E03ED0B4E03CD04B
S1131AC0670F781F891F9A1FA11D680F791F8A1F2E
S1131AD0911DA11D6A0F711D811D911DA11D20D095
S1131AE009F468943F912AE0269F11243019305D4F
S1131AF03193DEF6CF010895462F4770405D419340
S1131B00B3E00FD0C9F7F6CF462F4F70405D4A338C
S1131B1018F0495D31FD4052419302D0A9F7EACF54
S1131B20B4E0A6959795879577956795BA95C9F783
S1131B3000976105710508959B01AC010A2E069476
S1131B405795479537952795BA95C9F7620F731F2F
S10F1B50841F951FA01D0895F894FFCF7A
S1131B5C00007B032000046F12833BCDCC4C3DCDA5
S1131B6CCCCC3D6F12833CF8204A6F797374696353
S1131B7C6B2078203D2025642C204A6F797374697E
S1131B8C636B2079203D20256420000D2000205318
S1131B9C636F7265203D202564202020202020695D
S1131BAC72203D2025642C20004E59205354415260
S1131BBC5421212121210D004D4350323531352042
S1131BCC6973204E4F5420696E20436F6E666967AB
S1131BDC75726174696F6E206D6F646520616674D3
S1131BEC6572207265736574212049747320636F68
S1131BFC6E6669672062697473206172652025784A
S1131C0C0A004D435032353135206973204E4F5400
S1131C1C20696E20636F7272656374206D6F6465E6
S1131C2C2061667465722072657365742120497431
S1131C3C7320636F6E6669672062697473206172C6
S1131C4C652025780A000A2100706F73643A2025F8
S1131C5C64202000706F733A202564202000653ABC
S1131C6C20256420200073706565643A2025642067
S1131C7C200073706565643A20256420202000736D
S1131C8C706565646F75743A20256420200D0A20F4
S1051C9C000042
S9030000FC
