S00F000041726475696E6F2E7372656343
S113000071C000008FC000008DC0000031C100002D
S113001089C0000087C0000085C0000083C00000C4
S113002081C000007FC000007DC000007BC00000D4
S113003079C0000077C0000075C0000073C00000E4
S113004071C000006FC000006DC000006BC00000F4
S113005069C0000067C0000065C0000063C0000004
S113006061C000005FC000005DC000005BC0000014
S113007059C0000057C0000055C0000053C0000024
S113008051C000004FC000004DC000004BC0000034
S113009049C0000047C0000045C0000043C0000044
S11300A041C000003FC000003DC000003BC0000054
S11300B039C0000037C0000035C0000033C0000064
S11300C031C000002FC000002DC000002BC0000074
S11300D029C0000027C0000025C0000023C0000084
S11300E021C0000011241FBECFEFD1E2DEBFCDBF7F
S11300F000E00CBF12E0A0E0B2E0EAE0F5E100E0CD
S11301000BBF02C007900D92AE3CB107D9F722E0B5
S1130110AEECB2E001C01D92A93EB207E1F733D0C4
S11301200C94830A6DCFECE7F0E0808182608083D9
S1130130EAE7F0E0808180648083808184FFFDCFE2
S1130140209178008091790090E0982F8827820F81
S1130150911D08958298EAE7F0E0808180688083A9
S113016080818160808380818260808380818460DB
S11301708083ECE7F0E08081806880838081806404
S11301808083D1CF0895CF93DF93CDB7DEB72B977C
S11301900FB6F894DEBF0FBECDBF87E893E1019799
S11301A0F1F700C0000060E074E284EF90E0B5D2A3
S11301B080E072D020E034E244EF50E06AE077ED72
S11301C083EA9CE3FED18DE292E094D560E074E290
S11301D084EF90E03ED2A2D1BDDF0F2EF8EC8F2E3B
S11301E0912CA12CB12CF02D07E012E065D08823CE
S11301F091F1CE010196B3D02C8130E0A8ECB0E0AF
S11302000FD5A5019401F0D469017A0194E6C91AC5
S1130210D108E108F1087C2C6D2C2D8130E0A8EC8C
S1130220B0E0FED4A5019401DFD4BA01A90144567B
S11302305109610971095F934F93DF92CF921F9324
S11302400F9347D58AE292E055D50F900F900F9007
S11302500F900F900F90872D962D08D22FE38DE0ED
S113026093E0215080409040E1F700C00000BECFF1
S11302701F920F920FB60F9211248F939F9381E0D8
S113028090E09093CF028093CE029F918F910F9034
S11302900FBE0F901F901895FDD063E08BE2E7D05E
S11302A0F894E9E6F0E080818062808380818F7E2B
S11302B08083EA9A789408958091CE029091CF0237
S11302C0892B31F01092CF021092CE0281E0089572
S11302D080E008950F931F93CF93DF93EB01182FC2
S11302E01295107F81E6810FB5D0082F82E6810F29
S11302F0B1D0202F30E0220F331F220F331F220FE3
S1130300331F829586958770280F311D3983288382
S113031085E6810F9FD0982F9F709A83882351F090
S11303201A592396082F010F812F94D089931F5FA8
S11303301013FACFDF91CF911F910F910895CF93AE
S1130340DF93EC018CE286D0982F91709883198208
S1130350827090E09B838A83DF91CF9108950F93FD
S11303601F93CF93DF93CDB7DEB768970FB6F8949A
S1130370DEBF0FBECDBF8C011A821982CE01019659
S1130380DEDF8981882301F1BE016D5F7F4F80E04C
S113039090E0A0DF60E08CE26AD040E061E08CE2B3
S11303A0A9D0CE010196CBDF8A81811104C01092BD
S11303B0CF021092CE028BE0FE013396D801019059
S11303C00D928A95E1F72BC08A81882301F1BE0141
S11303D0625F7F4F81E090E07DDF60E08CE247D098
S11303E040E062E08CE286D0CE010196A8DF8981EC
S11303F0811104C01092CF021092CE028BE0FE0154
S11304003E96D80101900D928A95E1F708C08BE0E1
S1130410FE013396D80101900D928A95E1F7C80147
S113042068960FB6F894DEBF0FBECDBFDF91CF91B3
S11304301F910F9108952F9808952F9A0895FBDF27
S113044080EC8FD1FADF83EC99E00197F1F700C0DB
S113045000000895CF93C82FEEDF83E082D18C2F64
S113046080D184D1C82FE9DF8C2FCF910895CF9309
S1130470DF93D82FC62FDFDF82E073D18D2F71D1A8
S11304808C2F6FD1DADFDF91CF910895682F8FE041
S1130490EECF0895CF93C82F5ED1D1DF8EE0DADF9F
S11304A0807E803869F01F928F938CE392E09F9353
S11304B08F930FD40F900F900F900F9081E018C07E
S11304C08C2FE4DF8EE0C6DF807E8C1781F01F92D4
S11304D08F9386E892E09F938F93FBD38AEC92E00C
S11304E009D40F900F900F900F9081E001C080E02D
S11304F0CF9108951F93CF93DF93182FD62FC42F36
S11305009ADF85E02ED1812F2CD18D2F2AD18C2FEB
S113051028D193DFDF91CF911F910895CF93DF937B
S113052019DE90910602992341F0E5EDF2E080E0B6
S1130530119211928F5F8917D8F3C091D202D0E043
S1130540F2DDCC0FDD1FCB52DD4F99838883E09120
S1130550D202F0E0EE0FFF1FEB52FD4F808191813C
S11305609093D1028093D002DF91CF910895CF92DE
S1130570DF92EF92FF926B017C01E1E8F0E0808171
S11305808460808380818D7F808380818E7F80835F
S11305906091D3027091D40280E090E0EAD1A70187
S11305A096019DD220E030E040E05FE3E5D0B5D194
S11305B07093870060938600FF90EF90DF90CF9058
S11305C008950F931F93E1E8F0E0A081A061A08358
S11305D0A081A860A083E0E8F0E0A081A260A083ED
S11305E0A081AE7FA083A081A068A083A081AF7BFF
S11305F0A083032F142F252F33271093D4020093A5
S1130600D302B5DF259A1F910F910895CF92DF92FF
S1130610EF92FF926B017C016091D3027091D4023E
S113062080E090E0A6D1A701960159D220E030E005
S113063040E05FE3A1D071D17093DE026093DD02EC
S11306407093890060938800FF90EF90DF90CF90C3
S113065008959B01AC016AE077ED83EA9CE3B1DF86
S113066066EA7BE984EC9AE3D1CF0895CF92DF92D6
S1130670EF92FF92BC01882777FD8095982F7BD15C
S113068020E030E543E458E4E0D026EA3BE944ECDA
S11306905AE373D06B017C012FE632E143E85AE35D
S11306A0D0D0882354F02FE632E143E05BE3C70166
S11306B0B60111D2181664F015C00F2EFFE6CF2E26
S11306C0F2E1DF2EF3E8EF2EFAE3FF2EF02D0AC05D
S11306D00F2EFFE6CF2EF2E1DF2EF3E0EF2EFBE349
S11306E0FF2EF02DC701B60191DFFF90EF90DF9050
S11306F0CF900895E0ECF0E0908195FFFDCF8093DA
S1130700C60080E090E00895E0ECF0E0808188236A
S1130710ECF78091C60090E0089520E038E542E0CF
S113072050E040D221501092C5002093C400E2EC66
S1130730F0E088E0808386E08083E1ECF0E0808173
S11307408061808380818860808364E873E08AE7C5
S113075093E075C2089587E884B981E58CBD2F9A2A
S113076008958EBD0DB407FEFDCF08951EBC0DB4D3
S113077007FEFDCF8EB508955058BB27AA270ED08B
S113078070C161D130F066D120F031F49F3F11F493
S11307901EF456C10EF4E095E7FB4CC1E92F72D16B
S11307A080F3BA17620773078407950718F071F48A
S11307B09EF58AC10EF4E0950B2EBA2FA02D0B01E5
S11307C0B90190010C01CA01A0011124FF27591B92
S11307D099F0593F50F4503E68F11A16F040A22F98
S11307E0232F342F4427585FF3CF46953795279509
S11307F0A795F0405395C9F77EF41F16BA0B620B08
S1130800730B840BBAF09150A1F0FF0FBB1F661F4E
S1130810771F881FC2F70EC0BA0F621F731F841F91
S113082048F4879577956795B795F7959E3F08F0B7
S1130830B3CF9395880F08F09927EE0F9795879576
S11308400895D4D008F481E008950CD00AC102D1EF
S113085040F0F9D030F021F45F3F19F0EBC05111B2
S113086034C1EEC00FD198F39923C9F35523B1F3E2
S1130870951B550BBB27AA2762177307840738F00B
S11308809F5F5F4F220F331F441FAA1FA9F333D06A
S11308900E2E3AF0E0E830D091505040E695001C1E
S11308A0CAF729D0FE2F27D0660F771F881FBB1FDA
S11308B0261737074807AB07B0E809F0BB0B802DB4
S11308C0BF01FF2793585F4F2AF09E3F510568F000
S11308D0B1C0FBC05F3FECF3983EDCF3869577959F
S11308E06795B795F7959F5FC9F7880F911D969502
S11308F0879597F90895E1E0660F771F881FBB1F5E
S1130900621773078407BA0720F0621B730B840B0A
S1130910BA0BEE1F88F7E0950895BCD088F09F5776
S113092090F0B92F9927B751A0F0D1F0660F771F37
S1130930881F991F1AF0BA95C9F712C0B13081F017
S1130940C3D0B1E00895C0C0672F782F8827B85F5F
S113095039F0B93FCCF3869577956795B395D9F778
S11309603EF490958095709561957F4F8F4F9F4F82
S11309700895E89409C097FB3EF49095809570958E
S113098061957F4F8F4F9F4F9923A9F0F92F96E9D7
S1130990BB279395F695879577956795B795F1114C
S11309A0F8CFFAF4BB0F11F460FF1BC06F5F7F4FE9
S11309B08F4F9F4F16C0882311F096E911C07723FB
S11309C021F09EE8872F762F05C0662371F096E804
S11309D0862F70E060E02AF09A95660F771F881FD3
S11309E0DAF7880F9695879597F90895990F000877
S11309F0550FAA0BE0E8FEEF16161706E807F907ED
S1130A00C0F012161306E407F50798F0621B730B87
S1130A10840B950B39F40A2661F0232B242B252B08
S1130A2021F408950A2609F4A140A6958FEF811DAB
S1130A30811D089597F99F6780E870E060E008954C
S1130A409FEF80EC089500240A94161617061806E2
S1130A500906089500240A941216130614060506BE
S1130A600895092E0394000C11F4882352F0BB0F4F
S1130A7040F4BF2B11F460FF04C06F5F7F4F8F4FB2
S1130A809F4F089557FD9058440F551F59F05F3FED
S1130A9071F04795880F97FB991F61F09F3F79F09C
S1130AA087950895121613061406551FF2CF46951E
S1130AB0F1DF08C0161617061806991FF1CF8695A0
S1130AC07105610508940895E894BB276627772784
S1130AD0CB0197F908958ADF08F48FEF08950BD0BE
S1130AE0C0CFB1DF28F0B6DF18F0952309F0A2CF0C
S1130AF0A7CF1124EACFC6DFA0F3959FD1F3950FBA
S1130B0050E0551F629FF001729FBB27F00DB11D8D
S1130B10639FAA27F00DB11DAA1F649F6627B00D1D
S1130B20A11D661F829F2227B00DA11D621F739F06
S1130B30B00DA11D621F839FA00D611D221F749F14
S1130B403327A00D611D231F849F600D211D822F5B
S1130B50762F6A2F11249F5750408AF0E1F08823A2
S1130B604AF0EE0FFF1FBB1F661F771F881F9150AF
S1130B705040A9F79E3F510570F05CCFA6CF5F3F70
S1130B80ECF3983EDCF3869577956795B795F795E2
S1130B90E7959F5FC1F7FE2B880F911D969587956A
S1130BA097F90895A1E21A2EAA1BBB1BFD010DC0E3
S1130BB0AA1FBB1FEE1FFF1FA217B307E407F50709
S1130BC020F0A21BB30BE40BF50B661F771F881FE5
S1130BD0991F1A9469F760957095809590959B017B
S1130BE0AC01BD01CF010895052E97FB16F40094C6
S1130BF00FD057FD05D0D6DF07FC02D046F408C05D
S1130C0050954095309521953F4F4F4F5F4F089534
S1130C1090958095709561957F4F8F4F9F4F089564
S1130C20A29FB001B39FC001A39F700D811D112429
S1130C30911DB29F700D811D1124911D08950F9374
S1130C401F93CF93DF93EC018B01009731F461156F
S1130C50710519F480E090E037C06EE070E081E047
S1130C6090E063D2FC010097A9F380E88383011527
S1130C70110571F01387028781E883838091DF0275
S1130C809091E002892B21F4F093E002E093DF02DB
S1130C902097C9F0D187C087838182608383809144
S1130CA0E1029091E202892B71F4F093E202E09365
S1130CB0E1028091E3029091E402892B21F4F09304
S1130CC0E402E093E302CF01DF91CF911F910F91F2
S1130CD00895CF93DF93CDB7DEB7FE0136966191C9
S1130CE07191AF018091E1029091E20230D0DF91E5
S1130CF0CF9108950F931F93CF93DF93E091E10277
S1130D00F091E202238121FF1BC0EC0100E010E01E
S1130D1089916091E1027091E202DB011896ED91F4
S1130D20FC911997882331F01995892B89F30FEFDA
S1130D301FEFEECF8AE01995892B11F4C80102C088
S1130D408FEF9FEFDF91CF911F910F9108952F9215
S1130D503F924F925F926F927F928F929F92AF9247
S1130D60BF92CF92DF92EF92FF920F931F93CF9394
S1130D70DF93CDB7DEB72C970FB6F894DEBF0FBE66
S1130D80CDBF7C016B018A01FC011782168283812D
S1130D9081FFB0C1CE0101964C01F7019381F601A8
S1130DA093FD859193FF81916F01882309F49EC17E
S1130DB0853239F493FD859193FF81916F018532DA
S1130DC021F4B70190E00FD3E8CF512C312C20E06F
S1130DD02032A0F48B3269F030F4803259F083323F
S1130DE069F420612CC08D3239F0803339F42160EC
S1130DF026C02260246023C0286021C027FD27C0AC
S1130E0030ED380F3A3078F426FF06C0FAE05F9EE2
S1130E10300D1124532E13C08AE0389E300D112456
S1130E20332E20620CC08E3221F426FD5FC1206473
S1130E3006C08C3611F4206802C0883641F4F601ED
S1130E4093FD859193FF81916F018111C1CF982FFB
S1130E509F7D9554933028F40C5F1F4FFFE3F98373
S1130E600DC0833631F0833771F0833509F057C0F4
S1130E7021C0F801808189830E5F1F4F442443946D
S1130E80512C540114C03801F2E06F0E711CF801AA
S1130E90A080B18026FF03C0652D70E002C06FEF13
S1130EA07FEFC5012C8794D22C0183012C852F77E9
S1130EB0222E16C03801F2E06F0E711CF801A080DA
S1130EC0B18026FF03C0652D70E002C06FEF7FEF95
S1130ED0C5012C876BD22C012C852068222E83011E
S1130EE023FC19C0832D90E048165906A0F4B701DD
S1130EF080E290E078D23A94F5CFF50127FC859111
S1130F0027FE81915F01B70190E06DD231103A94D0
S1130F10F1E04F1A51084114510479F7DEC08436C8
S1130F2011F0893631F5F80127FF07C0608171811E
S1130F30828193810C5F1F4F08C060817181882773
S1130F4077FD8095982F0E5F1F4F2F76B22E97FF57
S1130F5009C090958095709561957F4F8F4F9F4FF5
S1130F602068B22E2AE030E0A4016FD2A82EA8187F
S1130F7043C0853729F42F7EB22E2AE030E025C005
S1130F80F22FF97FBF2E8F36C1F018F4883579F02F
S1130F90ADC0803719F0883721F0A8C02F2F206109
S1130FA0B22EB4FE0DC08B2D8460B82E09C024FF70
S1130FB00AC09F2F9660B92E06C028E030E005C015
S1130FC020E130E002C020E132E0F801B7FE07C0C2
S1130FD060817181828193810C5F1F4F06C06081A3
S1130FE0718180E090E00E5F1F4FA4012ED2A82EE5
S1130FF0A818FB2DFF77BF2EB6FE0BC02B2D2E7F1E
S1131000A51450F4B4FE0AC0B2FC08C02B2D2E7EE9
S113101005C07A2C2B2D03C07A2C01C0752C24FF1B
S11310200DC0FE01EA0DF11D8081803311F4297E8B
S113103009C022FF06C07394739404C0822F86787B
S113104009F0739423FD12C020FF06C05A2C7314B8
S113105018F4530C5718732C731460F4B70180E21E
S113106090E02C87C0D173942C85F6CF731410F4C0
S1131070371801C0312C24FF11C0B70180E390E080
S11310802C87B1D12C8522FF16C021FF03C088E52F
S113109090E002C088E790E0B7010CC0822F867808
S11310A051F021FD02C080E201C08BE227FD8DE2F8
S11310B0B70190E098D1A51430F4B70180E390E033
S11310C092D15A94F8CFAA94F401EA0DF11D8081CB
S11310D0B70190E088D1A110F6CF332009F45DCE9A
S11310E0B70180E290E07FD13A94F7CFF70186818F
S11310F0978102C08FEF9FEF2C960FB6F894DEBF56
S11311000FBECDBFDF91CF911F910F91FF90EF9054
S1131110DF90CF90BF90AF909F908F907F906F9013
S11311205F904F903F902F9008950F931F93CF930C
S1131130DF93869F8001879F100D969F100D1124C9
S1131140C8010DD0EC01009721F0A80160E070E027
S113115038D1CE01DF91CF911F910F910895CF9394
S1131160DF938230910510F482E090E0E091E70291
S1131170F091E80220E030E0A0E0B0E0309739F1EF
S11311804081518148175907B8F04817590771F43D
S113119082819381109729F013969C938E931297D2
S11311A02CC09093E8028093E70227C021153105F3
S11311B031F04217530718F0A901DB0101C0EF0118
S11311C09A01BD01DF010280F381E02DD7CF211503
S11311D03105F9F0281B390B2430310580F48A815C
S11311E09B816115710521F0FB019383828304C007
S11311F09093E8028093E702FE01329644C0FE0118
S1131200E20FF31F8193919322503109398328838C
S11312103AC02091E5023091E602232B41F420915B
S11312200202309103023093E6022093E5022091FA
S11312300002309101022115310541F42DB73EB76A
S11312404091040250910502241B350BE091E50204
S1131250F091E602E217F307A0F42E1B3F0B2817C8
S1131260390778F0AC014E5F5F4F2417350748F01B
S11312704E0F5F1F5093E6024093E50281939193D2
S113128002C0E0E0F0E0CF01DF91CF910895CF9369
S1131290DF93009709F487C0FC013297138212820E
S11312A0C091E702D091E802209781F42081318136
S11312B0280F391F8091E5029091E6028217930767
S11312C079F5F093E602E093E5026DC0DE0120E0DB
S11312D030E0AE17BF0750F412964D915C9113970E
S11312E09D014115510509F1DA01F3CFB383A283BE
S11312F040815181840F951F8A179B0771F48D914A
S11313009C911197840F951F029691838083129666
S11313108D919C911397938382832115310529F430
S1131320F093E802E093E7023EC0D9011396FC93E0
S1131330EE9312974D915D91A40FB51FEA17FB0729
S113134079F480819181840F951F0296D9011196B9
S11313509C938E938281938113969C938E93129780
S1131360E0E0F0E08A819B81009719F0FE01EC0136
S1131370F9CFCE01029628813981820F931F2091E3
S1131380E5023091E6022817390769F4309729F409
S11313901092E8021092E70202C013821282D093E4
S11313A0E602C093E502DF91CF910895FC01059018
S11313B0615070400110D8F7809590958E0F9F1F53
S11313C00895DC0101C06D9341505040E0F7089549
S11313D0FC016150704001900110D8F78095909500
S11313E08E0F9F1F08950F931F93CF93DF93182F92
S11313F0092FEB018B8181FD03C08FEF9FEF20C08C
S113140082FF10C04E815F812C813D8142175307BA
S11314107CF4E881F9819F012F5F3F4F3983288352
S1131420108306C0E885F985812F1995892B29F742
S11314302E813F812F5F3F4F3F832E83812F902F3B
S1131440DF91CF911F910F910895FA01AA272830B7
S113145051F1203181F1E8946F936E7F6E5F7F4F7D
S11314608F4F9F4FAF4FB1E03ED0B4E03CD0670FF9
S1131470781F891F9A1FA11D680F791F8A1F911D4C
S1131480A11D6A0F711D811D911DA11D20D009F49C
S113149068943F912AE0269F11243019305D3193DE
S11314A0DEF6CF010895462F4770405D4193B3E0C7
S11314B00FD0C9F7F6CF462F4F70405D4A3318F06E
S11314C0495D31FD4052419302D0A9F7EACFB4E01F
S11314D0A6959795879577956795BA95C9F70097D7
S11314E06105710508959B01AC010A2E0694579578
S11314F0479537952795BA95C9F7620F731F841FCF
S10D1500951FA01D0895F894FFCF75
S113150A0000E902200004204A6F79737469636B4E
S113151A2078203D2025642C204A6F7973746963EE
S113152A6B2079203D20256420000D20004E59208F
S113153A535441525421212121210D004D4350324B
S113154A353135206973204E4F5420696E20436F1C
S113155A6E66696775726174696F6E206D6F646512
S113156A20616674657220726573657421204974FA
S113157A7320636F6E66696720626974732061728F
S113158A652025780A004D43503235313520697378
S113159A204E4F5420696E20636F72726563742003
S11315AA6D6F646520616674657220726573657413
S11315BA212049747320636F6E66696720626974B7
S11115CA73206172652025780A000A21000052
S9030000FC
