S00F000041726475696E6F2E7372656343
S113000071C000008EC000008CC00000EAC0000077
S113001088C0000086C0000084C0000082C00000C8
S113002080C000007EC000007CC000007AC00000D8
S113003078C0000076C0000074C0000072C00000E8
S113004070C000006EC000006CC000006AC00000F8
S113005068C0000066C0000064C0000062C0000008
S113006060C000005EC000005CC000005AC0000018
S113007058C0000056C0000054C0000052C0000028
S113008050C000004EC000004CC000004AC0000038
S113009048C0000046C0000044C0000042C0000048
S11300A040C000003EC000003CC000003AC0000058
S11300B038C0000036C0000034C0000032C0000068
S11300C030C000002EC000002CC000002AC0000078
S11300D028C0000026C0000024C0000022C0000088
S11300E020C0000011241FBECFEFD1E2DEBFCDBF80
S11300F000E00CBF12E0A0E0B2E0E8E7FEE000E0C0
S11301000BBF02C007900D92AC3CB107D9F722E0B7
S1130110ACECB2E001C01D92A83DB207E1F702D0F9
S1130120A9C66ECFCF93DF93CDB7DEB72B970FB6AB
S1130130F894DEBF0FBECDBF87E893E10197F1F7D6
S113014000C0000060E074E284EF90E0B3D180E08E
S11301505CD086E092E085D20F2EF8ECCF2ED12C25
S1130160E12CF12CF02D05E112E05FD0882379F128
S1130170CE010196ADD02D8130E0A8ECB0E007D2DD
S1130180A7019601E8D1DA01C90184569109A109B0
S1130190B1099F938F932C8130E0A8ECB0E0F7D1A4
S11301A0A7019601D8D1DA01C90184569109A109A0
S11301B0B1099F938F931F930F9342D288E392E0E8
S11301C050D20F900F900F900F900F900F909FE3CD
S11301D022E48FE0915020408040E1F700C000000D
S11301E0C4CF1F920F920FB60F9211248F939F9337
S11301F081E090E09093CD028093CC029F918F9107
S11302000F900FBE0F901F901895FDD063E08BE206
S1130210E7D0F894E9E6F0E0808180628083808111
S11302208F7E8083EA9A789408958091CC0290918D
S1130230CD02892B31F01092CD021092CC0281E0D4
S1130240089580E008950F931F93CF93DF93EB01FC
S1130250182F1295107F81E6810FB5D0082F82E602
S1130260810FB1D0202F30E0220F331F220F331F14
S1130270220F331F829586958770280F311D39838D
S1130280288385E6810F9FD0982F9F709A838823B7
S113029051F01A592396082F010F812F94D0899376
S11302A01F5F1013FACFDF91CF911F910F91089523
S11302B0CF93DF93EC018CE286D0982F91709883D2
S11302C01982827090E09B838A83DF91CF91089595
S11302D00F931F93CF93DF93CDB7DEB768970FB615
S11302E0F894DEBF0FBECDBF8C011A821982CE01F5
S11302F00196DEDF8981882301F1BE016D5F7F4FA6
S113030080E090E0A0DF60E08CE26AD040E061E051
S11303108CE2A9D0CE010196CBDF8A81811104C081
S11303201092CD021092CC028BE0FE013396D801DC
S113033001900D928A95E1F72BC08A81882301F1FF
S1130340BE01625F7F4F81E090E07DDF60E08CE280
S113035047D040E062E08CE286D0CE010196A8DF6F
S11303608981811104C01092CD021092CC028BE0DD
S1130370FE013E96D80101900D928A95E1F708C0DE
S11303808BE0FE013396D80101900D928A95E1F736
S1130390C80168960FB6F894DEBF0FBECDBFDF91DB
S11303A0CF911F910F9108952F9808952F9A089532
S11303B0FBDF80ECA3D0FADF83EC99E00197F1F73F
S11303C000C000000895CF93C82FEEDF83E096D0DD
S11303D08C2F94D098D0C82FE9DF8C2FCF9108951B
S11303E0CF93DF93D82FC62FDFDF82E087D08D2F06
S11303F085D08C2F83D0DADFDF91CF910895682FD9
S11304008FE0EECF0895CF93C82F72D0D1DF8EE066
S1130410DADF807E803869F01F928F938BE392E05D
S11304209F938F930DD10F900F900F900F9081E0B9
S113043018C08C2FE4DF8EE0C6DF807E8C1781F03D
S11304401F928F9385E892E09F938F93F9D089EC64
S113045092E007D10F900F900F900F9081E001C0B0
S113046080E0CF9108951F93CF93DF93182FD62F59
S1130470C42F9ADF85E042D0812F40D08D2F3ED00B
S11304808C2F3CD093DFDF91CF911F910895E0EC46
S1130490F0E0908195FFFDCF8093C60080E090E06E
S11304A00895E0ECF0E080818823ECF78091C600A9
S11304B090E0089520E038E542E050E02AD0215051
S11304C01092C5002093C400E2ECF0E088E0808341
S11304D086E08083E1ECF0E080818061808380812C
S11304E08860808361E572E087E492E05FC00895EC
S11304F087E884B981E58CBD2F9A08958EBD0DB42B
S113050007FEFDCF08951EBC0DB407FEFDCF8EB5CA
S11305100895A1E21A2EAA1BBB1BFD010DC0AA1F40
S1130520BB1FEE1FFF1FA217B307E407F50720F058
S1130530A21BB30BE40BF50B661F771F881F991FD3
S11305401A9469F760957095809590959B01AC011C
S1130550BD01CF010895052E97FB16F400940FD02A
S113056057FD05D0D6DF07FC02D046F408C05095ED
S11305704095309521953F4F4F4F5F4F089590958B
S11305808095709561957F4F8F4F9F4F0895A29FDF
S1130590B001B39FC001A39F700D811D1124911D53
S11305A0B29F700D811D1124911D08950F931F9307
S11305B0CF93DF93EC018B01009731F46115710542
S11305C019F480E090E037C06EE070E081E090E0E4
S11305D063D2FC010097A9F380E883830115110518
S11305E071F01387028781E883838091CE02909112
S11305F0CF02892B21F4F093CF02E093CE0220970F
S1130600C9F0D187C0878381826083838091D002BF
S11306109091D102892B71F4F093D102E093D0022E
S11306208091D2029091D302892B21F4F093D302CA
S1130630E093D202CF01DF91CF911F910F910895E2
S1130640CF93DF93CDB7DEB7FE01369661917191FA
S1130650AF018091D0029091D10230D0DF91CF913F
S113066008950F931F93CF93DF93E091D002F091FD
S1130670D102238121FF1BC0EC0100E010E089912D
S11306806091D0027091D102DB011896ED91FC913A
S11306901997882331F01995892B89F30FEF1FEFF0
S11306A0EECF8AE01995892B11F4C80102C08FEFAF
S11306B09FEFDF91CF911F910F9108952F923F9259
S11306C04F925F926F927F928F929F92AF92BF925E
S11306D0CF92DF92EF92FF920F931F93CF93DF930A
S11306E0CDB7DEB72C970FB6F894DEBF0FBECDBFE3
S11306F07C016B018A01FC0117821682838181FFD0
S1130700B0C1CE0101964C01F7019381F60193FD2E
S1130710859193FF81916F01882309F49EC18532ED
S113072039F493FD859193FF81916F01853221F412
S1130730B70190E00FD3E8CF512C312C20E02032C8
S1130740A0F48B3269F030F4803259F0833269F4CA
S113075020612CC08D3239F0803339F4216026C0F9
S11307602260246023C0286021C027FD27C030ED0B
S1130770380F3A3078F426FF06C0FAE05F9E300D59
S11307801124532E13C08AE0389E300D1124332EC9
S113079020620CC08E3221F426FD5FC1206406C0A5
S11307A08C3611F4206802C0883641F4F60193FDBA
S11307B0859193FF81916F018111C1CF982F9F7D06
S11307C09554933028F40C5F1F4FFFE3F9830DC059
S11307D0833631F0833771F0833509F057C021C077
S11307E0F801808189830E5F1F4F44244394512C68
S11307F0540114C03801F2E06F0E711CF801A0809E
S1130800B18026FF03C0652D70E002C06FEF7FEF5B
S1130810C5012C8794D22C0183012C852F77222E9D
S113082016C03801F2E06F0E711CF801A080B1808F
S113083026FF03C0652D70E002C06FEF7FEFC50196
S11308402C876BD22C012C852068222E830123FC5B
S113085019C0832D90E048165906A0F4B70180E230
S113086090E078D23A94F5CFF50127FC859127FEE4
S113087081915F01B70190E06DD231103A94F1E0BB
S11308804F1A51084114510479F7DEC0843611F02F
S1130890893631F5F80127FF07C0608171818281B3
S11308A093810C5F1F4F08C060817181882777FD99
S11308B08095982F0E5F1F4F2F76B22E97FF09C099
S11308C090958095709561957F4F8F4F9F4F2068CD
S11308D0B22E2AE030E0A4016FD2A82EA81843C09B
S11308E0853729F42F7EB22E2AE030E025C0F22F7E
S11308F0F97FBF2E8F36C1F018F4883579F0ADC07A
S1130900803719F0883721F0A8C02F2F2061B22E2C
S1130910B4FE0DC08B2D8460B82E09C024FF0AC01C
S11309209F2F9660B92E06C028E030E005C020E174
S113093030E002C020E132E0F801B7FE07C0608178
S11309407181828193810C5F1F4F06C06081718128
S113095080E090E00E5F1F4FA4012ED2A82EA818AD
S1130960FB2DFF77BF2EB6FE0BC02B2D2E7FA514BB
S113097050F4B4FE0AC0B2FC08C02B2D2E7E05C074
S11309807A2C2B2D03C07A2C01C0752C24FF0DC0AA
S1130990FE01EA0DF11D8081803311F4297E09C026
S11309A022FF06C07394739404C0822F867809F0E2
S11309B0739423FD12C020FF06C05A2C731418F43C
S11309C0530C5718732C731460F4B70180E290E051
S11309D02C87C0D173942C85F6CF731410F4371878
S11309E001C0312C24FF11C0B70180E390E02C87B3
S11309F0B1D12C8522FF16C021FF03C088E590E009
S1130A0002C088E790E0B7010CC0822F867851F0CD
S1130A1021FD02C080E201C08BE227FD8DE2B70117
S1130A2090E098D1A51430F4B70180E390E092D11E
S1130A305A94F8CFAA94F401EA0DF11D8081B7010C
S1130A4090E088D1A110F6CF332009F45DCEB70130
S1130A5080E290E07FD13A94F7CFF70186819781C5
S1130A6002C08FEF9FEF2C960FB6F894DEBF0FBE37
S1130A70CDBFDF91CF911F910F91FF90EF90DF9049
S1130A80CF90BF90AF909F908F907F906F905F902A
S1130A904F903F902F9008950F931F93CF93DF9320
S1130AA0869F8001879F100D969F100D1124C80109
S1130AB00DD0EC01009721F0A80160E070E038D17E
S1130AC0CE01DF91CF911F910F910895CF93DF93C2
S1130AD08230910510F482E090E0E091D602F0912A
S1130AE0D70220E030E0A0E0B0E0309739F1408157
S1130AF0518148175907B8F04817590771F4828192
S1130B009381109729F013969C938E9312972CC07F
S1130B109093D7028093D60227C02115310531F076
S1130B204217530718F0A901DB0101C0EF019A0134
S1130B30BD01DF010280F381E02DD7CF21153105FE
S1130B40F9F0281B390B2430310580F48A819B810C
S1130B506115710521F0FB019383828304C0909396
S1130B60D7028093D602FE01329644C0FE01E20F02
S1130B70F31F8193919322503109398328833AC01A
S1130B802091D4023091D502232B41F4209102020A
S1130B90309103023093D5022093D40220910002B5
S1130BA0309101022115310541F42DB73EB7409132
S1130BB0040250910502241B350BE091D402F091FC
S1130BC0D502E217F307A0F42E1B3F0B28173907B1
S1130BD078F0AC014E5F5F4F2417350748F04E0F95
S1130BE05F1F5093D5024093D4028193919302C026
S1130BF0E0E0F0E0CF01DF91CF910895CF93DF9350
S1130C00009709F487C0FC01329713821282C091C5
S1130C10D602D091D702209781F420813181280F08
S1130C20391F8091D4029091D5028217930779F5E8
S1130C30F093D502E093D4026DC0DE0120E030E0F1
S1130C40AE17BF0750F412964D915C9113979D0116
S1130C504115510509F1DA01F3CFB383A283408131
S1130C605181840F951F8A179B0771F48D919C9174
S1130C701197840F951F02969183808312968D910C
S1130C809C911397938382832115310529F4F09362
S1130C90D702E093D6023EC0D9011396FC93EE939B
S1130CA012974D915D91A40FB51FEA17FB0779F4D4
S1130CB080819181840F951F0296D90111969C938E
S1130CC08E938281938113969C938E931297E0E086
S1130CD0F0E08A819B81009719F0FE01EC01F9CFC5
S1130CE0CE01029628813981820F931F2091D4026C
S1130CF03091D5022817390769F4309729F41092F6
S1130D00D7021092D60202C013821282D093D50267
S1130D10C093D402DF91CF910895FC0105906150F6
S1130D2070400110D8F7809590958E0F9F1F0895FD
S1130D30DC0101C06D9341505040E0F70895FC017F
S1130D406150704001900110D8F7809590958E0FF6
S1130D509F1F08950F931F93CF93DF93182F092F8D
S1130D60EB018B8181FD03C08FEF9FEF20C082FFD9
S1130D7010C04E815F812C813D81421753077CF462
S1130D80E881F9819F012F5F3F4F398328831083C6
S1130D9006C0E885F985812F1995892B29F72E81BD
S1130DA03F812F5F3F4F3F832E83812F902FDF9111
S1130DB0CF911F910F910895FA01AA27283051F17C
S1130DC0203181F1E8946F936E7F6E5F7F4F8F4F78
S1130DD09F4FAF4FB1E03ED0B4E03CD0670F781FD7
S1130DE0891F9A1FA11D680F791F8A1F911DA11DBC
S1130DF06A0F711D811D911DA11D20D009F46894F5
S1130E003F912AE0269F11243019305D3193DEF69C
S1130E10CF010895462F4770405D4193B3E00FD052
S1130E20C9F7F6CF462F4F70405D4A3318F0495D3D
S1130E3031FD4052419302D0A9F7EACFB4E0A69520
S1130E409795879577956795BA95C9F70097610542
S1130E50710508959B01AC010A2E06945795479598
S1130E6037952795BA95C9F7620F731F841F951F8D
S10B0E70A01D0895F894FFCFC2
S1130E780000D80220004E592053544152542121D5
S1130E882121210D00204A6F79737469636B2078DE
S1130E98203D2025642C204A6F79737469636B2084
S1130EA879203D20256420000D20004D4350323523
S1130EB83135206973204E4F5420696E20436F6E7C
S1130EC866696775726174696F6E206D6F646520F9
S1130ED86166746572207265736574212049747340
S1130EE820636F6E66696720626974732061726536
S1130EF82025780A004D4350323531352069732056
S1130F084E4F5420696E20636F7272656374206D4E
S1130F186F646520616674657220726573657421F7
S1130F282049747320636F6E6669672062697473FD
S10F0F38206172652025780A000A21005F
S9030000FC
