:10000000C2C00000E0C00000DEC0000041C100002E
:10001000DAC00000D8C00000D6C00000D4C0000084
:10002000D2C00000D0C00000CEC00000CCC0000094
:10003000CAC00000C8C00000C6C0000092C50000D1
:10004000C2C00000C0C00000BEC00000BCC00000B4
:10005000BAC00000B8C00000B6C00000B4C00000C4
:10006000B2C00000B0C00000AEC00000ACC00000D4
:10007000AAC00000A8C00000A6C00000A4C00000E4
:10008000A2C00000A0C000009EC000009CC00000F4
:100090009AC0000098C0000096C00000ACC70000E5
:1000A00092C0000090C000008EC000008CC0000014
:1000B0008AC0000088C0000086C0000084C0000024
:1000C00082C0000080C000007EC000007CC0000034
:1000D0007AC0000078C0000076C0000074C0000044
:1000E00072C0000016086808680868086808680890
:1000F00068086808160868086808680868086808D2
:1001000068086808180868086808680868086808BF
:10011000680868086808680868086808680868085F
:10012000680868081808680868086808680868089F
:10013000680868086808680868086808680868083F
:100140006808680864086808680868086808680833
:100150006808680841086808680868086808680846
:10016000680868086808680868086808680868080F
:100170006808680835086808680868086808680832
:1001800068086808530811241FBECFEFD1E2DEBF14
:10019000CDBF00E00CBF13E0A0E0B2E0E8E6FFE175
:1001A00000E00BBF02C007900D92A633B107D9F74C
:1001B00023E0A6E3B3E001C01D92A939B207E1F73D
:1001C00033D00C94B20F1CCFECE7F0E0808182605A
:1001D0008083EAE7F0E0808180648083808184FF0F
:1001E000FDCF209178008091790090E0982F8827AA
:1001F000820F911D08958298EAE7F0E0808180687F
:10020000808380818160808380818260808380811F
:1002100084608083ECE7F0E0808180688083808167
:1002200080648083D1CF08952FEF89EF90E0215033
:1002300080409040E1F700C0000060E074E284EF8D
:1002400090E06FD780E038D020E034E244EF50E017
:100250006AE077ED83EA9CE309D660E074E284EF1C
:1002600090E04CD653D3C7DFF0D148D426D49BD4EA
:1002700089E592E00E94A90B2FEF85EA9EE02150CC
:1002800080409040E1F700C0000001D2F6D2FDCFDF
:100290001F920F920FB60F9211248F939F9381E0BC
:1002A00090E090933903809338039F918F910F9042
:1002B0000FBE0F901F90189579D163E08BE263D148
:1002C000F894E9E6F0E080818062808380818F7E0F
:1002D0008083EA9A78940895809138039091390345
:1002E000892B31F0109239031092380381E0089580
:1002F00080E00895CF93DF93EC018CE237D19E012B
:100300002E5F3F4F422F440F8423482F50E0220F8F
:10031000331F81E090E04217530711F480E090E032
:10032000DF91CF910895EF92FF920F931F93CF9398
:10033000DF93EC0111C020913603309137032F5F1A
:100340003F4F30933703209336032330310524F099
:100350001092370310923603809136039091370341
:10036000C9DF892B41F388819981282F2770F22ECC
:10037000BC0176956795769567957695679506E3C2
:1003800013E0F80180818295807F8F5CFCD06F2D17
:100390006295660F607EF80180818295807F8E5C19
:1003A000F2D0EA80F80180818295807F6E2D8B5C8F
:1003B000EAD02396EE2079F0F12C6991F801808142
:1003C0002F2DF0E18F9F200D1124822F8A5CDBD02E
:1003D000F394FE10F2CF809136038F571AD1DF913C
:1003E000CF911F910F91FF90EF9008950F931F935E
:1003F000CF93DF93EB01182F1295107F81E6810FC9
:10040000B5D0082F82E6810FB1D0202F30E0220F27
:10041000331F220F331F220F331F8295869587705B
:10042000280F311D3983288385E6810F9FD0982FAF
:100430009F709A83882351F01A592396082F010F31
:10044000812F94D089931F5F1013FACFDF91CF9142
:100450001F910F910895CF93DF93EC018CE286D02A
:10046000982F917098831982827090E09B838A8381
:10047000DF91CF9108950F931F93CF93DF93CDB763
:10048000DEB768970FB6F894DEBF0FBECDBF8C0104
:100490001A821982CE010196DEDF8981882301F15B
:1004A000BE016D5F7F4F80E090E0A0DF60E08CE2F6
:1004B0006AD040E061E08CE2B4D0CE010196CBDF9F
:1004C0008A81811104C010923903109238038BE0A5
:1004D000FE013396D80101900D928A95E1F72BC069
:1004E0008A81882301F1BE01625F7F4F81E090E045
:1004F0007DDF60E08CE247D040E062E08CE291D0AA
:10050000CE010196A8DF8981811104C010923903C0
:10051000109238038BE0FE013E96D80101900D92B7
:100520008A95E1F708C08BE0FE013396D80101906F
:100530000D928A95E1F7C80168960FB6F894DEBF70
:100540000FBECDBFDF91CF911F910F9108952F98CE
:1005500008952F9A0895FBDF80EC07D6FADF83EC2D
:1005600099E00197F1F700C000000895CF93C82FDC
:10057000EEDF83E0FAD58C2FF8D5FCD5C82FE9DF64
:100580008C2FCF910895CF93DF93D82FC62FDFDF25
:1005900082E0EBD58D2FE9D58C2FE7D5DADFDF911F
:1005A000CF910895682F8FE0EECF0895CF93C82F95
:1005B000D6D5D1DF8EE0DADF807E803871F01F92F1
:1005C0008F9388E692E09F938F930E94980B0F90F1
:1005D0000F900F900F9081E01AC08C2FE3DF8EE018
:1005E000C5DF807E8C1791F01F928F9382EB92E093
:1005F0009F938F930E94980B86EF92E00E94A90B25
:100600000F900F900F900F9081E001C080E0CF918C
:100610000895CF93C82F9BDF8C2FA7D59ADFCF915A
:1006200008951F93CF93DF93182FD62FC42F8FDFFA
:1006300085E09BD5812F99D58D2F97D58C2F95D57A
:1006400088DFDF91CF911F9108957894A8C4089511
:10065000CF93DF9300D0CDB7DEB790E599831A82B0
:100660008B8363E0CE010196A4D40F900F900F907E
:10067000DF91CF9108952E9A2FE38DE093E02150E2
:1006800080409040E1F700C000002E980895CF927E
:10069000DF92EF92FF92CF93DF93CDB7DEB72B9728
:1006A0000FB6F894DEBF0FBECDBF269A15DE8823A5
:1006B00009F465C0CE010196DEDE8BE0FE013196C5
:1006C000A0E7B3E001900D928A95E1F78091730362
:1006D00090E0A0E0B0E08093600390936103A0936A
:1006E0006203B09363038091740390E090936D0371
:1006F00080936C038091750390E090936F038093D7
:100700006E038091760390E0909367038093660375
:1007100020917703822F90E090933B0380933A03DC
:100720001F922F9389EF92E09F938F930E94980BD3
:100730000F900F900F900F90809166039091670338
:10074000892B09F0BAD180917803823531F08091FC
:100750003A0390913B03892B71F481E090E09093F0
:1007600069038093680310923F0310923E0380E078
:1007700090E051D104C010926903109268038091F7
:100780003A0390913B039C012150310922303105FD
:1007900018F0049709F064C020916C0330916D0348
:1007A000A4E0BEED60D7C12CD12C7601CA94A7017C
:1007B000960137D7DA01C90188569E4DAF4FBF4F1A
:1007C00080935C0390935D03A0935E03B0935F03FB
:1007D0001ED3A0916003B091610328EC30E058D79C
:1007E000A70196011ED7DA01C90184569109A10912
:1007F000B10990936B0380936A038DD38091640356
:1008000090916503892BF9F480916E0390916F03A9
:10081000892BF9F081E090E0909365038093640365
:100820002ADF80913A0390913B03019761F4F0D065
:10083000892B49F480913E0390913F030196909358
:100840003F0380933E0380916E0390916F03892B49
:1008500021F4109265031092640397D18111ACD1F9
:100860002B960FB6F894DEBF0FBECDBFDF91CF91B0
:10087000FF90EF90DF90CF900895CF93DF93CDB7A7
:10088000DEB72B970FB6F894DEBF0FBECDBF8091B9
:100890003C0390913D03019690933D0380933C036C
:1008A00045975CF19AD0B4D08C8380913E038D83C0
:1008B00082E08B8381E090E09A838983CE01019668
:1008C00032DD80913F038F9380913E038F938FE0C1
:1008D00093E09F938F932CD79BD09F938F9383E22A
:1008E00093E09F938F9324D710923D0310923C0383
:1008F0000FB6F894DEBF0FBECDBF2B960FB6F8949F
:10090000DEBF0FBECDBFDF91CF910895CF93DF93B0
:1009100072DC90910602992341F0EBE7F3E080E06E
:10092000119211928F5F8917D8F3C0914403D0E0E0
:100930004BDCCC0FDD1FC558DC4F99838883E091D9
:100940004403F0E0EE0FFF1FE558FC4F80819181DA
:10095000909343038093420310924103DF91CF9120
:100960000895CF93DF93C0914403D0E0CC0FDD1FF7
:10097000C558DC4F8091420390914303288139810F
:10098000821B930B90934303809342031DDC998356
:10099000888340914403E42FF0E0EE0FFF1FE558F9
:1009A000FC4F208131818091420390914303820F5B
:1009B000931F909343038093420321E0240F2093DD
:1009C000440360910602261710F01092440370E071
:1009D000F2D5CB01DF91CF910895C3DF883C91051B
:1009E00070F480914003882381F0809141038F5FF0
:1009F000809341031092400381E090E0089581E0EC
:100A00008093400380E090E0089581E090E00895B5
:100A1000809141030895809341030895E2E0F1E05D
:100A200080818F7B80838FE193E00197F1F700C095
:100A300000008081806480830895882319F08130CC
:100A400039F00895E2E0F1E080818D7F80830895A0
:100A5000E2E0F1E0808182608083089590E0F8CD4B
:100A60000895CF93DF93E2E0F1E090819F7D908342
:100A7000908198609083EFEEF0E03197F1F700C03D
:100A80000000D0910601E2E0F1E09081977F908331
:100A9000EFEEF0E03197F1F700C00000C0910601E1
:100AA0008111BCDFE2E0F1E08081806280838D2FE4
:100AB00090E09C2BDF91CF910895CF93DF9381E05D
:100AC000BCDF86E490E0C4DD80E0CBDFEC012FEFFB
:100AD00083EF91E0215080409040E1F700C000009A
:100AE00080E0BFDF8C179D0711F0EC01F0CF96DF9F
:100AF00080E090E0ADDDDF91CF910895E1E0F1E09D
:100B0000808180618083A2E0B1E08C9180618C93D0
:100B10008081826080838081806280838081886020
:100B2000808380818064808379DFE7E0F1E08081E9
:100B30008E7F808380818D7F808380818B7F808387
:100B40008081877F808380818F7E808380818F7D7D
:100B5000808380818F7B808380818F778083ADCFFE
:100B600008951F920F920FB60F9211248F939F93A7
:100B700081E090E090935203809351039F918F9175
:100B80000F900FBE0F901F90189580915103909178
:100B90005203892B31F0109252031092510381E0DD
:100BA000089580E00895F89481E08093700087E0D4
:100BB0008093B100789408958F929F92AF92BF92E4
:100BC000CF92DF92EF92FF920F931F93CF93DF9319
:100BD00080E090E046DF909384038093830320912C
:100BE000850330918603EC01C21BD30BD0938A039B
:100BF000C0938903CE01DD2324F4882799278C1B19
:100C00009D0B8C0190938C0380938B03BE018827EE
:100C100077FD8095982FB8D36B017C0180901302EB
:100C200090901402A0901502B0901602A5019401B4
:100C30005FD49B01AC0160914D0370914E03809194
:100C40004F03909150039DD260934D0370934E03D8
:100C500080934F03909350032091490330914A03AE
:100C600040914B0350914C03C701B60189D2A501B5
:100C70009401EFD24B015C016093450370934603EE
:100C80008093470390934803C0924903D0924A034C
:100C9000E0924B03F0924C03C230D10544F4109221
:100CA0004D0310924E0310924F0310925003B8015F
:100CB000882777FD8095982F67D320910F02309178
:100CC0001002409111025091120212D46B017C016A
:100CD00020910702309108024091090250910A02C6
:100CE000C501B40105D49B01AC01C701B60149D2CD
:100CF0006B017C0120914D0330914E0340914F03D5
:100D00005091500360910B0270910C0280910D0282
:100D100090910E02EDD39B01AC01C701B60131D217
:100D200000D370938803609387031C161D061CF480
:100D300081E083DE02C080E080DE809187039091B5
:100D40008803853F21E092073CF084EF91E0909387
:100D500088038093870309C08C309E4F34F48CE065
:100D60009EEF9093880380938703809189039091ED
:100D70008A0399231CF491958195910989309740B4
:100D8000B4F0A0918703B09188032CE330E080D4C5
:100D900024EF31E040E050E044D4DA01C901889604
:100DA000A11DB11D909388038093870315C0A09166
:100DB0008703B09188032AE230E06AD424EF31E05F
:100DC00040E050E02ED4DA01C9018696A11DB11D84
:100DD0009093880380938703809187039091880381
:100DE00099231CF4919581959109809387039093A1
:100DF000880334DEDF91CF911F910F91FF90EF9028
:100E0000DF90CF90BF90AF909F908F900895909378
:100E10008603809385030895CF92DF92EF92FF922D
:100E20006B017C01E1E8F0E0808184608083808157
:100E30008D7F808380818E7F80836091530370914A
:100E4000540380E090E09ED2A701960151D320E0A8
:100E500030E040E05FE394D169D270938700609303
:100E60008600FF90EF90DF90CF9008950F931F932F
:100E7000E1E8F0E0A081A061A083A081A860A08348
:100E8000E0E8F0E0A081A260A083A081AE7FA08313
:100E9000A081A068A083A081AF7BA083032F142F23
:100EA000252F33271093540300935303B5DF259A5E
:100EB0001F910F910895CF92DF92EF92FF926B01F5
:100EC0007C01609153037091540380E090E05AD20A
:100ED000A70196010DD320E030E040E05FE350D160
:100EE00025D270938E0360938D0370938900609375
:100EF0008800FF90EF90DF90CF9008959B01AC01A8
:100F00006AE077ED83EA9CE3B1DF66EA7BE984EC93
:100F10009AE3D1CF0895CF92DF92EF92FF92BC0176
:100F2000882777FD8095982F2FD220E030E543E485
:100F300058E48FD126EA3BE944EC5AE322D16B0115
:100F40007C012AEF3DEE4BE65AE37FD1882354F033
:100F500027E230EA49E05BE3C701B601C5D21816C3
:100F600064F015C00F2EFAEFCF2EFDEEDF2EFBE65C
:100F7000EF2EFAE3FF2EF02D0AC00F2EF7E2CF2E50
:100F8000F0EADF2EF9E0EF2EFBE3FF2EF02DC70194
:100F9000B60191DFFF90EF90DF90CF9008958CE045
:100FA0008093B8008FEF8093BB0084E08093BC00F7
:100FB0000895ECEBF0E0208120FDFDCF6093570316
:100FC000FC0120812093580320FD0CC0623050F0BA
:100FD000DC011196E9E5F3E081E09D9191938F5F4B
:100FE0008613FBCF1092560388EF8093170285EA91
:100FF0008093BC0008951F920F920FB60F92112498
:101000000BB60F922F933F938F939F93AF93BF9302
:10101000EF93FF938091B90090E0FC013897E135A0
:10102000F10508F055C0EE58FF4F17C31092550355
:10103000E091550380915703E81770F481E08E0F1B
:1010400080935503F0E0E85AFC4F80818093BB0009
:1010500085E88093BC0043C08091560381608093F3
:10106000560384E98093BC003AC0E091550381E0C7
:101070008E0F809355038091BB00F0E0E85AFC4F3F
:1010800080832091550330E08091570390E00197D1
:101090002817390724F485EC8093BC0020C085E82C
:1010A0008093BC001CC08091BB00E0915503F0E030
:1010B000E85AFC4F808380915603816080935603E9
:1010C00084E98093BC000BC085EA8093BC0007C014
:1010D0008091B9008093170284E08093BC00FF9157
:1010E000EF91BF91AF919F918F913F912F910F9071
:1010F0000BBE0F900FBE0F901F901895E0ECF0E024
:10110000908195FFFDCF8093C60080E090E0089528
:10111000E0ECF0E080818823ECF78091C60090E05D
:10112000089520E038E542E050E059D22150109275
:10113000C5002093C400E2ECF0E088E0808386E004
:101140008083E1ECF0E08081806180838081886031
:10115000808368E878E08EE798E0A0C2089587E889
:1011600084B981E58CBD2F9A08958EBD0DB407FE1C
:10117000FDCF08951EBC0DB407FEFDCF8EB50895BA
:101180005058BB27AA270ED075C166D130F06BD15D
:1011900020F031F49F3F11F41EF45BC10EF4E09592
:1011A000E7FB51C1E92F77D180F3BA1762077307C4
:1011B0008407950718F071F49EF58FC10EF4E09541
:1011C0000B2EBA2FA02D0B01B90190010C01CA0101
:1011D000A0011124FF27591B99F0593F50F4503EAC
:1011E00068F11A16F040A22F232F342F4427585F9E
:1011F000F3CF469537952795A795F0405395C9F7B6
:101200007EF41F16BA0B620B730B840BBAF091506D
:10121000A1F0FF0FBB1F661F771F881FC2F70EC00C
:10122000BA0F621F731F841F48F4879577956795DF
:10123000B795F7959E3F08F0B3CF9395880F08F0C8
:101240009927EE0F979587950895D9D008F481E0F6
:1012500008950CD00FC107D140F0FED030F021F43A
:101260005F3F19F0F0C0511139C1F3C014D198F3A8
:101270009923C9F35523B1F3951B550BBB27AA2717
:1012800062177307840738F09F5F5F4F220F331F89
:10129000441FAA1FA9F333D00E2E3AF0E0E830D055
:1012A00091505040E695001CCAF729D0FE2F27D058
:1012B000660F771F881FBB1F261737074807AB0726
:1012C000B0E809F0BB0B802DBF01FF2793585F4F9B
:1012D0002AF09E3F510568F0B6C000C15F3FECF3B5
:1012E000983EDCF3869577956795B795F7959F5F60
:1012F000C9F7880F911D9695879597F90895E1E0B4
:10130000660F771F881FBB1F621773078407BA0712
:1013100020F0621B730B840BBA0BEE1F88F7E0956D
:10132000089504D06894B111D9C00895BCD088F054
:101330009F5790F0B92F9927B751A0F0D1F0660FC1
:10134000771F881F991F1AF0BA95C9F712C0B130DC
:1013500081F0C3D0B1E00895C0C0672F782F8827EF
:10136000B85F39F0B93FCCF3869577956795B3951B
:10137000D9F73EF490958095709561957F4F8F4F8A
:101380009F4F0895E89409C097FB3EF4909580958F
:10139000709561957F4F8F4F9F4F9923A9F0F92F3B
:1013A00096E9BB279395F695879577956795B795B9
:1013B000F111F8CFFAF4BB0F11F460FF1BC06F5F9F
:1013C0007F4F8F4F9F4F16C0882311F096E911C0B1
:1013D000772321F09EE8872F762F05C0662371F0D2
:1013E00096E8862F70E060E02AF09A95660F771FE6
:1013F000881FDAF7880F9695879597F90895990FC2
:101400000008550FAA0BE0E8FEEF16161706E807CE
:10141000F907C0F012161306E407F50798F0621BEF
:10142000730B840B950B39F40A2661F0232B242BC4
:10143000252B21F408950A2609F4A140A6958FEFE3
:10144000811D811D089597F99F6780E870E060E035
:1014500008959FEF80EC089500240A94161617064D
:1014600018060906089500240A9412161306140695
:1014700005060895092E0394000C11F4882352F0F8
:10148000BB0F40F4BF2B11F460FF04C06F5F7F4FB0
:101490008F4F9F4F089557FD9058440F551F59F097
:1014A0005F3F71F04795880F97FB991F61F09F3F51
:1014B00079F087950895121613061406551FF2CF7A
:1014C0004695F1DF08C0161617061806991FF1CFCA
:1014D00086957105610508940895E894BB276627F1
:1014E0007727CB0197F908958ADF08F48FEF0895E5
:1014F0000BD0C0CFB1DF28F0B6DF18F0952309F08C
:10150000A2CFA7CF1124EACFC6DFA0F3959FD1F3D6
:10151000950F50E0551F629FF001729FBB27F00DA1
:10152000B11D639FAA27F00DB11DAA1F649F6627F6
:10153000B00DA11D661F829F2227B00DA11D621F45
:10154000739FB00DA11D621F839FA00D611D221FFF
:10155000749F3327A00D611D231F849F600D211DE3
:10156000822F762F6A2F11249F5750408AF0E1F086
:1015700088234AF0EE0FFF1FBB1F661F771F881FCF
:1015800091505040A9F79E3F510570F05CCFA6CF17
:101590005F3FECF3983EDCF3869577956795B795BA
:1015A000F795E7959F5FC1F7FE2B880F911D9695E4
:1015B000879597F90895AA1BBB1B51E107C0AA1F85
:1015C000BB1FA617B70710F0A61BB70B881F991FE4
:1015D0005A95A9F780959095BC01CD010895A1E297
:1015E0001A2EAA1BBB1BFD010DC0AA1FBB1FEE1F9D
:1015F000FF1FA217B307E407F50720F0A21BB30BE8
:10160000E40BF50B661F771F881F991F1A9469F763
:1016100060957095809590959B01AC01BD01CF01BF
:101620000895052E97FB16F400940FD057FD05D0B2
:10163000D6DF07FC02D046F408C05095409530959F
:1016400021953F4F4F4F5F4F08959095809570952E
:1016500061957F4F8F4F9F4F0895EE0FFF1F0590AD
:10166000F491E02D199405D0332312F48A1B9B0BBF
:1016700010C0A29FB001B39FC001A39F700D811D38
:101680001124911DB29F700D811D1124911D08958B
:10169000F0DFB7FF0895821B930B08950F931F93FC
:1016A000CF93DF93EC018B01009731F46115710545
:1016B00019F480E090E037C06EE070E081E090E0E7
:1016C00063D2FC010097A9F380E88383011511051B
:1016D00071F01387028781E8838380918F03909153
:1016E0009003892B21F4F0939003E0938F032097CC
:1016F000C9F0D187C0878381826083838091910301
:1017000090919203892B71F4F0939203E0939103EB
:101710008091930390919403892B21F4F093940387
:10172000E0939303CF01DF91CF911F910F91089523
:10173000CF93DF93CDB7DEB7FE01369661917191FD
:10174000AF01809191039091920330D0DF91CF91BE
:1017500008950F931F93CF93DF93E0919103F0913E
:101760009203238121FF1BC0EC0100E010E089916E
:101770006091910370919203DB011896ED91FC91B9
:101780001997882331F01995892B89F30FEF1FEFF3
:10179000EECF8AE01995892B11F4C80102C08FEFB2
:1017A0009FEFDF91CF911F910F9108952F923F925C
:1017B0004F925F926F927F928F929F92AF92BF9261
:1017C000CF92DF92EF92FF920F931F93CF93DF930D
:1017D000CDB7DEB72C970FB6F894DEBF0FBECDBFE6
:1017E0007C016B018A01FC0117821682838181FFD3
:1017F000B0C1CE0101964C01F7019381F60193FD32
:10180000859193FF81916F01882309F49EC18532F0
:1018100039F493FD859193FF81916F01853221F415
:10182000B70190E00FD3E8CF512C312C20E02032CB
:10183000A0F48B3269F030F4803259F0833269F4CD
:1018400020612CC08D3239F0803339F4216026C0FC
:101850002260246023C0286021C027FD27C030ED0E
:10186000380F3A3078F426FF06C0FAE05F9E300D5C
:101870001124532E13C08AE0389E300D1124332ECC
:1018800020620CC08E3221F426FD5FC1206406C0A8
:101890008C3611F4206802C0883641F4F60193FDBD
:1018A000859193FF81916F018111C1CF982F9F7D09
:1018B0009554933028F40C5F1F4FFFE3F9830DC05C
:1018C000833631F0833771F0833509F057C021C07A
:1018D000F801808189830E5F1F4F44244394512C6B
:1018E000540114C03801F2E06F0E711CF801A080A1
:1018F000B18026FF03C0652D70E002C06FEF7FEF5F
:10190000C5012C8794D22C0183012C852F77222EA0
:1019100016C03801F2E06F0E711CF801A080B18092
:1019200026FF03C0652D70E002C06FEF7FEFC50199
:101930002C876BD22C012C852068222E830123FC5E
:1019400019C0832D90E048165906A0F4B70180E233
:1019500090E078D23A94F5CFF50127FC859127FEE7
:1019600081915F01B70190E06DD231103A94F1E0BE
:101970004F1A51084114510479F7DEC0843611F032
:10198000893631F5F80127FF07C0608171818281B6
:1019900093810C5F1F4F08C060817181882777FD9C
:1019A0008095982F0E5F1F4F2F76B22E97FF09C09C
:1019B00090958095709561957F4F8F4F9F4F2068D0
:1019C000B22E2AE030E0A4016FD2A82EA81843C09E
:1019D000853729F42F7EB22E2AE030E025C0F22F81
:1019E000F97FBF2E8F36C1F018F4883579F0ADC07D
:1019F000803719F0883721F0A8C02F2F2061B22E30
:101A0000B4FE0DC08B2D8460B82E09C024FF0AC01F
:101A10009F2F9660B92E06C028E030E005C020E177
:101A200030E002C020E132E0F801B7FE07C060817B
:101A30007181828193810C5F1F4F06C0608171812B
:101A400080E090E00E5F1F4FA4012ED2A82EA818B0
:101A5000FB2DFF77BF2EB6FE0BC02B2D2E7FA514BE
:101A600050F4B4FE0AC0B2FC08C02B2D2E7E05C077
:101A70007A2C2B2D03C07A2C01C0752C24FF0DC0AD
:101A8000FE01EA0DF11D8081803311F4297E09C029
:101A900022FF06C07394739404C0822F867809F0E5
:101AA000739423FD12C020FF06C05A2C731418F43F
:101AB000530C5718732C731460F4B70180E290E054
:101AC0002C87C0D173942C85F6CF731410F437187B
:101AD00001C0312C24FF11C0B70180E390E02C87B6
:101AE000B1D12C8522FF16C021FF03C088E590E00C
:101AF00002C088E790E0B7010CC0822F867851F0D1
:101B000021FD02C080E201C08BE227FD8DE2B7011A
:101B100090E098D1A51430F4B70180E390E092D121
:101B20005A94F8CFAA94F401EA0DF11D8081B7010F
:101B300090E088D1A110F6CF332009F45DCEB70133
:101B400080E290E07FD13A94F7CFF70186819781C8
:101B500002C08FEF9FEF2C960FB6F894DEBF0FBE3A
:101B6000CDBFDF91CF911F910F91FF90EF90DF904C
:101B7000CF90BF90AF909F908F907F906F905F902D
:101B80004F903F902F9008950F931F93CF93DF9323
:101B9000869F8001879F100D969F100D1124C8010C
:101BA0000DD0EC01009721F0A80160E070E038D181
:101BB000CE01DF91CF911F910F910895CF93DF93C5
:101BC0008230910510F482E090E0E0919703F0916B
:101BD000980320E030E0A0E0B0E0309739F1408198
:101BE000518148175907B8F04817590771F4828195
:101BF0009381109729F013969C938E9312972CC083
:101C0000909398038093970327C02115310531F0F5
:101C10004217530718F0A901DB0101C0EF019A0137
:101C2000BD01DF010280F381E02DD7CF2115310501
:101C3000F9F0281B390B2430310580F48A819B810F
:101C40006115710521F0FB019383828304C0909399
:101C5000980380939703FE01329644C0FE01E20F81
:101C6000F31F8193919322503109398328833AC01D
:101C70002091950330919603232B41F42091020289
:101C80003091030230939603209395032091000234
:101C9000309101022115310541F42DB73EB7409135
:101CA000040250910502241B350BE0919503F0913D
:101CB0009603E217F307A0F42E1B3F0B28173907F2
:101CC00078F0AC014E5F5F4F2417350748F04E0F98
:101CD0005F1F50939603409395038193919302C0A5
:101CE000E0E0F0E0CF01DF91CF910895CF93DF9353
:101CF000009709F487C0FC01329713821282C091C9
:101D00009703D0919803209781F420813181280F87
:101D1000391F80919503909196038217930779F567
:101D2000F0939603E09395036DC0DE0120E030E070
:101D3000AE17BF0750F412964D915C9113979D0119
:101D40004115510509F1DA01F3CFB383A283408134
:101D50005181840F951F8A179B0771F48D919C9177
:101D60001197840F951F02969183808312968D910F
:101D70009C911397938382832115310529F4F09365
:101D80009803E09397033EC0D9011396FC93EE931A
:101D900012974D915D91A40FB51FEA17FB0779F4D7
:101DA00080819181840F951F0296D90111969C9391
:101DB0008E938281938113969C938E931297E0E089
:101DC000F0E08A819B81009719F0FE01EC01F9CFC8
:101DD000CE01029628813981820F931F20919503AD
:101DE000309196032817390769F4309729F4109237
:101DF00098031092970302C013821282D093960325
:101E0000C0939503DF91CF910895FC010590615037
:101E100070400110D8F7809590958E0F9F1F089500
:101E2000DC0101C06D9341505040E0F70895FC0182
:101E30006150704001900110D8F7809590958E0FF9
:101E40009F1F08950F931F93CF93DF93182F092F90
:101E5000EB018B8181FD03C08FEF9FEF20C082FFDC
:101E600010C04E815F812C813D81421753077CF465
:101E7000E881F9819F012F5F3F4F398328831083C9
:101E800006C0E885F985812F1995892B29F72E81C0
:101E90003F812F5F3F4F3F832E83812F902FDF9114
:101EA000CF911F910F910895FA01AA27283051F17F
:101EB000203181F1E8946F936E7F6E5F7F4F8F4F7B
:101EC0009F4FAF4FB1E03ED0B4E03CD0670F781FDA
:101ED000891F9A1FA11D680F791F8A1F911DA11DBF
:101EE0006A0F711D811D911DA11D20D009F46894F8
:101EF0003F912AE0269F11243019305D3193DEF6A0
:101F0000CF010895462F4770405D4193B3E00FD055
:101F1000C9F7F6CF462F4F70405D4A3318F0495D40
:101F200031FD4052419302D0A9F7EACFB4E0A69523
:101F30009795879577956795BA95C9F70097610545
:101F4000710508959B01AC010A2E0694579547959B
:101F500037952795BA95C9F7620F731F841F951F90
:081F6000A01D0895F894FFCFC5
:101F680000009903200004FAED6B3A000000400AD3
:101F7800D7A33D6F12833CF8204A6F797374696365
:101F88006B2078203D2025642C204A6F7973746972
:101F9800636B2079203D20256420000D200020530C
:101FA800636F7265203D2025642020202020206951
:101FB80072203D2025642C20004E59205354415254
:101FC8005421212121210D004D4350323531352036
:101FD8006973204E4F5420696E20436F6E6669679F
:101FE80075726174696F6E206D6F646520616674C7
:101FF8006572207265736574212049747320636F5C
:102008006E6669672062697473206172652025783D
:102018000A004D435032353135206973204E4F54F4
:1020280020696E20636F7272656374206D6F6465DA
:102038002061667465722072657365742120497425
:102048007320636F6E6669672062697473206172BA
:10205800652025780A000A21004D454E55204F502D
:1020680054494F4E20202020256420202020005055
:102078004F494E545353454E44203D20256420205B
:10208800202000454E454D59504F494E54203D2083
:062098002564200D0A0082
:00000001FF
