S00F00004279676765726E2E7372656347
S11300000C94B4010C94D0020C94D3010C94D1013F
S11300100C94D1010C94D1010C94D1010C94D10114
S11300200C94D1010C94D1010C94D1010C94D10104
S11300300C94D1010C94D1010C94D1010C94D101F4
S11300400C94D1010C94D1010C94D1010C94D101E4
S11300500C94D1010C94D1010C94D1010C94D101D4
S11300600C94D1010C94D1010C94D1010C94D101C4
S1130070000000000000000000065F5F06000000B2
S11300800007070007070000147F7F147F7F140018
S1130090242E6B6B3A120000466630180C66620020
S11300A0307A4F5D377A48000407030000000000EF
S11300B0001C3E63410000000041633E1C00000040
S11300C0082A3E1C1C3E2A0808083E3E0808000078
S11300D000A0E0600000000008080808080800000C
S11300E000006060000000006030180C060301008E
S11300F03E7F594D7F3E000042427F7F40400000DA
S1130100627359496F660000226349497F360000D3
S1130110181C16137F7F1000276745457D390000A2
S11301203C7E4B4979300000036371190F070000CE
S1130130367F49497F360000064F49693F1E00005B
S113014000006C6C0000000000A0EC6C00000000DB
S1130150081C366341000000141414141414000025
S1130160004163361C080000020351590F060000C9
S11301703E7F415D5D1F1E007C7E13137E7C00006C
S1130180417F7F49497F36001C3E63414163220021
S1130190417F7F41637F1C00417F7F495D41630054
S11301A0417F7F491D0103001C3E6341517372006E
S11301B07F7F08087F7F000000417F7F41000000AF
S11301C0307040417F3F0100417F7F081C7763000E
S11301D0417F7F41406070007F7F060C067F7F0077
S11301E07F7F060C187F7F001C3E6341633E1C002A
S11301F0417F7F49090F06001E3F21717F5E000089
S1130200417F7F19396F460026674D597B320000C4
S113021003417F7F410300007F7F40407F7F0000D8
S11302201F3F60603F1F00007F7F3018307F7F00DA
S113023063771C081C776300074F78784F0700002A
S11302406773594D47637100007F7F41410000008F
S11302500103060C183060000041417F7F0000005C
S1130260080C0603060C0800808080808080808053
S11302700000030704000000207454543C7840003C
S1130280413F7F44447C3800387C44446C2800005F
S1130290307848493F7F4000387C54545C18000053
S11302A0487E7F490302000098BCA4A4F87C0400A3
S11302B0417F7F08047C780000447D7D400000007D
S11302C040C484FD7D000000417F7F10386C4400F1
S11302D000417F7F400000007C7C0C180C7C78007F
S11302E07C7C04047C780000387C44447C38000026
S11302F084FCF8A4243C1800183C24A4F8FC8400D2
S1130300447C78441C180000485C54547424000055
S113031000043E7F442400003C7C40403C7C400080
S11303201C3C60603C1C00003C7C6030607C3C00F9
S1130330446C3810386C44009CBCA0A0FC7C0000C9
S11303404C64745C4C64000008083E774141000032
S113035000000077770000004141773E0808000064
S1130360020301030203010011241FBECFEFD4E0F6
S1130370DEBFCDBF13E0A0E0B1E0EEE6F4E202C0E0
S113038005900D92A23AB107D9F723E0A2EAB3E0AF
S113039001C01D92A13FB207E1F70E9444020C94F0
S11303A035120C9400001F920F920FB60F92112475
S11303B08F93EF93FF93E0910601F0910701808101
S11303C08093C303FF91EF918F910F900FBE0F9015
S11303D01F9018958B98939AF89485B7886085BF79
S11303E085B78B7F85BF8BB780688BBF7894089562
S11303F0E0910601F091070180810895813039F080
S113040060F0823031F0833031F080E007C085E065
S113041005C086E003C087E001C084E0E0910601E6
S1130420F0910701808308952091A2033091A303E2
S1130430F901EE0FFF1FEC53FC4F90E09183808392
S11304402F5F3F4F263031052CF43093A3032093C4
S1130450A20304C01092A3031092A203E4ECF3E0FD
S11304604EEC53E020E030E081919191892B11F41E
S11304702F5F3F4FE417F507B9F72330310514F028
S113048080E0089584E00895CF93DF9300D000D0F6
S11304901F92CDB7DEB78FE190E00E94CE042FEF1C
S11304A08FEF9EE0215080409040E1F700C00000B3
S11304B00E94EA010E9405070E94800A0E94CA0B5A
S11304C080E090E00E94550C80E00E94E40287E105
S11304D092E09F938F930E94220F0E94F0050F9049
S11304E00F906894992492F8C12CD12C00E010E06C
S11304F033243394212C03C09B2C520173010E949A
S113050067052B013C01E614F70451F4332D222D29
S1130510A616B70611F430E020E0E32EF22E02C056
S1130520E32CF22C0E946207B62E9616F9F0862F61
S11305300E941402811103C00E9421050BC08FEF99
S1130540880D8230B8F023E0821681F089EF880D9F
S1130550833060F00E94550CB301A2010E9404088C
S1130560882E0E94E104C12CD12CC6CFC114D10421
S113057019F202C0C32CD22CEF2831F0B301A2012E
S1130580882D0E940408882E0F5F1F4F0333110526
S11305900CF4B2CF882D0E94E10400E010E0ACCF4F
S11305A01F920F920FB60F9211248F939F9381E0A5
S11305B090E09093A7038093A6039F918F910F904F
S11305C00FBE0F901F9018950E94850463E08BE284
S11305D00E946C04F89485B7826085BF85B78E7FCE
S11305E085BF8BB780648BBF789408958091A603F0
S11305F09091A703892B31F01092A7031092A603C0
S113060081E0089580E00895CF93DF93EC018CE2BC
S11306100E945A049E012E5F3F4F422F440F8423B1
S1130620482F50E0220F331F81E090E04217530718
S113063011F480E090E0DF91CF910895EF92FF9262
S11306400F931F93CF93DF93EC0111C02091A40368
S11306503091A5032F5F3F4F3093A5032093A4034C
S11306602330310524F01092A5031092A403809145
S1130670A4039091A5030E940403892B39F3888174
S11306809981282F2770F22EBC017695679576956F
S113069067957695679504EA13E0F8018081829561
S11306A0807F8F5C0E946C046F2D6295660F607E64
S11306B0F80180818295807F8E5C0E946C04EA80C0
S11306C0F80180818295807F6E2D8B5C0E946C0482
S11306D02396EE2081F0F12C6991F80180812F2D71
S11306E0F0E18F9F200D1124822F8A5C0E946C04FC
S11306F0F394FE10F1CF8091A4038F570E94A104BC
S1130700DF91CF911F910F91FF90EF9008950F9378
S11307101F93CF93DF93EB01182F1295107F81E67F
S1130720810F0E945A04082F82E6810F0E945A0406
S1130730202F30E0220F331F220F331F220F331FCD
S1130740829586958770280F311D3983288385E625
S1130750810F0E945A04982F9F709A83882359F01E
S11307601A592396082F010F812F0E945A04899346
S11307701F5F1013F9CFDF91CF911F910F9108954F
S1130780CF93DF93EC018CE20E945A04982F91706E
S113079098831982827090E09B838A83DF91CF9142
S11307A008950F931F93CF93DF93CDB7DEB7689768
S11307B00FB6F894DEBF0FBECDBF8C011A8219822A
S11307C0CE0101960E94C0038981882329F1BE01CC
S11307D06D5F7F4F80E090E00E94870340E061E01E
S11307E08CE20E94AC0440E061E08CE20E94AC0424
S11307F0CE0101960E94C0038A81811104C0109227
S1130800A7031092A6038BE0FE013396D801019052
S11308100D928A95E1F730C08A81882329F1BE01BF
S1130820625F7F4F81E090E00E94870340E062E0D6
S11308308CE20E94AC0440E062E08CE20E94AC04D2
S1130840CE0101960E94C0038981811104C01092D7
S1130850A7031092A6038BE0FE013E96D8010190F7
S11308600D928A95E1F708C08BE0FE013396D8011A
S113087001900D928A95E1F7C80168960FB6F89435
S1130880DEBF0FBECDBFDF91CF911F910F910895B1
S1130890C4980895C49A08950E94480480EC0E9464
S11308A01F0D0E944A0483EC99E00197F1F700C000
S11308B000000895CF93C82F0E94480483E00E944B
S11308C01F0D8C2F0E941F0D0E94230DC82F0E9404
S11308D04A048C2FCF910895CF93DF93D82FC62F3E
S11308E00E94480482E00E941F0D8D2F0E941F0D5C
S11308F08C2F0E941F0D0E944A04DF91CF9108950E
S1130900682F8FE00E946C040895CF93C82F0E9433
S1130910190D0E944C048EE00E945A04807E803897
S113092069F48C2F0E9480048EE00E945A04982F50
S1130930907E81E0C91303C080E001C081E0CF91C3
S11309400895CF93C82F0E9448048C2F0E941F0D36
S11309500E944A04CF9108951F93CF93DF93182FD9
S1130960D62FC42F0E94480485E00E941F0D812FBA
S11309700E941F0D8D2F0E941F0D8C2F0E941F0D92
S11309800E944A04DF91CF911F9108955D9BFECF91
S11309908CB908955F9BFECF8CB1089525B720686C
S11309A025BF20B7206220BF90BD89B988E18AB9EC
S11309B08EE880BD6AEC74E086EC94E00E94D70E69
S11309C00895FF920F931F93CF93DF93CDB7DEB7B4
S11309D060970FB6F894DEBF0FBECDBF182F0E94EC
S11309E0F20CF82E092F0E9462076D8385E292E0D3
S11309F00E94360F21E030E03F832E83F9860A8778
S1130A000E94130D8B870E940E0D8C871D878D818C
S1130A10811105C082E58E8786E0888702C085E063
S1130A208887CE0106960E941E0360960FB6F8943E
S1130A30DEBF0FBECDBFDF91CF911F910F91FF900D
S1130A400895CF93DF93CDB7DEB72B970FB6F89405
S1130A50DEBF0FBECDBF82E090E09A83898381E040
S1130A608C838B83CE0101960E941E032B960FB6B6
S1130A70F894DEBF0FBECDBFDF91CF910895CF9321
S1130A80DF93CDB7DEB72B970FB6F894DEBF0FBE5A
S1130A90CDBF23E030E03A832983873011F41C82F0
S1130AA007C0883019F481E08C8302C082E08C8313
S1130AB081E08B83CE0101960E941E032B960FB614
S1130AC0F894DEBF0FBECDBFDF91CF910895CF93D1
S1130AD0DF93CDB7DEB72B970FB6F894DEBF0FBE0A
S1130AE0CDBF0E94F6028823D9F0CE0101960E9460
S1130AF0D1038BE0FE013196A0EDB3E001900D929D
S1130B008A95E1F78091D30390E09093AB038093AF
S1130B10AA038091D40390E09093A9038093A8033F
S1130B206091A8037091A9038091AA039091AB03EB
S1130B302B960FB6F894DEBF0FBECDBFDF91CF91D9
S1130B400895EF92FF920F931F93CF93DF9300D0FA
S1130B5000D01F92CDB7DEB78091AC039091AD0366
S1130B60892B89F0CE0101967C0103E010E0C801D5
S1130B700E94390DF70181937F010F5F1F4F0830E9
S1130B801105A9F703C080E392E002C0CE010196EB
S1130B900F900F900F900F900F90DF91CF911F91B6
S1130BA00F91FF90EF9008950F931F93CF93DF93CE
S1130BB021E030E03093AD032093AC038C01C3E01B
S1130BC0D0E0F80161918F01CE010E94280D219699
S1130BD0C830D105B1F7DF91CF911F910F910895DE
S1130BE088E392E00E94D4050895FC01238130E05B
S1130BF020533109C901880F991F220F331F220F77
S1130C00331F220F331F280F391F848190E0C097B0
S1130C10820F931F08954F925F926F927F928F92EB
S1130C209F92AF92BF92CF92DF92EF92FF920F9377
S1130C301F93CF93DF938091B5039091B6030397ED
S1130C400CF0CCC0812C912C54018A940F2EFEE31D
S1130C50CF2EF2E0DF2EF02D0F2EFDE4EF2EF2E08A
S1130C60FF2EF02D0EE512E0CEEAD3E00E94F20C46
S1130C70892F90E0A0E0B0E08093BB039093BC0385
S1130C80A093BD03B093BE03AC01BD01440F551F37
S1130C90661F771F440F551F661F771F840F951F0C
S1130CA0A61FB71FAC01BD01440F551F661F771F58
S1130CB0440F551F661F771F2C013D01440E551E1E
S1130CC0661E771EC301B201A50194010E945B0D4B
S1130CD0BA01A9014F5B5F4F6F4F7F4F4093B7033A
S1130CE05093B8036093B9037093BA03E091B503CA
S1130CF0F091B603E255FC4F408380910801909136
S1130D000901A0910A01B0910B0184179507A60768
S1130D10B70761F10E94700ADF92CF920E94D9094D
S1130D2060E070E081E090E00E94450AFF92EF925B
S1130D300E94D90960E070E082E090E00E94450AD8
S1130D401F930F930E94D90960E070E083E090E064
S1130D500E94450ADF93CF930E94D9098DB79EB7AD
S1130D6008960FB6F8949EBF0FBE8DBF8091B7034F
S1130D709091B803A091B903B091BA03809308018C
S1130D8090930901A0930A01B0930B010E94130DE3
S1130D9031E020E0181619060CF030E0832F922F72
S1130DA0009789F02091B3033091B40328173907D1
S1130DB051F02091B5033091B6032F5F3F4F30932C
S1130DC0B6032093B5039093B4038093B303809147
S1130DD0B5039091B60303970CF448CF1092B60371
S1130DE01092B5038EEA93E0DF91CF911F910F919A
S1130DF0FF90EF90DF90CF90BF90AF909F908F9037
S1130E007F906F905F904F90089580E00E94FE0164
S1130E1082E48A95F1F700C00E94F8018093DB0315
S1130E2081E00E94FE0182E48A95F1F700C00E94ED
S1130E30F8018093DC030895CF93DF93CDB7DEB739
S1130E402A970FB6F894DEBF0FBECDBF4E835F83E3
S1130E50688779878E819F8128853985843C4FEF07
S1130E6094072CF08333910524F464E003C060E01C
S1130E7001C061E02E3C4FEF340724F023333105E9
S1130E801CF403C063E001C062E0009721F4211563
S1130E90310509F464E09A8389833C832B836530AC
S1130EA008F064E029813A814B815C8170E080E044
S1130EB090E02A960FB6F894DEBF0FBECDBFDF9147
S1130EC0CF9108950F931F93CF93DF93CDB7DEB7E0
S1130ED02A970FB6F894DEBF0FBECDBF80E00E9404
S1130EE0FE0181EE94E00197F1F700C000000E943A
S1130EF0F8012091DB032817A0F430E09927AC0116
S1130F00421B530B64E6649FC001659F900D11243E
S1130F106FEF70E0621B730B0E94470D162F072FB3
S1130F2015C0821788F4622F70E099279C01261B54
S1130F30370B44E6429FC001439F900D11240E9449
S1130F40470D162F072F02C010E000E081E00E9439
S1130F50FE0181EE94E00197F1F700C000000E94C9
S1130F60F8012091DC032817A0F430E09927AC01A4
S1130F70421B530B64E6649FC001659F900D1124CE
S1130F804FEF50E0BA01621B730B0E94470D862F8E
S1130F9014C0821780F430E09927AC01421B530B34
S1130FA064E6649FC001659F900D1124B9010E94FD
S1130FB0470D862F02C080E070E0412F682F502F2C
S1130FC08A850E941C072E833F83488759876A8736
S1130FD085E0FE013696DE01119601900D928A9508
S1130FE0E1F729813A814B815C816D8170E080E079
S1130FF090E02A960FB6F894DEBF0FBECDBFDF9106
S1131000CF911F910F910895AF92BF92DF92EF920B
S1131010FF920F931F93CF93DF9300D000D01F92C2
S1131020CDB7DEB7D82E7A018B0183E0D81609F448
S1131030A8C08D1540F0E1E0DE1689F0F2E0DF167D
S113104009F46DC00CC188E0D81609F4E9C0E9E0E0
S1131050DE1609F4F4C0F7E0DF1201C1D2C00E9429
S1131060700A8BE692E09F938F930E94D90960E007
S113107070E081E090E00E94450A0F2EFAE0AF2E66
S1131080B12CF02DC701B5010E94470D9C01EFEB77
S1131090F3E0C70164E670E00E94470D821B930BE6
S11310A0B5010E94470D605D6083205D2093C003FD
S11310B0FF93EF930E94D9090F900F900F900F9018
S11310C0101611060CF0C9C060E070E082E090E0F8
S11310D00E94450A88E792E09F938F930E94D90962
S11310E060E070E083E090E00E94450A0E94A10560
S11310F00E94F5050F900F908E159F050CF0ADC062
S11311000E940B062091BF03FC0123832091C0039E
S113111024830E94D4050E94210583E0A1C00E947B
S1131120700A82E892E09F938F930E94D90960E04D
S113113070E081E090E00E94450A0F2EFAE0EF2E65
S1131140F12CF02DC801B7010E94470D9C01EFEB73
S1131150F3E0C80164E670E00E94470D821B930B24
S1131160B7010E94470D605D6083205D2093C0033A
S1131170FF93EF930E94D9090F900F900F900F9057
S11311806CC00E94700A04E912E01F930F930E943E
S1131190D90960E070E081E090E00E94450A85EAA8
S11311A092E09F938F930E94D90960E070E082E0FF
S11311B090E00E94450A1F930F930E94D90960E0B2
S11311C070E084E090E00E94450A0E94A105DC01E1
S11311D0FE0131969E012A5F3F4F0F900F900F90B2
S11311E00F900F900F908D918193E217F307D9F729
S11311F0CE0101969F938F930E94D9090F900F906F
S11312002CC087E090E00E943F050E94700A82EBA8
S113121092E09F938F930E94D9090F900F901DC065
S113122088E090E00E943F050E94700A8FEB92E0F4
S11312309F938F930E94D9090F900F900EC089E05D
S113124090E00E943F050E94700A8EEC92E09F930A
S11312508F930E94D9090F900F908D2D01C08D2D71
S11312600F900F900F900F900F90DF91CF911F91DF
S11312700F91FF90EF90DF90BF90AF900895809111
S1131280DF039091E00380389105BCF0EFEDF3E0CB
S1131290808191818058910991838083EDEDF3E001
S11312A080819181019691838083808191810897C7
S11312B024F01092DE031092DD030895EF92FF9262
S11312C00F931F93CF93DF938052E82EF12CC70125
S11312D0880F991F880F991F880F991FC0E0D0E0CD
S11312E09C0120593F4F79010FED13E0F701EC0FFA
S11312F0FD1F85919491E0910C01F0910D01808383
S1131300F801808191810896918380830E943F092E
S11313102196C830D10551F780E090E0DF91CF915C
S11313201F910F91FF90EF900895EF92FF920F930A
S11313301F93CF93DF938052E82EF12CC701880FBF
S1131340991F880F991F880F991FC0E0D0E09C0156
S113135020593F4F79010FED13E0F701EC0FFD1F0A
S1131360859194918095E0910C01F0910D01808319
S1131370F801808191810896918380830E943F09BE
S11313802196C830D10549F780E090E0DF91CF91F4
S11313901F910F91FF90EF900895E0910E01F0914D
S11313A00F0190E29083E0910E01F0910F01808390
S11313B00895CF93DF93CDB7DEB7FE0135966191E3
S11313C07191AF018EE191E00E94630FDF91CF91A3
S11313D00895CF93DF93CDB7DEB7FE0135966191C3
S11313E07191AF0180E191E00E94630FDF91CF9191
S11313F00895CF93DF93EC018830910580F49093A6
S1131400DE038093DD0382E00E94CD09C055E091A4
S11314100E01F0910F01C08380E00E94CD09DF919D
S1131420CF910895CF93DF93EC018038910550F567
S11314309093E0038093DF0382E00E94CD09CE0104
S11314408F709078992324F40197806F9F6F019691
S1131450E0910E01F0910F018083CE01DD230CF4A5
S11314600F969595879595958795959587959595D7
S11314708795805FE0910E01F0910F01808380E0F9
S11314800E94CD09DF91CF910895CF93DF93EB01B3
S11314900E94F909CE010E94120ADF91CF910895AA
S11314A060E070E080E090E00E94450A0895CF93E8
S11314B0DF93EC0160E070E00E94450A20E830E030
S11314C0E0910C01F0910D01108221503109211598
S11314D03105B1F7CE010E94F909DF91CF9108954A
S11314E0CF93DF93C0E0D0E0CE010E94570A21964B
S11314F0C830D105C9F70E94500ADF91CF910895F1
S1131500E0910E01F0910F018EEA8083E0910E01CB
S1131510F0910F0181EA8083E0910E01F0910F01B7
S11315208AED8083E0910E01F0910F0182E18083C6
S1131530E0910E01F0910F0188EC8083E0910E019F
S1131540F0910F0188EA8083E0910E01F0910F0180
S11315508FE38083E0910E01F0910F0185ED80838C
S1131560E0910E01F0910F0180E88083E0910E017B
S1131570F0910F0181E88083E0910E01F0910F0159
S113158080E58083E0910E01F0910F0189ED808365
S1131590E0910E01F0910F0181E2808380E00E94CE
S11315A0CD09E0910E01F0910F018BED8083E09164
S11315B00E01F0910F0180E38083E0910E01F09120
S11315C00F018DEA8083E0910E01F0910F011082EA
S11315D0E0910E01F0910F0184EA8083E0910E0105
S11315E0F0910F0186EA8083E0910E01F0910F01E2
S11315F08FEA80830E94700A08950F931F93CF93FC
S1131600DF938C01EB0189E090E00E94B00DFC01B6
S113161011830083D483C3831086178216821582B4
S1131620DF91CF911F910F910895DC011596ED91F3
S1131630FC911697309779F00780F085E02D30976C
S113164069F021E030E02F5F3F4F0780F085E02D07
S11316503097C9F706C080E090E0089581E090E0FB
S11316600895822F932F0895A091E303B091E4038A
S11316701596ED91FC9116973097A9F080912C0165
S113168090912D01181619067CF480E090E00780F3
S1131690F085E02D019620912C0130912D018217C7
S11316A09307ACF301C0FD01F093E403E093E3037B
S11316B008950F931F93CF93DF93EC010E94700A58
S11316C004E912E01F930F930E94D90960E070E0CF
S11316D081E090E00E94450A89818F9388818F93ED
S11316E00E94D90960E070E082E090E00E94450A1F
S11316F01F930F930E94D90960E070E084E090E0AA
S11317000E94450ACE010E94150B9093E603809334
S1131710E5030D811E818091E5039091E6030F900E
S11317200F900F900F900F900F90181619066CF5EC
S1131730C0E0D0E060E070E0CE0104960E94450A6B
S113174080912C0190912D018C179D0751F4F80183
S113175081818F9380818F930E94E9090F900F906C
S113176009C0F80181818F9380818F930E94D909E8
S11317700F900F90F8010781108521968091E50361
S11317809091E603C817D907ACF2DF91CF911F916E
S11317900F9108952F923F924F925F926F927F9292
S11317A08F929F92AF92BF92CF92DF92EF92FF926D
S11317B00F931F93CF93DF9381E090E09093E20324
S11317C08093E10360E070E08BED92E00E94FD0AFB
S11317D0EC01BC0185EE92E00E94FD0A7C01BE0191
S11317E08FEE92E00E94FD0A4C01B7018AEF92E06D
S11317F00E94FD0A5C01B70188E093E00E94FD0AA3
S11318002C01BE0185E193E00E94FD0A8C01BC011C
S113181080E293E00E94FD0A6C01B80185E293E046
S11318200E94FD0A3C01B8018CE293E00E94FD0A8B
S11318301C01D093E403C093E303CE010E94150B73
S11318409093E6038093E503CE010E94590BFE8238
S1131850ED82F70190868782F40110870783F701F0
S1131860B682A582F50150864782F801D682C582E8
S1131870F60170866782F301308627828091E30344
S11318809091E403DF91CF911F910F91FF90EF901E
S1131890DF90CF90BF90AF909F908F907F906F908C
S11318A05F904F903F902F9008951F93CF93DF93B5
S11318B000D000D01F92CDB7DEB70E946207298303
S11318C03A834B835C836D83162F8091E30390915D
S11318D0E4030E94150B9093E6038093E503123012
S11318E051F480912C0190912D01019790932D0139
S11318F080932C010BC0133049F480912C019091FA
S11319002D01019690932D0180932C012091E503E4
S11319103091E60380912C0190912D0121503109E1
S1131920281739074CF48091E5039091E603019759
S113193090932D0180932C0180912C0190912D0185
S1131940992324F410922D0110922C01113001F5E9
S11319500E94340BE091E303F091E40380819181D0
S113196022E08A3F920751F122E08F3E920741F133
S113197023E08830920731F123E08032920721F18D
S113198023E08532920711F18C52934079F420C000
S113199011110CC0E091E303F091E403838194817D
S11319A0009721F09093E4038093E3038091E30391
S11319B09091E4030E94590B80E00BC081E009C0C0
S11319C083E007C082E005C087E003C088E001C06F
S11319D089E00F900F900F900F900F90DF91CF91AF
S11319E01F910895CF9382E00E94FE0181EE94E05E
S11319F00197F1F700C000000E94F801C82F83E0AE
S1131A000E94FE0181EE94E00197F1F700C000000E
S1131A100E94F801982F8C2FCF91089586B3869554
S1131A20817090E0089586B382FB882780F990E066
S1131A30089580EB87BB81E58DB9C49A08958FB969
S1131A40779BFECF08951FB8779BFECF8FB1089583
S1131A50811528E0920738F081E393E00E94360F65
S1131A6081E090E00895FC01F85E608380E090E0FE
S1131A700895811528E0920730F08BE693E00E94E8
S1131A80360F81E00895FC01F85E8081089597FB8C
S1131A90072E16F4009407D077FD09D00E947A0D22
S1131AA007FC05D03EF4909581959F4F089570955D
S1131AB061957F4F0895052E97FB1EF400940E94B4
S1131AC0720D57FD07D00E948E0D07FC03D04EF413
S1131AD00C94720D50954095309521953F4F4F4F82
S1131AE05F4F089590958095709561957F4F8F4FC6
S1131AF09F4F0895AA1BBB1B51E107C0AA1FBB1F20
S1131B00A617B70710F0A61BB70B881F991F5A9585
S1131B10A9F780959095BC01CD010895A1E21A2EF4
S1131B20AA1BBB1BFD010DC0AA1FBB1FEE1FFF1F7D
S1131B30A217B307E407F50720F0A21BB30BE40BCD
S1131B40F50B661F771F881F991F1A9469F7609514
S1131B507095809590959B01AC01BD01CF010895CE
S1131B60CF93DF938230910510F482E090E0E0910E
S1131B70E903F091EA0320E030E0A0E0B0E0309720
S1131B8039F14081518148175907B8F0481759076E
S1131B9071F482819381109729F013969C938E930C
S1131BA012972CC09093EA038093E90327C0211570
S1131BB0310531F04217530718F0A901DB0101C0C8
S1131BC0EF019A01BD01DF010280F381E02DD7CF3F
S1131BD021153105F9F0281B390B2430310580F427
S1131BE08A819B816115710521F0FB0193838283B6
S1131BF004C09093EA038093E903FE01329644C043
S1131C00FE01E20FF31F819391932250310939832E
S1131C1028833AC02091E7033091E803232B41F451
S1131C2020910201309103013093E8032093E703EC
S1131C3020910001309101012115310541F42DB7A6
S1131C403EB74091040150910501241B350BE091EE
S1131C50E703F091E803E217F307A0F42E1B3F0B10
S1131C602817390778F0AC014E5F5F4F241735070A
S1131C7048F04E0F5F1F5093E8034093E7038193AE
S1131C80919302C0E0E0F0E0CF01DF91CF9108959D
S1131C90CF93DF93009709F487C0FC013297138236
S1131CA01282C091E903D091EA03209781F4208144
S1131CB03181280F391F8091E7039091E80382173F
S1131CC0930779F5F093E803E093E7036DC0DE0131
S1131CD020E030E0AE17BF0750F412964D915C91AE
S1131CE013979D014115510509F1DA01F3CFB3832F
S1131CF0A28340815181840F951F8A179B0771F439
S1131D008D919C911197840F951F029691838083E6
S1131D1012968D919C91139793838283211531059B
S1131D2029F4F093EA03E093E9033EC0D901139642
S1131D30FC93EE9312974D915D91A40FB51FEA1792
S1131D40FB0779F480819181840F951F0296D90154
S1131D5011969C938E938281938113969C938E9378
S1131D601297E0E0F0E08A819B81009719F0FE0170
S1131D70EC01F9CFCE01029628813981820F931F9D
S1131D802091E7033091E8032817390769F4309765
S1131D9029F41092EA031092E90302C0138212821A
S1131DA0D093E803C093E703DF91CF9108950F9395
S1131DB01F93CF93DF93EC018B01009731F46115EE
S1131DC0710519F480E090E038C06EE070E081E0C5
S1131DD090E00E943511FC010097A1F380E8838311
S1131DE00115110571F01387028781E883838091BF
S1131DF0EB039091EC03892B21F4F093EC03E09333
S1131E00EB032097C9F0D187C087838182608383E5
S1131E108091ED039091EE03892B71F4F093EE031E
S1131E20E093ED038091EF039091F003892B21F46B
S1131E30F093F003E093EF03CF01DF91CF911F9173
S1131E400F910895A0E0B0E0E8E2FFE00C940E12D8
S1131E50FE01359661917191AF018091ED039091EE
S1131E60EE030E94630FE2E00C942A120F931F9377
S1131E70CF93DF93E091ED03F091EE03238121FFF3
S1131E801BC0EC0100E010E089916091ED037091BA
S1131E90EE03DB011896ED91FC911997882331F03C
S1131EA00995892B89F30FEF1FEFEECF8AE009958F
S1131EB0892B11F4C80102C08FEF9FEFDF91CF91FE
S1131EC01F910F910895ACE0B0E0E9E6FFE00C94B7
S1131ED0FE117C016B018A01FC0117821682838149
S1131EE081FFBDC1CE0101964C01F7019381F6013A
S1131EF093FD859193FF81916F01882309F4ABC110
S1131F00853239F493FD859193FF81916F01853278
S1131F1029F4B70190E00E946E11E7CF512C312CC7
S1131F2020E02032A0F48B3269F030F4803259F092
S1131F30833269F420612CC08D3239F0803339F456
S1131F40216026C02260246023C0286021C027FDB0
S1131F5027C030ED380F3A3078F426FF06C0FAE097
S1131F605F9E300D1124532E13C08AE0389E300D2D
S1131F701124332E20620CC08E3221F426FD6BC155
S1131F80206406C08C3611F4206802C0883641F4FF
S1131F90F60193FD859193FF81916F018111C1CF6A
S1131FA0982F9F7D9554933028F40C5F1F4FFFE3C7
S1131FB0F9830DC0833631F0833771F0833509F02E
S1131FC05BC022C0F801808189830E5F1F4F4424C7
S1131FD04394512C540115C03801F2E06F0E711C6A
S1131FE0F801A080B18026FF03C0652D70E002C017
S1131FF06FEF7FEFC5012C870E9463112C018301D1
S11320002C852F77222E17C03801F2E06F0E711C39
S1132010F801A080B18026FF03C0652D70E002C0E6
S11320206FEF7FEFC5012C870E9451112C012C8585
S11320302068222E830123FC1BC0832D90E04816C8
S11320405906B0F4B70180E290E00E946E113A9410
S1132050F4CFF50127FC859127FE81915F01B7013B
S113206090E00E946E1131103A94F1E04F1A510839
S11320704114510471F7E5C0843611F0893639F5FD
S1132080F80127FF07C060817181828193810C5F11
S11320901F4F08C060817181882777FD8095982F34
S11320A00E5F1F4F2F76B22E97FF09C09095809533
S11320B0709561957F4F8F4F9F4F2068B22E2AE015
S11320C030E0A4010E94A011A82EA81844C08537AE
S11320D029F42F7EB22E2AE030E025C0F22FF97FBA
S11320E0BF2E8F36C1F018F4883579F0B4C080372C
S11320F019F0883721F0AFC02F2F2061B22EB4FE23
S11321000DC08B2D8460B82E09C024FF0AC09F2FF8
S11321109660B92E06C028E030E005C020E130E02A
S113212002C020E132E0F801B7FE07C0608171818E
S1132130828193810C5F1F4F06C06081718180E0B2
S113214090E00E5F1F4FA4010E94A011A82EA818B2
S1132150FB2DFF77BF2EB6FE0BC02B2D2E7FA514B3
S113216050F4B4FE0AC0B2FC08C02B2D2E7E05C06C
S11321707A2C2B2D03C07A2C01C0752C24FF0DC0A2
S1132180FE01EA0DF11D8081803311F4297E09C01E
S113219022FF06C07394739404C0822F867809F0DA
S11321A0739423FD13C020FF06C05A2C731418F433
S11321B0530C5718732C731468F4B70180E290E041
S11321C02C870E946E1173942C85F5CF731410F430
S11321D0371801C0312C24FF12C0B70180E390E00E
S11321E02C870E946E112C8522FF17C021FF03C08B
S11321F088E590E002C088E790E0B7010CC0822F28
S1132200867859F021FD02C080E201C08BE227FDEF
S11322108DE2B70190E00E946E11A51438F4B70165
S113222080E390E00E946E115A94F7CFAA94F401CF
S1132230EA0DF11D8081B70190E00E946E11A1109A
S1132240F5CF332009F451CEB70180E290E00E942B
S11322506E113A94F6CFF7018681978102C08FEF11
S11322609FEF2C96E2E10C941A120F931F93CF93D5
S1132270DF93869F8001879F100D969F100D112478
S1132280C8010E94B00DEC01009729F0A80160E09C
S113229070E00E945C11CE01DF91CF911F910F91EC
S11322A00895FC010590615070400110D8F78095A5
S11322B090958E0F9F1F0895DC0101C06D934150CE
S11322C05040E0F70895FC01615070400190011006
S11322D0D8F7809590958E0F9F1F08950F931F93A5
S11322E0CF93DF93182F092FEB018B8181FD03C05E
S11322F08FEF9FEF20C082FF10C04E815F812C8141
S11323003D81421753077CF4E881F9819F012F5FD7
S11323103F4F39832883108306C0E885F985812FD0
S11323200995892B29F72E813F812F5F3F4F3F83EA
S11323302E83812F902FDF91CF911F910F910895BC
S1132340FA01AA27283051F1203181F1E8946F93E2
S11323506E7F6E5F7F4F8F4F9F4FAF4FB1E03ED088
S1132360B4E03CD0670F781F891F9A1FA11D680F26
S1132370791F8A1F911DA11D6A0F711D811D911D59
S1132380A11D20D009F468943F912AE0269F1124CE
S11323903019305D3193DEF6CF010895462F477032
S11323A0405D4193B3E00FD0C9F7F6CF462F4F708D
S11323B0405D4A3318F0495D31FD4052419302D0EB
S11323C0A9F7EACFB4E0A695979587957795679591
S11323D0BA95C9F700976105710508959B01AC0191
S11323E00A2E06945795479537952795BA95C9F7B8
S11323F0620F731F841F951FA01D08952F923F9293
S11324004F925F926F927F928F929F92AF92BF9200
S1132410CF92DF92EF92FF920F931F93CF93DF93AC
S1132420CDB7DEB7CA1BDB0B0FB6F894DEBF0FBE09
S1132430CDBF09942A88398848885F846E847D8456
S11324408C849B84AA84B984C884DF80EE80FD8058
S11324500C811B81AA81B981CE0FD11D0FB6F894CE
S1112460DEBF0FBECDBFED010895F894FFCF8F
S113246E0000F103200000146400000000120010AC
S113247E00000002000000009509000000000000AA
S113248E0002000000005E09000000000200537408
S113249E617274696E67205352414D207465737472
S11324AE2E2E2E0D00577269746520706861736547
S11324BE206572726F723A206578745F72616D5B1B
S11324CE2534645D203D2025303258202873686FF2
S11324DE756C642062652025303258290D0A00522D
S11324EE657472696576616C2070686173652065C8
S11324FE72726F723A206578745F72616D5B253407
S113250E645D203D2025303258202873686F756C29
S113251E642062652025303258290D0A0053524139
S113252E4D207465737420636F6D706C657465648F
S113253E2077697468200A253464206572726F727C
S113254E7320696E20777269746520706861736593
S113255E20616E64200A253464206572726F727372
S113256E20696E2072657472696576616C2070687C
S113257E6173650D0A0A004E455720535441525457
S113258E212121210053454E4420494E464F0D0032
S113259E4E4F53434F5245003132333030004E6567
S11325AE77206869676873636F7265210053656C81
S11325BE65637420796F7572206E616D650077693D
S11325CE746820736C696465723A00596F75722071
S11325DE73636F7265203A0047414D45204F56454F
S11325EE52004F70706F6E656E74732073636F72EA
S11325FE65203A002D2D2D2D2D2D2D2D2D2D2D2DEE
S113260E2D2D2D2D004849474853434F5245533ADB
S113261E2000454153592049542049532121004D4E
S113262E656469756D204954204953212100486120
S113263E72642049542049532121004D61696E2052
S113264E4D656E7500506C61792047616D6500486B
S113265E69676873636F7265730053696E67656C3F
S113266E20506C61796572004D756C746920506CE4
S113267E6179657200446966666963756C74790084
S113268E45617379004D656469756D0048617264C6
S113269E005352414D206572726F722C2074727900
S11326AE696E6720746F20777269746520746F2069
S11326BE616E206164647265737320746861742042
S11326CE697320746F6F20626967005352414D2005
S11326DE6572726F722C20747279696E6720746FD2
S11326EE207265616420616E206164647265737327
S11326FE207468617420697320746F6F2062696737
S105270E0000C5
S9030000FC
