:100000000C94B4010C94E7020C94D3010C94D1012C
:100010000C94D1010C94D1010C94D1010C94D10118
:100020000C94D1010C94D1010C94D1010C94D10108
:100030000C94D1010C94D1010C94D1010C94D101F8
:100040000C94D1010C94D1010C94D1010C94D101E8
:100050000C94D1010C94D1010C94D1010C94D101D8
:100060000C94D1010C94D1010C94D1010C94D101C8
:10007000000000000000000000065F5F06000000B6
:100080000007070007070000147F7F147F7F14001C
:10009000242E6B6B3A120000466630180C66620024
:1000A000307A4F5D377A48000407030000000000F3
:1000B000001C3E63410000000041633E1C00000044
:1000C000082A3E1C1C3E2A0808083E3E080800007C
:1000D00000A0E06000000000080808080808000010
:1000E00000006060000000006030180C0603010092
:1000F0003E7F594D7F3E000042427F7F40400000DE
:10010000627359496F660000226349497F360000D7
:10011000181C16137F7F1000276745457D390000A6
:100120003C7E4B4979300000036371190F070000D2
:10013000367F49497F360000064F49693F1E00005F
:1001400000006C6C0000000000A0EC6C00000000DF
:10015000081C366341000000141414141414000029
:10016000004163361C080000020351590F060000CD
:100170003E7F415D5D1F1E007C7E13137E7C000070
:10018000417F7F49497F36001C3E63414163220025
:10019000417F7F41637F1C00417F7F495D41630058
:1001A000417F7F491D0103001C3E63415173720072
:1001B0007F7F08087F7F000000417F7F41000000B3
:1001C000307040417F3F0100417F7F081C77630012
:1001D000417F7F41406070007F7F060C067F7F007B
:1001E0007F7F060C187F7F001C3E6341633E1C002E
:1001F000417F7F49090F06001E3F21717F5E00008D
:10020000417F7F19396F460026674D597B320000C8
:1002100003417F7F410300007F7F40407F7F0000DC
:100220001F3F60603F1F00007F7F3018307F7F00DE
:1002300063771C081C776300074F78784F0700002E
:100240006773594D47637100007F7F414100000093
:100250000103060C183060000041417F7F00000060
:10026000080C0603060C0800808080808080808057
:100270000000030704000000207454543C78400040
:10028000413F7F44447C3800387C44446C28000063
:10029000307848493F7F4000387C54545C18000057
:1002A000487E7F490302000098BCA4A4F87C0400A7
:1002B000417F7F08047C780000447D7D4000000081
:1002C00040C484FD7D000000417F7F10386C4400F5
:1002D00000417F7F400000007C7C0C180C7C780083
:1002E0007C7C04047C780000387C44447C3800002A
:1002F00084FCF8A4243C1800183C24A4F8FC8400D6
:10030000447C78441C180000485C54547424000059
:1003100000043E7F442400003C7C40403C7C400084
:100320001C3C60603C1C00003C7C6030607C3C00FD
:10033000446C3810386C44009CBCA0A0FC7C0000CD
:100340004C64745C4C64000008083E774141000036
:1003500000000077770000004141773E0808000068
:10036000020301030203010011241FBECFEFD4E0FA
:10037000DEBFCDBF13E0A0E0B1E0E0E8F3E202C0F1
:1003800005900D92A83BB107D9F724E0A8EBB3E0A4
:1003900001C01D92A830B207E1F70E944D020C94F3
:1003A000BE110C9400001F920F920FB60F921124F1
:1003B0008F93EF93FF93E0910601F0910701808105
:1003C0008093D203FF91EF918F910F900FBE0F900A
:1003D0001F9018958B98939AF89485B7886085BF7D
:1003E00085B78B7F85BF8BB780688BBF7894089566
:1003F000E0910601F0910701808108958130B1F00C
:1004000028F0823029F0833029F006C084E00FC044
:1004100086E00DC087E00BC08CE491E09F938F9342
:100420000E94AB0E0F900F9080E001C085E0E0913C
:100430000601F0910701808308952091B80330915F
:10044000B903F901EE0FFF1FED52FC4F90E09183CD
:1004500080832F5F3F4F2A3031052CF43093B9034E
:100460002093B80304C01092B9031092B803E3EDCF
:10047000F3E045EE53E020E030E081919191892B4B
:1004800011F42F5F3F4FE417F507B9F7233031051B
:1004900014F080E0089584E00895CF93DF9300D0B6
:1004A00000D01F92CDB7DEB78FE190E00E9401052A
:1004B0002FEF8FEF9EE0215080409040E1F700C089
:1004C00000000E94EA010E94AC050E94540A0E94AA
:1004D000740B80E090E00E94FF0B80E00E94FB0222
:1004E00087E492E09F938F930E94AB0E0F900F9042
:1004F0006894992492F800E010E0C12CD12C3324A8
:100500003394212C0E9472052B013C01E614F70460
:1005100051F4332D222DA616B70611F430E020E059
:10052000E32EF22E02C0E32CF22C0E940906B62E16
:1005300029833A834B835C836D83961601F1862F62
:100540000E941D0281110BC00E945405A5E5B2E076
:10055000BF93AF930E94AB0E0F900F9004C08FEF2C
:10056000880D823080F00E94FF0BB301A2010E942F
:10057000F107882E0E94140500E010E01EC001154E
:10058000110519F41AC0032D122DEF2851F0B301F3
:10059000A201882D0E94F107882E8FE592E00E942B
:1005A000BF0E8FEFC81AD80A95E1C916D1042CF0F6
:1005B000882D0E941405C12CD12CAFEFBFE21197FA
:1005C000F1F700C000009B2C520173019BCF1F92DA
:1005D0000F920FB60F9211248F939F9381E090E0BA
:1005E0009093BD038093BC039F918F910F900FBE9A
:1005F0000F901F9018950E949C0463E08BE20E946C
:100600008304F89485B7826085BF85B78E7F85BFE8
:100610008BB780648BBF789408958091BC039091D0
:10062000BD03892B31F01092BD031092BC0381E011
:10063000089580E00895CF93DF93EC018CE20E944F
:1006400071049E012E5F3F4F422F440F8423482F99
:1006500050E0220F331F81E090E04217530711F45E
:1006600080E090E0DF91CF910895EF92FF920F9399
:100670001F93CF93DF93EC0111C02091BA03309107
:10068000BB032F5F3F4F3093BB032093BA0323304C
:10069000310524F01092BB031092BA038091BA0383
:1006A0009091BB030E941B03892B39F388819981A8
:1006B000282F2770F22EBC01769567957695679561
:1006C000769567950AEB13E0F80180818295807F2B
:1006D0008F5C0E9483046F2D6295660F607EF80127
:1006E00080818295807F8E5C0E948304EA80F8017D
:1006F00080818295807F6E2D8B5C0E94830423967F
:10070000EE2081F0F12C6991F80180812F2DF0E12C
:100710008F9F200D1124822F8A5C0E948304F39402
:10072000FE10F1CF8091BA038F570E94D404DF915D
:10073000CF911F910F91FF90EF9008950F931F930A
:10074000CF93DF93EB01182F1295107F81E6810F75
:100750000E947104082F82E6810F0E947104202FED
:1007600030E0220F331F220F331F220F331F8295D9
:1007700086958770280F311D3983288385E6810F80
:100780000E947104982F9F709A83882359F01A59F8
:100790002396082F010F812F0E94710489931F5FF8
:1007A0001013F9CFDF91CF911F910F910895CF933F
:1007B000DF93EC018CE20E947104982F9170988372
:1007C0001982827090E09B838A83DF91CF91089594
:1007D0000F931F93CF93DF93CDB7DEB768970FB614
:1007E000F894DEBF0FBECDBF8C011A821982CE01F4
:1007F00001960E94D7038981882329F1BE016D5F8C
:100800007F4F80E090E00E949E0340E061E08CE238
:100810000E94DF0440E061E08CE20E94DF04CE0130
:1008200001960E94D7038A81811104C01092BD03F2
:100830001092BC038BE0FE013396D80101900D921B
:100840008A95E1F730C08A81882329F1BE01625F71
:100850007F4F81E090E00E949E0340E062E08CE2E6
:100860000E94DF0440E062E08CE20E94DF04CE01DF
:1008700001960E94D7038981811104C01092BD03A3
:100880001092BC038BE0FE013E96D80101900D92C0
:100890008A95E1F708C08BE0FE013396D8010190FC
:1008A0000D928A95E1F7C80168960FB6F894DEBFFD
:1008B0000FBECDBFDF91CF911F910F910895C498C6
:1008C0000895C49A08950E945F0480EC0E94C70CAA
:1008D0000E94610483EC99E00197F1F700C00000E9
:1008E0000895CF93C82F0E945F0483E00E94C70C35
:1008F0008C2F0E94C70C0E94CB0CC82F0E94610451
:100900008C2FCF910895CF93DF93D82FC62F0E94BD
:100910005F0482E00E94C70C8D2F0E94C70C8C2FB1
:100920000E94C70C0E946104DF91CF910895682F47
:100930008FE00E9483040895CF93C82F0E94C10CBA
:100940000E9463048EE00E947104807E803871F002
:100950001F928F938DE692E09F938F930E94AB0E30
:100960000F900F900F900F9081E01CC08C2F0E9471
:1009700097048EE00E947104807E8C1791F01F9284
:100980008F9387EB92E09F938F930E94AB0E8BEF38
:1009900092E00E94BF0E0F900F900F900F9081E099
:1009A00001C080E0CF910895CF93C82F0E945F04CB
:1009B0008C2F0E94C70C0E946104CF9108951F9351
:1009C000CF93DF93182FD62FC42F0E945F0485E0AA
:1009D0000E94C70C812F0E94C70C8D2F0E94C70C4C
:1009E0008C2F0E94C70C0E946104DF91CF911F9150
:1009F00008955D9BFECF8CB908955F9BFECF8CB1AF
:100A0000089525B7206825BF20B7206220BF90BD7C
:100A100089B988E18AB98EE880BD6DEF74E089EF0D
:100A200094E00E94600E0895FF920F931F93CF935E
:100A3000DF93CDB7DEB760970FB6F894DEBF0FBE79
:100A4000CDBF182F0E949A0CF82E092F0E9409067C
:100A50006D838EEF92E00E94BF0E21E030E03F8375
:100A60002E83F9860A870E94BB0C8B870E94B60CE6
:100A70008C871D878D81811105C082E58E8786E078
:100A8000888702C085E08887CE0106960E943503DC
:100A900060960FB6F894DEBF0FBECDBFDF91CF9149
:100AA0001F910F91FF900895CF93DF93CDB7DEB7DD
:100AB0002B970FB6F894DEBF0FBECDBF82E090E05B
:100AC0009A83898381E08C838B83CE0101960E9477
:100AD00035032B960FB6F894DEBF0FBECDBFDF9166
:100AE000CF910895CF93DF93CDB7DEB72B970FB695
:100AF000F894DEBF0FBECDBF0E940D038823D9F04E
:100B0000CE0101960E94E8038BE0FE013196A7EE2C
:100B1000B3E001900D928A95E1F78091EA0390E0AD
:100B20009093C1038093C0038091EB0390E0909376
:100B3000BF038093BE036091BE037091BF03809199
:100B4000C0039091C1032B960FB6F894DEBF0FBE81
:100B5000CDBFDF91CF91089580E00E94FE0182E435
:100B60008A95F1F700C00E94F8018093F20381E0BA
:100B70000E94FE0182E48A95F1F700C00E94F8010C
:100B80008093F3030895CF93DF93CDB7DEB72A9711
:100B90000FB6F894DEBF0FBECDBF4E835F8368876C
:100BA00079878E819F8128853985843C4FEF940712
:100BB0002CF08333910524F464E003C060E001C0AD
:100BC00061E02E3C4FEF340724F0233331051CF451
:100BD00003C063E001C062E0009721F421153105F4
:100BE00009F464E09A8389833C832B83653008F0A1
:100BF00064E029813A814B815C8170E080E090E083
:100C00002A960FB6F894DEBF0FBECDBFDF91CF910D
:100C100008950F931F93CF93DF93CDB7DEB72A9735
:100C20000FB6F894DEBF0FBECDBF80E00E94FE017C
:100C300081EE94E00197F1F700C000000E94F801F6
:100C40002091F2032817A0F430E09927AC01421B51
:100C5000530B64E6649FC001659F900D11246FEFF4
:100C600070E0621B730B0E94D00C162F072F15C06B
:100C7000821788F4622F70E099279C01261B370B9E
:100C800044E6429FC001439F900D11240E94D00C66
:100C9000162F072F02C010E000E081E00E94FE0145
:100CA00081EE94E00197F1F700C000000E94F80186
:100CB0002091F3032817A0F430E09927AC01421BE0
:100CC000530B64E6649FC001659F900D11244FEFA4
:100CD00050E0BA01621B730B0E94D00C862F14C027
:100CE000821780F430E09927AC01421B530B64E675
:100CF000649FC001659F900D1124B9010E94D00C22
:100D0000862F02C080E070E0412F682F502F8A8527
:100D10000E94C3052E833F83488759876A8785E0F1
:100D2000FE013696DE01119601900D928A95E1F74B
:100D300029813A814B815C816D8170E080E090E097
:100D40002A960FB6F894DEBF0FBECDBFDF91CF91CC
:100D50001F910F910895FC01238130E02053310948
:100D6000C901880F991F220F331F220F331F220F33
:100D7000331F280F391F848190E0C097820F931F83
:100D80000895843091052CF59C012F5F3F4FF901A8
:100D9000EE0FFF1FEE0FFF1FE20FF31FEF5EFE4F80
:100DA0004AE251E00BC0DF011597AC91A193E21725
:100DB000F307C9F72417350761F0F9019F012B5F8D
:100DC0003F4FF1CF21912D93019685309105D1F7B9
:100DD0000895E62FF72FDC01AA0FBB1FAA0FBB1F38
:100DE000A80FB91FAF5EBE4F80E090E0EBCFCF926F
:100DF000DF92EF92FF920F931F93CF93DF936C01DB
:100E00000E94AB067C01C1E1D1E000E010E0CE0120
:100E10000E94AB068E159F052CF4B601C8010E94F6
:100E2000C10606C00F5F1F4F25960530110579F7E3
:100E3000DF91CF911F910F91FF90EF90DF90CF90B6
:100E400008958F929F92AF92BF92CF92DF92EF92CE
:100E5000FF920F931F93CF93DF938091C4039091E0
:100E6000C50303970CF0A8C0C12CD12C7601CA94FD
:100E700009E013E0CCE0D1E00E949A0C892F90E0C9
:100E8000A0E0B0E08093CA039093CB03A093CC037F
:100E9000B093CD03AC01BD01440F551F661F771FF2
:100EA000440F551F661F771F840F951FA61FB71F7E
:100EB000AC01BD01440F551F661F771F440F551F1E
:100EC000661F771F4C015D01840E951EA61EB71E7E
:100ED000C501B401A70196010E94E40CDA01C90121
:100EE0008F5B9F4FAF4FBF4F8093C6039093C70355
:100EF000A093C803B093C903E091C403F091C50364
:100F0000E45FFE4F80834091080150910901609198
:100F10000A0170910B01481759076A077B07A1F076
:100F20000E94440A1F930F930E94AD0960E070E095
:100F300081E090E00E94190ADF93CF930E94AD09EF
:100F40000F900F900F900F908091C6039091C70360
:100F5000A091C803B091C90380930801909309013F
:100F6000A0930A01B0930B010E94BB0C31E020E07A
:100F7000181619060CF030E0832F922F009789F095
:100F80002091C2033091C3032817390751F02091F3
:100F9000C4033091C5032F5F3F4F3093C5032093A7
:100FA000C4039093C3038093C2038091C4039091C0
:100FB000C50303970CF460CF8CE091E00E94F70624
:100FC0008091C4039091C503DF91CF911F910F9140
:100FD000FF90EF90DF90CF90BF90AF909F908F9059
:100FE0000895AF92BF92CF92DF92EF92FF920F934C
:100FF0001F93CF93DF9300D000D000D0CDB7DEB7E2
:101000007A018B01823009F486C0833009F4BAC0BA
:10101000813009F0F7C00E94440A8BE193E09F936E
:101020008F930E94AD0960E070E081E090E00E9443
:10103000190A0F2EFAE0CF2ED12CF02DC701B601E0
:101040000E94D00C9C01EEECF3E0C70164E670E076
:101050000E94D00C821B930BB6010E94D00C605DE5
:101060006083205D2093CF03FF93EF930E94AD092F
:101070000F900F900F900F90101611060CF0BDC03E
:1010800060E070E082E090E00E94190A88E293E05C
:101090009F938F930E94AD0960E070E083E090E041
:1010A0000E94190A85E291E00E94AB060F900F9012
:1010B0008E159F050CF0A3C00EEC13E0F8018081A3
:1010C00080930F018091CF038093100182E393E01E
:1010D0009F938F930E94AD0960E070E084E090E000
:1010E0000E94190A1F930F930E94AD09FFE72AE19E
:1010F00086E0F15020408040E1F700C000000E94EF
:1011000021071092C5031092C4030F900F900F9007
:101110000F9083E077C00E94440A82E493E09F939B
:101120008F930E94AD0960E070E081E090E00E9442
:10113000190A86E492E08093D2030F2EFAE0EF2E94
:10114000F12CF02DC801B7010E94D00C9C01EEECEF
:10115000F3E0C80164E670E00E94D00C821B930BA0
:10116000B7010E94D00C605D6083205D2093CF03A7
:10117000FF93EF930E94AD090F900F900F900F9087
:1011800082E040C00E94440A84E593E09F938F93DD
:101190000E94AD090F2EF1E1AF2EF1E0BF2EF02D30
:1011A0000F900F90E12CF12CFE0131966F018E0112
:1011B0000A5F1F4FFFEFEF1AFF0A60E070E0C70100
:1011C0000E94190A19821A821B821C821E821D82A9
:1011D000F601D5018D918193E017F107D9F7DF92E0
:1011E000CF920E94AD0925E0A20EB11C0F900F9086
:1011F00085E0E816F104F1F604C081E003C081E067
:1012000001C083E026960FB6F894DEBF0FBECDBFB7
:10121000DF91CF911F910F91FF90EF90DF90CF90D2
:10122000BF90AF9008958091F6039091F7038038B6
:101230009105BCF0E6EFF3E080819181805891093F
:1012400091838083E4EFF3E0808191810196918323
:10125000808380819181089724F01092F503109289
:10126000F4030895EF92FF920F931F93CF93DF93B0
:101270008052E82EF12CC701880F991F880F991F03
:10128000880F991FC0E0D0E09C0120593F4F7901A1
:1012900006EF13E0F701EC0FFD1F85919491E091AB
:1012A0002A01F0912B018083F801808191810896B9
:1012B000918380830E9413092196C830D10551F78C
:1012C00080E090E0DF91CF911F910F91FF90EF9020
:1012D0000895EF92FF920F931F93CF93DF93805265
:1012E000E82EF12CC701880F991F880F991F880FCE
:1012F000991FC0E0D0E09C0120593F4F790106EFD3
:1013000013E0F701EC0FFD1F859194918095E0911A
:101310002A01F0912B018083F80180819181089648
:10132000918380830E9413092196C830D10549F723
:1013300080E090E0DF91CF911F910F91FF90EF90AF
:101340000895E0912C01F0912D0190E29083E091BD
:101350002C01F0912D0180830895CF93DF93CDB7B9
:10136000DEB7FE01359661917191AF018CE391E09A
:101370000E94EC0EDF91CF910895CF93DF93CDB70C
:10138000DEB7FE01359661917191AF018EE291E079
:101390000E94EC0EDF91CF910895CF93DF93EC0183
:1013A0008830910580F49093F5038093F40382E0F4
:1013B0000E94A109C055E0912C01F0912D01C0833C
:1013C00080E00E94A109DF91CF910895CF93DF9330
:1013D000EC018038910550F59093F7038093F60364
:1013E00082E00E94A109CE018F709078992324F4A5
:1013F0000197806F9F6F0196E0912C01F0912D0174
:101400008083CE01DD230CF40F96959587959595F5
:1014100087959595879595958795805FE0912C01A7
:10142000F0912D01808380E00E94A109DF91CF918E
:101430000895CF93DF93EB010E94CD09CE010E9466
:10144000E609DF91CF91089560E070E080E090E0E0
:101450000E94190A0895CF93DF93EC0160E070E0D9
:101460000E94190A20E830E0E0912A01F0912B0156
:1014700010822150310921153105B1F7CE010E94AA
:10148000CD09DF91CF910895CF93DF93C0E0D0E0F5
:10149000CE010E942B0A2196C830D105C9F70E94BF
:1014A000240ADF91CF910895E0912C01F0912D0154
:1014B0008EEA8083E0912C01F0912D0181EA8083F6
:1014C000E0912C01F0912D018AED8083E0912C01B7
:1014D000F0912D0182E18083E0912C01F0912D01AA
:1014E00088EC8083E0912C01F0912D0188EA8083C3
:1014F000E0912C01F0912D018FE38083E0912C018C
:10150000F0912D0185ED8083E0912C01F0912D016A
:1015100080E88083E0912C01F0912D0181E88083A7
:10152000E0912C01F0912D0180E58083E0912C0168
:10153000F0912D0189ED8083E0912C01F0912D0136
:1015400081E2808380E00E94A109E0912C01F0916A
:101550002D018BED8083E0912C01F0912D0180E332
:101560008083E0912C01F0912D018DEA8083E09140
:101570002C01F0912D011082E0912C01F0912D01B0
:1015800084EA8083E0912C01F0912D0186EA80832A
:10159000E0912C01F0912D018FEA80830E94440A92
:1015A00008950F931F93CF93DF938C01EB0189E094
:1015B00090E00E94390DFC0111830083D483C38322
:1015C0001086178216821582DF91CF911F910F919D
:1015D0000895DC011596ED91FC911697309779F0FE
:1015E0000780F085E02D309769F021E030E02F5F33
:1015F0003F4F0780F085E02D3097C9F706C080E0A7
:1016000090E0089581E090E00895822F932F08954F
:10161000E091FA03F091FB0385819681892BB9F063
:101620000580F681E02D80914A0190914B011816BA
:1016300019066CF480E090E00780F085E02D0196BB
:1016400020914A0130914B0182179307ACF3F0933C
:10165000FB03E093FA0308950F931F93CF93DF9357
:10166000EC010E94440ACE010E94E90A9093FD0316
:101670008093FC030D811E818091FC039091FD03FA
:101680001816190664F5C0E0D0E060E070E0CE0105
:101690000E94190A80914A0190914B018C179D0775
:1016A00051F4F80181818F9380818F930E94BD094D
:1016B0000F900F9009C0F80181818F9380818F93E3
:1016C0000E94AD090F900F90F801078110852196B7
:1016D0008091FC039091FD03C817D907B4F2DF9104
:1016E000CF911F910F9108952F923F924F925F9249
:1016F0006F927F928F929F92AF92BF92CF92DF9222
:10170000EF92FF920F931F93CF93DF9381E090E0CE
:101710009093F9038093F80360E070E081E693E032
:101720000E94D10AEC01BC018BE693E00E94D10A31
:101730007C01BE0185E793E00E94D10A4C01B7010C
:1017400080E893E00E94D10A5C01B7018EE893E043
:101750000E94D10A2C01BE018BE993E00E94D10ABC
:101760008C01BC0186EA93E00E94D10A6C01B801A9
:101770008BEA93E00E94D10A3C01B80182EB93E02E
:101780000E94D10A1C01D093FB03C093FA03CE013F
:101790000E94E90A9093FD038093FC03CE010E940E
:1017A0002C0BFE82ED82F70190868782F401108770
:1017B0000783F701B682A582F50150864782F801BA
:1017C000D682C582F60170866782F3013086278251
:1017D0008091FA039091FB03DF91CF911F910F91BC
:1017E000FF90EF90DF90CF90BF90AF909F908F9041
:1017F0007F906F905F904F903F902F9008951F9330
:10180000CF93DF9300D000D01F92CDB7DEB70E94F8
:10181000090629833A834B835C836D83162F80915D
:10182000FA039091FB030E94E90A9093FD038093D1
:10183000FC03123051F480914A0190914B010197C1
:1018400090934B0180934A010BC0133049F480916F
:101850004A0190914B01019690934B0180934A016C
:101860002091FC033091FD0380914A0190914B013E
:1018700021503109281739074CF48091FC039091CD
:10188000FD03019790934B0180934A0180914A0197
:1018900090914B01992324F410924B0110924A012C
:1018A000113011F50E94080BE091FA03F091FB034F
:1018B000808191818058934079F180819181855711
:1018C000934061F1808191818E58934049F18081EC
:1018D0009181865A9340C1F0808191818B5A9340C7
:1018E00099F08081918110C011110EC0E091FA032E
:1018F000F091FB0383819481892B31F08381948162
:101900009093FB038093FA038091FA039091FB0379
:101910000E942C0B80E005C081E003C083E001C081
:1019200082E00F900F900F900F900F90DF91CF916A
:101930001F910895CF9382E00E94FE0181EE94E012
:101940000197F1F700C000000E94F801C82F83E062
:101950000E94FE0181EE94E00197F1F700C00000C3
:101960000E94F801982F8C2FCF91089586B3869509
:10197000817090E0089586B382FB882780F990E01B
:10198000089580EB87BB81E58DB9C49A08958FB91E
:10199000779BFECF08951FB8779BFECF8FB1089538
:1019A00097FB072E16F4009407D077FD09D00E940C
:1019B000030D07FC05D03EF4909581959F4F089547
:1019C000709561957F4F0895052E97FB1EF4009446
:1019D0000E94FB0C57FD07D00E94170D07FC03D097
:1019E0004EF40C94FB0C50954095309521953F4F4B
:1019F0004F4F5F4F089590958095709561957F4FFB
:101A00008F4F9F4F0895AA1BBB1B51E107C0AA1F10
:101A1000BB1FA617B70710F0A61BB70B881F991F8F
:101A20005A95A9F780959095BC01CD010895A1E242
:101A30001A2EAA1BBB1BFD010DC0AA1FBB1FEE1F48
:101A4000FF1FA217B307E407F50720F0A21BB30B93
:101A5000E40BF50B661F771F881F991F1A9469F70F
:101A600060957095809590959B01AC01BD01CF016B
:101A70000895CF93DF938230910510F482E090E0D7
:101A8000E0910004F091010420E030E0A0E0B0E03B
:101A9000309739F14081518148175907B8F04817FC
:101AA000590771F482819381109729F013969C93C2
:101AB0008E9312972CC0909301048093000427C04A
:101AC0002115310531F04217530718F0A901DB0148
:101AD00001C0EF019A01BD01DF010280F381E02D19
:101AE000D7CF21153105F9F0281B390B24303105EA
:101AF00080F48A819B816115710521F0FB0193833C
:101B0000828304C09093010480930004FE01329606
:101B100044C0FE01E20FF31F8193919322503109DB
:101B2000398328833AC02091FE033091FF03232B91
:101B300041F420910201309103013093FF0320937F
:101B4000FE0320910001309101012115310541F47E
:101B50002DB73EB74091040150910501241B350B70
:101B6000E091FE03F091FF03E217F307A0F42E1BB0
:101B70003F0B2817390778F0AC014E5F5F4F2417F1
:101B8000350748F04E0F5F1F5093FF034093FE034D
:101B90008193919302C0E0E0F0E0CF01DF91CF911B
:101BA0000895CF93DF93009709F487C0FC01329723
:101BB00013821282C0910004D0910104209781F415
:101BC00020813181280F391F8091FE039091FF03FE
:101BD0008217930779F5F093FF03E093FE036DC03E
:101BE000DE0120E030E0AE17BF0750F412964D91B1
:101BF0005C9113979D014115510509F1DA01F3CF6D
:101C0000B383A28340815181840F951F8A179B075C
:101C100071F48D919C911197840F951F0296918379
:101C2000808312968D919C911397938382832115C3
:101C3000310529F4F0930104E09300043EC0D9017A
:101C40001396FC93EE9312974D915D91A40FB51FDF
:101C5000EA17FB0779F480819181840F951F029622
:101C6000D90111969C938E938281938113969C93B4
:101C70008E931297E0E0F0E08A819B81009719F043
:101C8000FE01EC01F9CFCE01029628813981820F45
:101C9000931F2091FE033091FF032817390769F441
:101CA000309729F4109201041092000402C01382AC
:101CB0001282D093FF03C093FE03DF91CF9108956A
:101CC0000F931F93CF93DF93EC018B01009731F4B7
:101CD0006115710519F480E090E038C06EE070E0A5
:101CE00081E090E00E94BE10FC010097A1F380E823
:101CF00083830115110571F01387028781E88383BF
:101D00008091020490910304892B21F4F093030441
:101D1000E09302042097C9F0D187C0878381826055
:101D200083838091040490910504892B71F4F093CE
:101D30000504E09304048091060490910704892B24
:101D400021F4F0930704E0930604CF01DF91CF91D3
:101D50001F910F910895A0E0B0E0E1EBFEE00C943C
:101D60009711FE01359661917191AF018091040444
:101D7000909105040E94EC0EE2E00C94B3110F93D5
:101D80001F93CF93DF93E0910404F0910504238126
:101D900021FF1BC0EC0100E010E089916091040478
:101DA00070910504DB011896ED91FC911997882339
:101DB00031F00995892B89F30FEF1FEFEECF8AE001
:101DC0000995892B11F4C80102C08FEF9FEFDF91B5
:101DD000CF911F910F910895ACE0B0E0E2EFFEE0EB
:101DE0000C9487117C016B018A01FC011782168219
:101DF000838181FFBDC1CE0101964C01F701938122
:101E0000F60193FD859193FF81916F01882309F479
:101E1000ABC1853239F493FD859193FF81916F01B8
:101E2000853229F4B70190E00E94F710E7CF512CDA
:101E3000312C20E02032A0F48B3269F030F4803273
:101E400059F0833269F420612CC08D3239F080332F
:101E500039F4216026C02260246023C0286021C09C
:101E600027FD27C030ED380F3A3078F426FF06C042
:101E7000FAE05F9E300D1124532E13C08AE0389E85
:101E8000300D1124332E20620CC08E3221F426FD39
:101E90006BC1206406C08C3611F4206802C08836FD
:101EA00041F4F60193FD859193FF81916F018111BA
:101EB000C1CF982F9F7D9554933028F40C5F1F4F0E
:101EC000FFE3F9830DC0833631F0833771F083353A
:101ED00009F05BC022C0F801808189830E5F1F4F2B
:101EE00044244394512C540115C03801F2E06F0E84
:101EF000711CF801A080B18026FF03C0652D70E041
:101F000002C06FEF7FEFC5012C870E94EC102C01FF
:101F100083012C852F77222E17C03801F2E06F0E37
:101F2000711CF801A080B18026FF03C0652D70E010
:101F300002C06FEF7FEFC5012C870E94DA102C01E1
:101F40002C852068222E830123FC1BC0832D90E06A
:101F500048165906B0F4B70180E290E00E94F710ED
:101F60003A94F4CFF50127FC859127FE81915F011A
:101F7000B70190E00E94F71031103A94F1E04F1A47
:101F800051084114510471F7E5C0843611F08936C7
:101F900039F5F80127FF07C0608171818281938143
:101FA0000C5F1F4F08C060817181882777FD809585
:101FB000982F0E5F1F4F2F76B22E97FF09C0909576
:101FC0008095709561957F4F8F4F9F4F2068B22EFF
:101FD0002AE030E0A4010E942911A82EA81844C0CC
:101FE000853729F42F7EB22E2AE030E025C0F22F6B
:101FF000F97FBF2E8F36C1F018F4883579F0B4C060
:10200000803719F0883721F0AFC02F2F2061B22E12
:10201000B4FE0DC08B2D8460B82E09C024FF0AC009
:102020009F2F9660B92E06C028E030E005C020E161
:1020300030E002C020E132E0F801B7FE07C0608165
:102040007181828193810C5F1F4F06C06081718115
:1020500080E090E00E5F1F4FA4010E942911A82E7E
:10206000A818FB2DFF77BF2EB6FE0BC02B2D2E7FA1
:10207000A51450F4B4FE0AC0B2FC08C02B2D2E7E6D
:1020800005C07A2C2B2D03C07A2C01C0752C24FF9F
:102090000DC0FE01EA0DF11D8081803311F4297E0F
:1020A00009C022FF06C07394739404C0822F8678FF
:1020B00009F0739423FD13C020FF06C05A2C73143B
:1020C00018F4530C5718732C731468F4B70180E29A
:1020D00090E02C870E94F71073942C85F5CF731431
:1020E00010F4371801C0312C24FF12C0B70180E36F
:1020F00090E02C870E94F7102C8522FF17C021FF4B
:1021000003C088E590E002C088E790E0B7010CC00A
:10211000822F867859F021FD02C080E201C08BE257
:1021200027FD8DE2B70190E00E94F710A51438F466
:10213000B70180E390E00E94F7105A94F7CFAA9479
:10214000F401EA0DF11D8081B70190E00E94F710C3
:10215000A110F5CF332009F451CEB70180E290E011
:102160000E94F7103A94F6CFF7018681978102C05A
:102170008FEF9FEF2C96E2E10C94A3110F931F9326
:10218000CF93DF93869F8001879F100D969F100D40
:102190001124C8010E94390DEC01009729F0A80113
:1021A00060E070E00E94E510CE01DF91CF911F91B9
:1021B0000F910895FC010590615070400110D8F70F
:1021C000809590958E0F9F1F0895DC0101C06D933F
:1021D00041505040E0F70895FC016150704001907B
:1021E0000110D8F7809590958E0F9F1F08950F933B
:1021F0001F93CF93DF93182F092FEB018B8181FD64
:1022000003C08FEF9FEF20C082FF10C04E815F811F
:102210002C813D81421753077CF4E881F9819F01AD
:102220002F5F3F4F39832883108306C0E885F985E7
:10223000812F0995892B29F72E813F812F5F3F4FF1
:102240003F832E83812F902FDF91CF911F910F918C
:102250000895FA01AA27283051F1203181F1E8943C
:102260006F936E7F6E5F7F4F8F4F9F4FAF4FB1E089
:102270003ED0B4E03CD0670F781F891F9A1FA11D84
:10228000680F791F8A1F911DA11D6A0F711D811D85
:10229000911DA11D20D009F468943F912AE0269F4A
:1022A00011243019305D3193DEF6CF010895462FA9
:1022B0004770405D4193B3E00FD0C9F7F6CF462F8A
:1022C0004F70405D4A3318F0495D31FD40524193F3
:1022D00002D0A9F7EACFB4E0A695979587957795B0
:1022E0006795BA95C9F700976105710508959B0137
:1022F000AC010A2E06945795479537952795BA95C0
:10230000C9F7620F731F841F951FA01D08952F9298
:102310003F924F925F926F927F928F929F92AF9275
:10232000BF92CF92DF92EF92FF920F931F93CF93C2
:10233000DF93CDB7DEB7CA1BDB0B0FB6F894DEBF59
:102340000FBECDBF09942A88398848885F846E847F
:102350007D848C849B84AA84B984C884DF80EE80C9
:10236000FD800C811B81AA81B981CE0FD11D0FB6D2
:10237000F894DEBF0FBECDBFED010895F894FFCFF6
:1023800000000804200000146400000041414130B6
:10239000306161613030626262303063636330307B
:1023A00063636330306363633030001200100000F9
:1023B00000020000000069090000000000000002A7
:1023C0000000000032090000000002004E6F74207F
:1023D00076616C6964206368616E6E656C0053742D
:1023E000617274696E67205352414D207465737435
:1023F0002E2E2E0D0057726974652070686173650A
:10240000206572726F723A206578745F72616D5BDD
:102410002534645D203D2025303258202873686FB4
:10242000756C642062652025303258290D0A0052EF
:10243000657472696576616C20706861736520658A
:1024400072726F723A206578745F72616D5B2534C9
:10245000645D203D2025303258202873686F756CEC
:10246000642062652025303258290D0A00535241FC
:102470004D207465737420636F6D706C6574656452
:102480002077697468200A253464206572726F723F
:102490007320696E20777269746520706861736556
:1024A00020616E64200A253464206572726F727335
:1024B00020696E2072657472696576616C2070683F
:1024C0006173650D0A0A004E45572053544152541A
:1024D000212121210053564152542121212100550F
:1024E00050444154452053434F52450D004D4350F5
:1024F00032353135206973204E4F5420696E2043A8
:102500006F6E66696775726174696F6E206D6F6456
:102510006520616674657220726573657421204957
:10252000747320636F6E66696720626974732061DB
:1025300072652025780A004D4350323531352069C7
:1025400073204E4F5420696E20636F7272656374FE
:10255000206D6F64652061667465722072657365B5
:1025600074212049747320636F6E66696720626905
:102570007473206172652025780A000A2100534592
:102580004E4420494E464F0D0053656C65637420E0
:10259000796F7572206E616D653A00596F757220A2
:1025A00073636F7265203A0047414D45204F564591
:1025B00052004E4557204849474853434F52452102
:1025C00021004F70706F6E656E74732073636F724D
:1025D00065203A004849474853434F5245533A20F3
:1025E000004D61696E204D656E7500506C617920FB
:1025F00047616D65004869676873636F7265730052
:1026000053696E67656C20506C61796572004D7519
:102610006C746920506C6179657200446966666902
:1026200063756C74790045617379004D65646975F3
:082630006D00486172640000B6
:00000001FF
