:100000000C94B4010C945D030C94D3010C94D101B5
:100010000C94D1010C94D1010C94D1010C94D10118
:100020000C94D1010C94D1010C94D1010C94D10108
:100030000C94D1010C94D1010C94D1010C94D101F8
:100040000C94D1010C94D1010C94D1010C94D101E8
:100050000C94D1010C94D1010C94D1010C94D101D8
:100060000C94D1010C94D1010C94D1010C94D101C8
:10007000000000000000000000065F5F06000000B6
:100080000007070007070000147F7F147F7F14001C
:10009000242E6B6B3A120000466630180C66620024
:1000A000307A4F5D377A48000407030000000000F3
:1000B000001C3E63410000000041633E1C00000044
:1000C000082A3E1C1C3E2A0808083E3E080800007C
:1000D00000A0E06000000000080808080808000010
:1000E00000006060000000006030180C0603010092
:1000F0003E7F594D7F3E000042427F7F40400000DE
:10010000627359496F660000226349497F360000D7
:10011000181C16137F7F1000276745457D390000A6
:100120003C7E4B4979300000036371190F070000D2
:10013000367F49497F360000064F49693F1E00005F
:1001400000006C6C0000000000A0EC6C00000000DF
:10015000081C366341000000141414141414000029
:10016000004163361C080000020351590F060000CD
:100170003E7F415D5D1F1E007C7E13137E7C000070
:10018000417F7F49497F36001C3E63414163220025
:10019000417F7F41637F1C00417F7F495D41630058
:1001A000417F7F491D0103001C3E63415173720072
:1001B0007F7F08087F7F000000417F7F41000000B3
:1001C000307040417F3F0100417F7F081C77630012
:1001D000417F7F41406070007F7F060C067F7F007B
:1001E0007F7F060C187F7F001C3E6341633E1C002E
:1001F000417F7F49090F06001E3F21717F5E00008D
:10020000417F7F19396F460026674D597B320000C8
:1002100003417F7F410300007F7F40407F7F0000DC
:100220001F3F60603F1F00007F7F3018307F7F00DE
:1002300063771C081C776300074F78784F0700002E
:100240006773594D47637100007F7F414100000093
:100250000103060C183060000041417F7F00000060
:10026000080C0603060C0800808080808080808057
:100270000000030704000000207454543C78400040
:10028000413F7F44447C3800387C44446C28000063
:10029000307848493F7F4000387C54545C18000057
:1002A000487E7F490302000098BCA4A4F87C0400A7
:1002B000417F7F08047C780000447D7D4000000081
:1002C00040C484FD7D000000417F7F10386C4400F5
:1002D00000417F7F400000007C7C0C180C7C780083
:1002E0007C7C04047C780000387C44447C3800002A
:1002F00084FCF8A4243C1800183C24A4F8FC8400D6
:10030000447C78441C180000485C54547424000059
:1003100000043E7F442400003C7C40403C7C400084
:100320001C3C60603C1C00003C7C6030607C3C00FD
:10033000446C3810386C44009CBCA0A0FC7C0000CD
:100340004C64745C4C64000008083E774141000036
:1003500000000077770000004141773E0808000068
:10036000020301030203010011241FBECFEFD4E0FA
:10037000DEBFCDBF13E0A0E0B1E0E2E6FBE102C0EA
:1003800005900D92A033B107D9F723E0A0E3B3E0C5
:1003900001C01D92A934B207E1F70E94C2020C9479
:1003A000AF0D0C9400001F920F920FB60F92112404
:1003B0008F93EF93FF93E0910A01F0910B018081FD
:1003C00080933403FF91EF918F910F900FBE0F90A8
:1003D0001F9018958B98939AF89485B7886085BF7D
:1003E00085B78B7F85BF8BB780688BBF7894089566
:1003F000E0910A01F0910B01808108958130A9F00C
:1004000090F0823019F0833019F004C086E00EC0FD
:1004100087E00CC080E391E09F938F930E94940A41
:100420000F900F90089584E001C085E0E0910A01EB
:10043000F0910B01808308955D9BFECF8CB90895E8
:100440005F9BFECF8CB1089525B7206825BF20B7EC
:10045000206220BF90BD89B988E18AB98EE880BD4D
:1004600060E272E08CE192E00E94490A0895CF9226
:10047000DF92EF92FF920F931F93CF93DF9385B795
:10048000806885BF80B7806280BF82E491E00E946F
:10049000A80A0E94390A6C010E943E0AC0E0D0E01E
:1004A00000E010E00F2EF9E5EF2EF1E0FF2EF02D29
:1004B0000E94390AFE01F85E808320812817A9F086
:1004C00099279F938F931F922F93DF93CF93FF9240
:1004D000EF920E94940A0F5F1F4F8DB79EB7089648
:1004E0000FB6F8949EBF0FBE8DBF2196C11598E040
:1004F000D907F1F6C6010E943E0AC0E0D0E0E12C27
:10050000F12C0F2EF3E9CF2EF1E0DF2EF02D0E941B
:10051000390AFE01F85E20812817B1F099279F93D0
:100520008F931F922F93DF93CF93DF92CF920E94EE
:10053000940A8FEFE81AF80A8DB79EB708960FB69F
:10054000F8949EBF0FBE8DBF2196C11598E0D907C4
:10055000F1F6FF92EF921F930F9381ED91E09F933D
:100560008F930E94940A0F900F900F900F900F900E
:100570000F90DF91CF911F910F91FF90EF90DF903F
:10058000CF900895CF93DF93CDB7DEB760970FB6C6
:10059000F894DEBF0FBECDBF8FE190E00E94240231
:1005A0002FEF8FEF9EE0215080409040E1F700C098
:1005B00000000E94EA010E9437020E9486040E9405
:1005C000BE060E94BA0780E00E9471031F921F922C
:1005D0001F921F928BE292E09F938F930E94940A46
:1005E0000F900F900F900F900F900F90AA24A3944C
:1005F000B12C0F2EF8EC4F2E512C612C712CF02DBC
:100600006894992491F80F2EFEE3CF2EF2E0DF2EAE
:10061000F02D0E949D040E9421052C873D874E8766
:100620005F87688B0C851D85EE84FF84BA82A98262
:10063000C801AA2797FDA095BA2F9C01AD012C599E
:100640003F4F4F4F5F4FA8ECB0E00E947408A301EA
:1006500092010E9455082C83C701AA2797FDA095F7
:10066000BA2F9C01AD012C593F4F4F4F5F4FA8EC63
:10067000B0E00E947408A30192010E9455082D83E6
:100680009B82CE0101960E949D03FF92EF921F93E1
:100690000F93DF92CF920E94940A2FEF8FEF9EE08C
:1006A000215080409040E1F700C000000F900F9073
:1006B0000F900F900F900F90ACCF1F920F920FB62C
:1006C0000F9211248F939F9381E090E090933303D6
:1006D000809332039F918F910F900FBE0F901F90C8
:1006E00018950E94430463E08BE20E942A04F89468
:1006F00085B7826085BF85B78E7F85BF8BB78064E5
:100700008BBF78940895CF93DF93EC018CE20E9425
:1007100018049E012E5F3F4F422F440F8423482F21
:1007200050E0220F331F81E090E04217530711F48D
:1007300080E090E0DF91CF910895EF92FF920F93C8
:100740001F93CF93DF93EC0111C0209130033091C0
:1007500031032F5F3F4F3093310320933003233019
:10076000310524F010923103109230038091300350
:10077000909131030E948303892B39F388819981F9
:10078000282F2770F22EBC01769567957695679590
:100790007695679500E313E0F80180818295807F6C
:1007A0008F5C0E942A046F2D6295660F607EF801AF
:1007B00080818295807F8E5C0E942A04EA80F80105
:1007C00080818295807F6E2D8B5C0E942A04239607
:1007D000EE2081F0F12C6991F80180812F2DF0E15C
:1007E0008F9F200D1124822F8A5C0E942A04F3948B
:1007F000FE10F1CF809130038F570E947B04DF9170
:10080000CF911F910F91FF90EF900895C498089594
:10081000C49A08950E94060480EC0E9438080E9441
:10082000080483EC99E00197F1F700C000000895F7
:10083000CF93C82F0E94060483E00E9438088C2FB3
:100840000E9438080E943C08C82F0E9408048C2F80
:10085000CF910895CF93DF93D82FC62F0E9406041F
:1008600082E00E9438088D2F0E9438088C2F0E9449
:1008700038080E940804DF91CF910895682F8FE017
:100880000E942A040895CF93C82F0E9432080E9424
:100890000A048EE00E941804807E803871F01F9256
:1008A0008F9383E692E09F938F930E94940A0F9018
:1008B0000F900F900F9081E01CC08C2F0E943E047F
:1008C0008EE00E941804807E8C1791F01F928F9307
:1008D0008DEA92E09F938F930E94940A81EF92E0B9
:1008E0000E94A80A0F900F900F900F9081E001C016
:1008F00080E0CF910895CF93C82F0E9406048C2FDB
:100900000E9438080E940804CF91089580E00E9458
:10091000FE0182E48A95F1F700C00E94F8018093FD
:10092000350381E00E94FE0182E48A95F1F700C060
:100930000E94F8018093360308950F931F93CF937D
:10094000DF9300D000D01F92CDB7DEB780E00E94C9
:10095000FE0182E48A95F1F700C00E94F80120911F
:1009600035032817A0F430E09927AC01421B530B44
:1009700064E6649FC001659F900D11246FEF70E0E5
:10098000621B730B0E944108162F072F15C0821798
:1009900088F4622F70E099279C01261B370B44E6F0
:1009A000429FC001439F900D11240E944108162FC1
:1009B000072F02C010E000E081E00E94FE0182E407
:1009C0008A95F1F700C00E94F8014091360348175C
:1009D00098F450E09927FC01E41BF50B24E62E9FC8
:1009E000C0012F9F900D1124EFEFF0E0BF01641BB9
:1009F000750B0E94410813C0841778F450E09927C2
:100A00009C01241B350B64E6629FC001639F900D1F
:100A10001124BA010E94410802C060E070E0212F59
:100A2000302F462F572F6D8170E080E090E00F90BF
:100A30000F900F900F900F90DF91CF911F910F911A
:100A40000895CF93DF93CDB7DEB72A970FB6F8940A
:100A5000DEBF0FBECDBF0E949D042E833F8348871B
:100A600059872E813F81488559852E3C8FEF380765
:100A700024F0233331051CF403C060E001C061E0C1
:100A80004E3C8FEF580724F0433351051CF403C04C
:100A900063E001C062E03A8329835C834B833A813F
:100AA0005C8170E080E090E02A960FB6F894DEBF9B
:100AB0000FBECDBFDF91CF91089580913903909102
:100AC0003A0380389105BCF0E9E3F3E0808191813D
:100AD0008058910991838083E7E3F3E080819181DD
:100AE00001969183808380819181089724F01092F0
:100AF0003803109237030895EF92FF920F931F93DC
:100B0000CF93DF93805220910C0130910D0112168A
:100B1000130684F5E82EF12CC701880F991F880F62
:100B2000991F880F991FC0E0D0E09C0120593F4FCA
:100B3000790109E313E0F701EC0FFD1F8591949112
:100B4000E0910E01F0910F018083F8012081318145
:100B500080910C0190910D01820F931F91838083EE
:100B60000E945D05219680910C0190910D01C8179E
:100B7000D9070CF380E090E0DF91CF911F910F91A6
:100B8000FF90EF900895EF92FF920F931F93CF93F2
:100B9000DF93805220910C0130910D011216130643
:100BA0008CF5E82EF12CC701880F991F880F991F2B
:100BB000880F991FC0E0D0E09C0120593F4F790178
:100BC00009E313E0F701EC0FFD1F859194918095E7
:100BD000E0910E01F0910F018083F80120813181B5
:100BE00080910C0190910D01820F931F918380835E
:100BF0000E945D05219680910C0190910D01C8170E
:100C0000D90704F380E090E0DF91CF911F910F911D
:100C1000FF90EF900895E0911001F091110190E2A2
:100C20009083E0911001F091110180830895CF939A
:100C3000DF93CDB7DEB7FE01359661917191AF01BB
:100C400080E291E00E94D50ADF91CF910895CF9381
:100C5000DF93CDB7DEB7FE01359661917191AF019B
:100C600082E191E00E94D50ADF91CF910895CF9360
:100C7000DF93EC018830910580F4909338038093E2
:100C8000370382E00E940B06C055E0911001F091FD
:100C90001101C08380E00E940B06DF91CF9108957F
:100CA000CF93DF93EC018038910550F590933A0390
:100CB0008093390382E00E940B06CE018F709078FA
:100CC000992324F40197806F9F6F0196E0911001A2
:100CD000F09111018083CE01DD230CF40F969595E0
:100CE0008795959587959595879595958795805F37
:100CF000E0911001F0911101808380E00E940B06C9
:100D0000DF91CF910895CF93DF93EB010E943706D7
:100D1000CE010E945006DF91CF91089560E070E00F
:100D200080E090E00E9483060895CF93DF93EC016A
:100D300060E070E00E94830620E830E0E0910E0160
:100D4000F0910F0110822150310921153105B1F7C1
:100D5000CE010E943706DF91CF910895CF93DF93A4
:100D6000C0E0D0E0CE010E9495062196C830D105A2
:100D7000C9F70E948E06DF91CF910895E09110018E
:100D8000F09111018EEA8083E0911001F091110140
:100D900081EA8083E0911001F09111018AED808356
:100DA000E0911001F091110182E18083E091100146
:100DB000F091110188EC8083E0911001F091110114
:100DC00088EA8083E0911001F09111018FE3808324
:100DD000E0911001F091110185ED8083E091100107
:100DE000F091110180E88083E0911001F0911101F0
:100DF00081E88083E0911001F091110180E580830A
:100E0000E0911001F091110189ED8083E0911001D2
:100E1000F091110181E2808380E00E940B06E09155
:100E20001001F09111018BED8083E0911001F091A0
:100E3000110180E38083E0911001F09111018DEAAE
:100E40008083E0911001F09111011082E091100176
:100E5000F091110184EA8083E0911001F091110179
:100E600086EA8083E0911001F09111018FEA80837E
:100E70000E94AE0608950F931F93CF93DF938C01CA
:100E8000EB0189E090E00E94C408FC01118300831B
:100E9000D483C3831086178216821582DF91CF9187
:100EA0001F910F910895DC011596ED91FC91169715
:100EB000309779F00780F085E02D309769F021E0D8
:100EC00030E02F5F3F4F0780F085E02D3097C9F766
:100ED00006C080E090E0089581E090E00895822FC0
:100EE000932F08950F931F93CF93DF93EC010E94EC
:100EF000AE06CE010E94530790933E0380933D03BC
:100F00000D811E8180913D0390913E0318161906B4
:100F100064F5C0E0D0E060E070E0CE010E9483069E
:100F200080912E0190912F018C179D0751F4F801AB
:100F300081818F9380818F930E9427060F900F905D
:100F400009C0F80181818F9380818F930E941706D9
:100F50000F900F90F80107811085219680913D0335
:100F600090913E03C817D907B4F2DF91CF911F913A
:100F70000F9108954F925F926F927F928F929F92FE
:100F8000AF92BF92CF92DF92EF92FF920F931F9397
:100F9000CF93DF9360E070E084EF92E00E943B0724
:100FA000EC01BC018EEF92E00E943B077C01BE0188
:100FB00088E093E00E943B078C01BE0183E193E04F
:100FC0000E943B074C01BC0188E193E00E943B0773
:100FD0006C01BC018EE193E00E943B072C01B7013C
:100FE00084E293E00E943B075C01B8018AE293E04F
:100FF0000E943B073C01D0933C03C0933B03CE01CE
:101000000E94530790933E0380933D03CE010E94BC
:101010007207FE82ED82F70110870783F801908640
:101020008782F401D682C582F701B682A582F801D3
:1010300076826582F6015682458280913B039091CB
:101040003C03DF91CF911F910F91FF90EF90DF90C4
:10105000CF90BF90AF909F908F907F906F905F9058
:101060004F90089580EB87BB81E58DB9C49A0895B0
:101070008FB9779BFECF08951FB8779BFECF8FB1B6
:10108000089597FB072E16F4009407D077FD09D03A
:101090000E947F0807FC05D03EF4909581959F4FF4
:1010A0000895709561957F4F0895052E97FB1EF466
:1010B00000940E946C0857FD07D00E94930807FC1B
:1010C00003D04EF40C946C085095409530952195C2
:1010D0003F4F4F4F5F4F0895909580957095619564
:1010E0007F4F8F4F9F4F08950E94B508A59F900D89
:1010F000B49F900DA49F800D911D11240895AA1BEB
:10110000BB1B51E107C0AA1FBB1FA617B70710F0F2
:10111000A61BB70B881F991F5A95A9F78095909524
:10112000BC01CD010895A1E21A2EAA1BBB1BFD0133
:101130000DC0AA1FBB1FEE1FFF1FA217B307E407B6
:10114000F50720F0A21BB30BE40BF50B661F771F0E
:10115000881F991F1A9469F76095709580959095EE
:101160009B01AC01BD01CF010895A29FB001B39FC7
:10117000C001A39F700D811D1124911DB29F700DA0
:10118000811D1124911D0895CF93DF938230910525
:1011900010F482E090E0E0914103F091420320E0FE
:1011A00030E0A0E0B0E0309739F14081518148173C
:1011B0005907B8F04817590771F482819381109745
:1011C00029F013969C938E9312972CC09093420310
:1011D0008093410327C02115310531F04217530791
:1011E00018F0A901DB0101C0EF019A01BD01DF0187
:1011F0000280F381E02DD7CF21153105F9F0281BAE
:10120000390B2430310580F48A819B816115710589
:1012100021F0FB019383828304C090934203809367
:101220004103FE01329644C0FE01E20FF31F819399
:10123000919322503109398328833AC020913F038A
:1012400030914003232B41F420910201309103019E
:101250003093400320933F0320910001309101011E
:101260002115310541F42DB73EB74091040150914D
:101270000501241B350BE0913F03F0914003E21779
:10128000F307A0F42E1B3F0B2817390778F0AC01A9
:101290004E5F5F4F2417350748F04E0F5F1F509386
:1012A000400340933F038193919302C0E0E0F0E05C
:1012B000CF01DF91CF910895CF93DF93009709F489
:1012C00087C0FC01329713821282C0914103D091F2
:1012D0004203209781F420813181280F391F8091AA
:1012E0003F03909140038217930779F5F0934003F1
:1012F000E0933F036DC0DE0120E030E0AE17BF0792
:1013000050F412964D915C9113979D014115510532
:1013100009F1DA01F3CFB383A28340815181840FB5
:10132000951F8A179B0771F48D919C911197840FDB
:10133000951F02969183808312968D919C911397AD
:10134000938382832115310529F4F0934203E093BE
:1013500041033EC0D9011396FC93EE9312974D9131
:101360005D91A40FB51FEA17FB0779F48081918185
:10137000840F951F0296D90111969C938E938281BA
:10138000938113969C938E931297E0E0F0E08A810C
:101390009B81009719F0FE01EC01F9CFCE01029676
:1013A00028813981820F931F20913F0330914003A0
:1013B0002817390769F4309729F4109242031092E4
:1013C000410302C013821282D0934003C0933F03B3
:1013D000DF91CF9108958F929F92AF92BF92CF925B
:1013E000DF92EF92FF92CF93DF93EC0168817981D6
:1013F0008A819B81611571058105910521F464E263
:1014000079ED8BE597E02DE133EF41E050E00E946C
:10141000550849015A019B01AC01A7EAB1E40E94B9
:1014200074086B017C01ACEEB4EFA50194010E943D
:10143000730DC60ED71EE81EF91EF7FE06C081E02A
:10144000C81AD108E10880E8F80AC882D982EA827D
:10145000FB82C6019F77DF91CF91FF90EF90DF90E5
:10146000CF90BF90AF909F908F9008950E94EB090E
:10147000089586E091E00E94EB090895A0E0B0E0B5
:101480008093060190930701A0930801B09309018E
:1014900008950F931F93CF93DF93EC018B01009777
:1014A00031F46115710519F480E090E038C06EE008
:1014B00070E081E090E00E94A70CFC010097A1F38E
:1014C00080E883830115110571F01387028781E895
:1014D00083838091430390914403892B21F4F093FB
:1014E0004403E09343032097C9F0D187C0878381E9
:1014F000826083838091450390914603892B71F428
:10150000F0934603E093450380914703909148038D
:10151000892B21F4F0934803E0934703CF01DF9137
:10152000CF911F910F910895A0E0B0E0EAE9FAE0B1
:101530000C94880DFE01359661917191AF018091F7
:101540004503909146030E94D50AE2E00C94A40D55
:101550000F931F93CF93DF93E0914503F0914603E0
:10156000238121FF1BC0EC0100E010E08991609114
:10157000450370914603DB011896ED91FC91199794
:10158000882331F00995892B89F30FEF1FEFEECFF8
:101590008AE00995892B11F4C80102C08FEF9FEFF3
:1015A000DF91CF911F910F910895ACE0B0E0EBED8A
:1015B000FAE00C94780D7C016B018A01FC01178222
:1015C0001682838181FFBDC1CE0101964C01F701D6
:1015D0009381F60193FD859193FF81916F0188239B
:1015E00009F4ABC1853239F493FD859193FF819164
:1015F0006F01853229F4B70190E00E94E00CE7CF3B
:10160000512C312C20E02032A0F48B3269F030F4E0
:10161000803259F0833269F420612CC08D3239F068
:10162000803339F4216026C02260246023C0286002
:1016300021C027FD27C030ED380F3A3078F426FF5F
:1016400006C0FAE05F9E300D1124532E13C08AE0CD
:10165000389E300D1124332E20620CC08E3221F4BE
:1016600026FD6BC1206406C08C3611F4206802C0D0
:10167000883641F4F60193FD859193FF81916F01C6
:101680008111C1CF982F9F7D9554933028F40C5F22
:101690001F4FFFE3F9830DC0833631F0833771F0BC
:1016A000833509F05BC022C0F801808189830E5F19
:1016B0001F4F44244394512C540115C03801F2E0CB
:1016C0006F0E711CF801A080B18026FF03C0652D4C
:1016D00070E002C06FEF7FEFC5012C870E94D50C30
:1016E0002C0183012C852F77222E17C03801F2E0C0
:1016F0006F0E711CF801A080B18026FF03C0652D1C
:1017000070E002C06FEF7FEFC5012C870E94C30C11
:101710002C012C852068222E830123FC1BC0832DE5
:1017200090E048165906B0F4B70180E290E00E94BC
:10173000E00C3A94F4CFF50127FC859127FE8191C6
:101740005F01B70190E00E94E00C31103A94F1E0A3
:101750004F1A51084114510471F7E5C0843611F055
:10176000893639F5F80127FF07C0608171818281D0
:1017700093810C5F1F4F08C060817181882777FDBE
:101780008095982F0E5F1F4F2F76B22E97FF09C0BE
:1017900090958095709561957F4F8F4F9F4F2068F2
:1017A000B22E2AE030E0A4010E94120DA82EA81843
:1017B00044C0853729F42F7EB22E2AE030E025C0C0
:1017C000F22FF97FBF2E8F36C1F018F4883579F0EB
:1017D000B4C0803719F0883721F0AFC02F2F2061B7
:1017E000B22EB4FE0DC08B2D8460B82E09C024FF2C
:1017F0000AC09F2F9660B92E06C028E030E005C0D1
:1018000020E130E002C020E132E0F801B7FE07C07D
:1018100060817181828193810C5F1F4F06C060815E
:10182000718180E090E00E5F1F4FA4010E94120DB5
:10183000A82EA818FB2DFF77BF2EB6FE0BC02B2DB0
:101840002E7FA51450F4B4FE0AC0B2FC08C02B2DA4
:101850002E7E05C07A2C2B2D03C07A2C01C0752C4E
:1018600024FF0DC0FE01EA0DF11D8081803311F4CB
:10187000297E09C022FF06C07394739404C0822F8E
:10188000867809F0739423FD13C020FF06C05A2CFC
:10189000731418F4530C5718732C731468F4B701AD
:1018A00080E290E02C870E94E00C73942C85F5CFA9
:1018B000731410F4371801C0312C24FF12C0B70183
:1018C00080E390E02C870E94E00C2C8522FF17C05B
:1018D00021FF03C088E590E002C088E790E0B701EF
:1018E0000CC0822F867859F021FD02C080E201C031
:1018F0008BE227FD8DE2B70190E00E94E00CA51479
:1019000038F4B70180E390E00E94E00C5A94F7CFDE
:10191000AA94F401EA0DF11D8081B70190E00E94C4
:10192000E00CA110F5CF332009F451CEB70180E2CD
:1019300090E00E94E00C3A94F6CFF70186819781FF
:1019400002C08FEF9FEF2C96E2E10C94940D0F9361
:101950001F93CF93DF93869F8001879F100D969FE3
:10196000100D1124C8010E94C408EC01009729F051
:10197000A80160E070E00E94CE0CCE01DF91CF9113
:101980001F910F910895FC01059061507040011066
:10199000D8F7809590958E0F9F1F0895DC0101C0A8
:1019A0006D9341505040E0F70895FC016150704044
:1019B00001900110D8F7809590958E0F9F1F089584
:1019C0000F931F93CF93DF93182F092FEB018B8178
:1019D00081FD03C08FEF9FEF20C082FF10C04E81BA
:1019E0005F812C813D81421753077CF4E881F981A6
:1019F0009F012F5F3F4F39832883108306C0E885FE
:101A0000F985812F0995892B29F72E813F812F5F39
:101A10003F4F3F832E83812F902FDF91CF911F91D6
:101A20000F910895FA01AA27283051F1203181F150
:101A3000E8946F936E7F6E5F7F4F8F4F9F4FAF4FD6
:101A4000B1E03ED0B4E03CD0670F781F891F9A1FE9
:101A5000A11D680F791F8A1F911DA11D6A0F711D9D
:101A6000811D911DA11D20D009F468943F912AE0A9
:101A7000269F11243019305D3193DEF6CF01089591
:101A8000462F4770405D4193B3E00FD0C9F7F6CFC2
:101A9000462F4F70405D4A3318F0495D31FD40528A
:101AA000419302D0A9F7EACFB4E0A6959795879520
:101AB00077956795BA95C9F70097610571050895FF
:101AC0009B01AC010A2E06945795479537952795AB
:101AD000BA95C9F7620F731F841F951FA01D089543
:101AE000B7FF0C9474080E947408821B930B08952E
:101AF0002F923F924F925F926F927F928F929F921E
:101B0000AF92BF92CF92DF92EF92FF920F931F930B
:101B1000CF93DF93CDB7DEB7CA1BDB0B0FB6F894BC
:101B2000DEBF0FBECDBF09942A88398848885F84FC
:101B30006E847D848C849B84AA84B984C884DF806D
:101B4000EE80FD800C811B81AA81B981CE0FD11D51
:101B50000FB6F894DEBF0FBECDBFED010895F89427
:021B6000FFCFB5
:101B620000004903200001000000001408000012D8
:101B720000100000000200000000C3050000000089
:101B820000000002000000007C05000000000200CE
:101B92004E6F742076616C6964206368616E6E6555
:101BA2006C005374617274696E67205352414D2008
:101BB200746573742E2E2E0D005772697465207031
:101BC20068617365206572726F723A206578745F1E
:101BD20072616D5B2534645D203D202530325820D2
:101BE2002873686F756C642062652025303258292D
:101BF2000D0A0052657472696576616C20706861C5
:101C02007365206572726F723A206578745F7261D3
:101C12006D5B2534645D203D2025303258202873C9
:101C2200686F756C642062652025303258290D0A70
:101C3200005352414D207465737420636F6D706C54
:101C4200657465642077697468200A2534642065A8
:101C520072726F727320696E207772697465207078
:101C62006861736520616E64200A253464206572A0
:101C7200726F727320696E20726574726965766123
:101C82006C2070686173650D0A0A00527830202555
:101C920064202052783120202564200A0D00204A39
:101CA2006F79737469636B2078203D2025642C2042
:101CB2004A6F79737469636B2079203D2025642013
:101CC2000D0A004D435032353135206973204E4F95
:101CD2005420696E20436F6E66696775726174691C
:101CE2006F6E206D6F646520616674657220726527
:101CF200736574212049747320636F6E666967206F
:101D020062697473206172652025780A004D435020
:101D120032353135206973204E4F5420696E20636D
:101D22006F7272656374206D6F646520616674659D
:101D320072207265736574212049747320636F6E1B
:101D42006669672062697473206172652025780A6A
:101D5200000A21004D61696E204D656E7500506C60
:101D620061792047616D65004869676873636F72C6
:101D7200657300546573740054657374310054655F
:101D82007374320054657374500054657374480060
:00000001FF
