S00F00004279676765726E2E7372656347
S11300000C94B4010C948A030C94D3010C94D10184
S11300100C94D1010C94D1010C94D1010C94D10114
S11300200C94D1010C94D1010C94D1010C94D10104
S11300300C94D1010C94D1010C94D1010C94D101F4
S11300400C94D1010C94D1010C94D1010C94D101E4
S11300500C94D1010C94D1010C94D1010C94D101D4
S11300600C94D1010C94D1010C94D1010C94D101C4
S1130070000000000000000000065F5F06000000B2
S11300800007070007070000147F7F147F7F140018
S1130090242E6B6B3A120000466630180C66620020
S11300A0307A4F5D377A48000407030000000000EF
S11300B0001C3E63410000000041633E1C00000040
S11300C0082A3E1C1C3E2A0808083E3E0808000078
S11300D000A0E0600000000008080808080800000C
S11300E000006060000000006030180C060301008E
S11300F03E7F594D7F3E000042427F7F40400000DA
S1130100627359496F660000226349497F360000D3
S1130110181C16137F7F1000276745457D390000A2
S11301203C7E4B4979300000036371190F070000CE
S1130130367F49497F360000064F49693F1E00005B
S113014000006C6C0000000000A0EC6C00000000DB
S1130150081C366341000000141414141414000025
S1130160004163361C080000020351590F060000C9
S11301703E7F415D5D1F1E007C7E13137E7C00006C
S1130180417F7F49497F36001C3E63414163220021
S1130190417F7F41637F1C00417F7F495D41630054
S11301A0417F7F491D0103001C3E6341517372006E
S11301B07F7F08087F7F000000417F7F41000000AF
S11301C0307040417F3F0100417F7F081C7763000E
S11301D0417F7F41406070007F7F060C067F7F0077
S11301E07F7F060C187F7F001C3E6341633E1C002A
S11301F0417F7F49090F06001E3F21717F5E000089
S1130200417F7F19396F460026674D597B320000C4
S113021003417F7F410300007F7F40407F7F0000D8
S11302201F3F60603F1F00007F7F3018307F7F00DA
S113023063771C081C776300074F78784F0700002A
S11302406773594D47637100007F7F41410000008F
S11302500103060C183060000041417F7F0000005C
S1130260080C0603060C0800808080808080808053
S11302700000030704000000207454543C7840003C
S1130280413F7F44447C3800387C44446C2800005F
S1130290307848493F7F4000387C54545C18000053
S11302A0487E7F490302000098BCA4A4F87C0400A3
S11302B0417F7F08047C780000447D7D400000007D
S11302C040C484FD7D000000417F7F10386C4400F1
S11302D000417F7F400000007C7C0C180C7C78007F
S11302E07C7C04047C780000387C44447C38000026
S11302F084FCF8A4243C1800183C24A4F8FC8400D2
S1130300447C78441C180000485C54547424000055
S113031000043E7F442400003C7C40403C7C400080
S11303201C3C60603C1C00003C7C6030607C3C00F9
S1130330446C3810386C44009CBCA0A0FC7C0000C9
S11303404C64745C4C64000008083E774141000032
S113035000000077770000004141773E0808000064
S1130360020301030203010011241FBECFEFD4E0F6
S1130370DEBFCDBF13E0A0E0B1E0EAEBFBE102C0D9
S113038005900D92A431B107D9F723E0A4E1B3E0BD
S113039001C01D92AD32B207E1F70E94C2020C9473
S11303A0DB0D0C9400001F920F920FB60F921124D4
S11303B08F93EF93FF93E0910A01F0910B018081F9
S11303C080931803FF91EF918F910F900FBE0F90C0
S11303D01F9018958B98939AF89485B7886085BF79
S11303E085B78B7F85BF8BB780688BBF7894089562
S11303F0E0910A01F0910B01808108958130A9F008
S113040090F0823019F0833019F004C086E00EC0F9
S113041087E00CC080E391E09F938F930E94650A6C
S11304200F900F90089584E001C085E0E0910A01E7
S1130430F0910B01808308955D9BFECF8CB90895E4
S11304405F9BFECF8CB1089525B7206825BF20B7E8
S1130450206220BF90BD89B988E18AB98EE880BD49
S113046060E272E08CE192E00E941A0A0895CF9251
S1130470DF92EF92FF920F931F93CF93DF9385B791
S1130480806885BF80B7806280BF82E491E00E946B
S1130490790A0E940A0A6C010E940F0AC0E0D0E0A7
S11304A000E010E00F2EF9E5EF2EF1E0FF2EF02D25
S11304B00E940A0AFE01F85E808320812817A9F0B1
S11304C099279F938F931F922F93DF93CF93FF923C
S11304D0EF920E94650A0F5F1F4F8DB79EB7089673
S11304E00FB6F8949EBF0FBE8DBF2196C11598E03C
S11304F0D907F1F6C6010E940F0AC0E0D0E0E12C52
S1130500F12C0F2EF3E9CF2EF1E0DF2EF02D0E9417
S11305100A0AFE01F85E20812817B1F099279F93FB
S11305208F931F922F93DF93CF93DF92CF920E94EA
S1130530650A8FEFE81AF80A8DB79EB708960FB6CA
S1130540F8949EBF0FBE8DBF2196C11598E0D907C0
S1130550F1F6FF92EF921F930F9381ED91E09F9339
S11305608F930E94650A0F900F900F900F900F9039
S11305700F90DF91CF911F910F91FF90EF90DF903B
S1130580CF900895CF93DF93CDB7DEB7E7970FB63B
S1130590F894DEBF0FBECDBF8FE190E00E9424022D
S11305A02FEF8FEF9EE0215080409040E1F700C094
S11305B000000E94EA010E9437020E949A050E94EC
S11305C012070E940E0880E00E949E031F921F9251
S11305D01F921F928BE292E09F938F930E94650A71
S11305E00F900F900F900F900F900F900F2EF9E334
S11305F08F2EF5E09F2EF02D0F2EF8E46F2EF02DA8
S11306000F2EF5E67F2EF02D0F2EFAE3AF2EF5E038
S1130610BF2EF02D0F2EFEE3EF2EF2E0FF2EF02D75
S11306209D868C866F86788A8CE6898B8A8B2FE6EA
S11306302B8B95E09E87BA82A98237E53C832D8374
S113064022E72E838F8384E688879B83CE010C96D2
S11306500E94D803CE0182960E94D8030E94B00360
S1130660882309F1CE0147960E948B04898D882343
S1130670B1F08E01065E1F4F6801C80ED11CF8014F
S113068081918F011F928F93FF92EF920E94650ACE
S11306900F900F900F900F900C151D0581F783E4B8
S11306A092E00E94790ACE0101960E94D803CE01FD
S11306B082960E94D8030E94B003882309F1CE01D8
S11306C08D960E948B048FA58823B1F08E01005D66
S11306D01F4F6801C80ED11CF80181918F011F9230
S11306E08F93FF92EF920E94650A0F900F900F90E4
S11306F00F900C151D0581F783E492E00E94790A9E
S1130700FFEF2FEF8EE0F15020408040E1F700C072
S1130710000086CF1F920F920FB60F9211248F9371
S11307209F9381E090E090931703809316039F9129
S11307308F910F900FBE0F901F9018950E943D054A
S113074063E08BE20E942405F89485B7826085BF3C
S113075085B78E7F85BF8BB780648BBF78940895EF
S11307608091160390911703892B31F0109217038F
S11307701092160381E0089580E00895CF93DF93EB
S1130780EC018CE20E9412059E012E5F3F4F422F26
S1130790440F8423482F50E0220F331F81E090E060
S11307A04217530711F480E090E0DF91CF91089550
S11307B0EF92FF920F931F93CF93DF93EC0111C03D
S11307C020911403309115032F5F3F4F309315038D
S11307D0209314032330310524F010921503109252
S11307E0140380911403909115030E94BE03892B76
S11307F039F388819981282F2770F22EBC017695D0
S11308006795769567957695679504E113E0F80109
S113081080818295807F8F5C0E9424056F2D629574
S1130820660F607EF80180818295807F8E5C0E94D5
S11308302405EA80F80180818295807F6E2D8B5C8F
S11308400E9424052396EE2081F0F12C6991F80191
S113085080812F2DF0E18F9F200D1124822F8A5C3F
S11308600E942405F394FE10F1CF809114038F5756
S11308700E947505DF91CF911F910F91FF90EF902A
S113088008950F931F93CF93DF93EB01182F1295C5
S1130890107F81E6810F0E941205082F82E6810FE6
S11308A00E941205202F30E0220F331F220F331F26
S11308B0220F331F829586958770280F311D398347
S11308C0288385E6810F0E941205982F9F709A83D2
S11308D0882359F01A592396082F010F812F0E945B
S11308E0120589931F5F1013F9CFDF91CF911F91E8
S11308F00F910895CF93DF93EC018CE20E941205CF
S1130900982F917098831982827090E09B838A83D8
S1130910DF91CF9108950F931F93CF93DF93CDB7BA
S1130920DEB768970FB6F894DEBF0FBECDBF8C015B
S11309301A821982CE0101960E947A048981882341
S113094021F1BE016D5F7F4F80E090E00E94410481
S113095060E08CE20E94240540E061E08CE20E94A9
S11309608005CE0101960E947A048A81811104C017
S113097010921703109216038BE0FE013396D801F0
S113098001900D928A95E1F72FC08A81882321F185
S1130990BE01625F7F4F81E090E00E94410460E00D
S11309A08CE20E94240540E062E08CE20E94800513
S11309B0CE0101960E947A048981811104C01092AB
S11309C01703109216038BE0FE013E96D8010190A6
S11309D00D928A95E1F708C08BE0FE013396D801A9
S11309E001900D928A95E1F7C80168960FB6F894C4
S11309F0DEBF0FBECDBFDF91CF911F910F91089540
S1130A00C4980895C49A08950E94000580EC0E9439
S1130A108C080E94020583EC99E00197F1F700C06D
S1130A2000000895CF93C82F0E94000583E00E9420
S1130A308C088C2F0E948C080E949008C82F0E945A
S1130A4002058C2FCF910895CF93DF93D82FC62F13
S1130A500E94000582E00E948C088D2F0E948C0861
S1130A608C2F0E948C080E940205DF91CF9108957B
S1130A70682F8FE00E9424050895CF93C82F0E9409
S1130A8086080E9404058EE00E941205807E80384C
S1130A9071F01F928F9386E492E09F938F930E944C
S1130AA0650A0F900F900F900F9081E01CC08C2F5F
S1130AB00E9438058EE00E941205807E8C1791F00A
S1130AC01F928F9380E992E09F938F930E94650A0F
S1130AD084ED92E00E94790A0F900F900F900F908E
S1130AE081E001C080E0CF910895CF93C82F0E9488
S1130AF000058C2F0E948C080E940205CF91089556
S1130B001F93CF93DF93182FD62FC42F0E94000575
S1130B1085E00E948C08812F0E948C088D2F0E94F2
S1130B208C088C2F0E948C080E940205DF91CF91C3
S1130B301F91089580E00E94FE0182E48A95F1F7F6
S1130B4000C00E94F8018093190381E00E94FE0115
S1130B5082E48A95F1F700C00E94F80180931A0399
S1130B60089580911D0390911E0380389105BCF077
S1130B70EDE1F3E080819181805891099183808334
S1130B80EBE1F3E080819181019691838083808100
S1130B909181089724F010921C0310921B0308956E
S1130BA0EF92FF920F931F93CF93DF938052209184
S1130BB00C0130910D011216130684F5E82EF12C68
S1130BC0C701880F991F880F991F880F991FC0E0CC
S1130BD0D0E09C0120593F4F79010DE113E0F7016A
S1130BE0EC0FFD1F85919491E0910E01F0910F019E
S1130BF08083F8012081318180910C0190910D0155
S1130C00820F931F918380830E94B1052196809166
S1130C100C0190910D01C817D9070CF380E090E006
S1130C20DF91CF911F910F91FF90EF900895EF9274
S1130C30FF920F931F93CF93DF93805220910C0167
S1130C4030910D01121613068CF5E82EF12CC70114
S1130C50880F991F880F991F880F991FC0E0D0E053
S1130C609C0120593F4F79010DE113E0F701EC0F8E
S1130C70FD1F859194918095E0910E01F0910F01F3
S1130C808083F8012081318180910C0190910D01C4
S1130C90820F931F918380830E94B10521968091D6
S1130CA00C0190910D01C817D90704F380E090E07E
S1130CB0DF91CF911F910F91FF90EF900895E091F4
S1130CC01001F091110190E29083E0911001F091F4
S1130CD0110180830895CF93DF93CDB7DEB7FE0172
S1130CE0359661917191AF0180E291E00E94A60A6C
S1130CF0DF91CF910895CF93DF93CDB7DEB7FE0197
S1130D00359661917191AF0182E191E00E94A60A4A
S1130D10DF91CF910895CF93DF93EC018830910553
S1130D2080F490931C0380931B0382E00E945F066F
S1130D30C055E0911001F0911101C08380E00E9440
S1130D405F06DF91CF910895CF93DF93EC01803854
S1130D50910550F590931E0380931D0382E00E9439
S1130D605F06CE018F709078992324F40197806FE9
S1130D709F6F0196E0911001F09111018083CE01E3
S1130D80DD230CF40F969595879595958795959504
S1130D90879595958795805FE0911001F0911101F9
S1130DA0808380E00E945F06DF91CF910895CF9306
S1130DB0DF93EB010E948B06CE010E94A406DF9113
S1130DC0CF91089560E070E080E090E00E94D70643
S1130DD00895CF93DF93EC0160E070E00E94D706A2
S1130DE020E830E0E0910E01F0910F0110822150D3
S1130DF0310921153105B1F7CE010E948B06DF912F
S1130E00CF910895CF93DF93C0E0D0E0CE010E944C
S1130E10E9062196C830D105C9F70E94E206DF91A0
S1130E20CF910895E0911001F09111018EEA808331
S1130E30E0911001F091110181EA8083E0911001A9
S1130E40F09111018AED8083E0911001F09111017C
S1130E5082E18083E0911001F091110188EC80839C
S1130E60E0911001F091110188EA8083E091100172
S1130E70F09111018FE38083E0911001F091110151
S1130E8085ED8083E0911001F091110180E8808369
S1130E90E0911001F091110181E88083E09110014B
S1130EA0F091110180E58083E0911001F09111012E
S1130EB089ED8083E0911001F091110181E280833A
S1130EC080E00E945F06E0911001F09111018BED2A
S1130ED08083E0911001F091110180E38083E0911F
S1130EE01001F09111018DEA8083E0911001F091DD
S1130EF011011082E0911001F091110184EA8083C4
S1130F00E0911001F091110186EA8083E0911001D3
S1130F10F09111018FEA80830E94020708950F93D4
S1130F201F93CF93DF938C01EB0189E090E00E9443
S1130F309508FC0111830083D483C3831086178230
S1130F4016821582DF91CF911F910F910895DC01D4
S1130F501596ED91FC911697309779F00780F085FE
S1130F60E02D309769F021E030E02F5F3F4F07809C
S1130F70F085E02D3097C9F706C080E090E0089531
S1130F8081E090E00895822F932F08950F931F938B
S1130F90CF93DF93EC010E940207CE010E94A707C2
S1130FA090932203809321030D811E81809121035C
S1130FB0909122031816190664F5C0E0D0E060E0B1
S1130FC070E0CE010E94D70680912E0190912F01EE
S1130FD08C179D0751F4F80181818F9380818F9341
S1130FE00E947B060F900F9009C0F80181818F93B6
S1130FF080818F930E946B060F900F90F8010781F8
S1131000108521968091210390912203C817D90756
S1131010B4F2DF91CF911F910F9108954F925F9297
S11310206F927F928F929F92AF92BF92CF92DF92F4
S1131030EF92FF920F931F93CF93DF9360E070E0E2
S113104087ED92E00E948F07EC01BC0181EE92E0F3
S11310500E948F077C01BE018BEE92E00E948F07F5
S11310608C01BE0186EF92E00E948F074C01BC0107
S11310708BEF92E00E948F076C01BC0181E093E04A
S11310800E948F072C01B70187E093E00E948F072D
S11310905C01B8018DE093E00E948F073C01D0937E
S11310A02003C0931F03CE010E94A707909322033D
S11310B080932103CE010E94C607FE82ED82F701D0
S11310C010870783F80190868782F401D682C5824F
S11310D0F701B682A582F80176826582F60156820E
S11310E0458280911F0390912003DF91CF911F913E
S11310F00F91FF90EF90DF90CF90BF90AF909F90B3
S11311008F907F906F905F904F90089580EB87BB96
S113111081E58DB9C49A08958FB9779BFECF089560
S11311201FB8779BFECF8FB10895CF93DF938230A2
S1131130910510F482E090E0E0912503F0912603FC
S113114020E030E0A0E0B0E0309739F140815181F7
S113115048175907B8F04817590771F482819381E9
S1131160109729F013969C938E9312972CC090930A
S113117026038093250327C02115310531F042173A
S1131180530718F0A901DB0101C0EF019A01BD0169
S1131190DF010280F381E02DD7CF21153105F9F06D
S11311A0281B390B2430310580F48A819B81611519
S11311B0710521F0FB019383828304C0909326037D
S11311C080932503FE01329644C0FE01E20FF31F13
S11311D08193919322503109398328833AC0209115
S11311E0230330912403232B41F4209102013091F5
S11311F003013093240320932303209100013091B1
S113120001012115310541F42DB73EB74091040188
S113121050910501241B350BE0912303F091240325
S1131220E217F307A0F42E1B3F0B2817390778F0B9
S1131230AC014E5F5F4F2417350748F04E0F5F1F18
S113124050932403409323038193919302C0E0E0DD
S1131250F0E0CF01DF91CF910895CF93DF93009712
S113126009F487C0FC01329713821282C0912503CE
S1131270D0912603209781F420813181280F391FD2
S113128080912303909124038217930779F5F093B7
S11312902403E09323036DC0DE0120E030E0AE17A9
S11312A0BF0750F412964D915C9113979D0141151F
S11312B0510509F1DA01F3CFB383A283408151814F
S11312C0840F951F8A179B0771F48D919C91119738
S11312D0840F951F02969183808312968D919C9121
S11312E01397938382832115310529F4F093260300
S11312F0E09325033EC0D9011396FC93EE93129715
S11313004D915D91A40FB51FEA17FB0779F4808115
S11313109181840F951F0296D90111969C938E9307
S11313208281938113969C938E931297E0E0F0E070
S11313308A819B81009719F0FE01EC01F9CFCE015F
S1131340029628813981820F931F209123033091C3
S113135024032817390769F4309729F410922603D7
S11313601092250302C013821282D0932403C093E7
S11313702303DF91CF9108958F929F92AF92BF92F2
S1131380CF92DF92EF92FF92CF93DF93EC016881CB
S113139079818A819B81611571058105910521F40B
S11313A064E279ED8BE597E02DE133EF41E050E025
S11313B00E94410D49015A019B01AC01A7EAB1E425
S11313C00E94600D6B017C01ACEEB4EFA5019401A9
S11313D00E946E0DC60ED71EE81EF91EF7FE06C04B
S11313E081E0C81AD108E10880E8F80AC882D982E5
S11313F0EA82FB82C6019F77DF91CF91FF90EF9045
S1131400DF90CF90BF90AF909F908F9008950E94EF
S1131410BC09089586E091E00E94BC090895A0E00B
S1131420B0E08093060190930701A0930801B09364
S1131430090108950F931F93CF93DF93EC018B0160
S1131440009731F46115710519F480E090E038C01B
S11314506EE070E081E090E00E94780CFC0100975F
S1131460A1F380E883830115110571F013870287C6
S113147081E883838091270390912803892B21F4A9
S1131480F0932803E09327032097C9F0D187C087FE
S11314908381826083838091290390912A03892B1D
S11314A071F4F0932A03E093290380912B03909124
S11314B02C03892B21F4F0932C03E0932B03CF010D
S11314C0DF91CF911F910F910895A0E0B0E0EBE67A
S11314D0FAE00C94830DFE01359661917191AF0190
S11314E08091290390912A030E94A60AE2E00C94B9
S11314F09F0D0F931F93CF93DF93E0912903F091F6
S11315002A03238121FF1BC0EC0100E010E0899134
S11315106091290370912A03DB011896ED91FC91E7
S11315201997882331F00995892B89F30FEF1FEF61
S1131530EECF8AE00995892B11F4C80102C08FEF20
S11315409FEFDF91CF911F910F910895ACE0B0E030
S1131550ECEAFAE00C94730D7C016B018A01FC0146
S113156017821682838181FFBDC1CE0101964C0191
S1131570F7019381F60193FD859193FF81916F01AA
S1131580882309F4ABC1853239F493FD859193FF27
S113159081916F01853229F4B70190E00E94B10C6A
S11315A0E7CF512C312C20E02032A0F48B3269F0AB
S11315B030F4803259F0833269F420612CC08D32CA
S11315C039F0803339F4216026C02260246023C0BE
S11315D0286021C027FD27C030ED380F3A3078F459
S11315E026FF06C0FAE05F9E300D1124532E13C06F
S11315F08AE0389E300D1124332E20620CC08E32C6
S113160021F426FD6BC1206406C08C3611F42068D9
S113161002C0883641F4F60193FD859193FF8191D0
S11316206F018111C1CF982F9F7D9554933028F479
S11316300C5F1F4FFFE3F9830DC0833631F083370E
S113164071F0833509F05BC022C0F8018081898381
S11316500E5F1F4F44244394512C540115C038018C
S1131660F2E06F0E711CF801A080B18026FF03C068
S1131670652D70E002C06FEF7FEFC5012C870E94DB
S1131680A60C2C0183012C852F77222E17C038013C
S1131690F2E06F0E711CF801A080B18026FF03C038
S11316A0652D70E002C06FEF7FEFC5012C870E94AB
S11316B0940C2C012C852068222E830123FC1BC052
S11316C0832D90E048165906B0F4B70180E290E00B
S11316D00E94B10C3A94F4CFF50127FC859127FEC2
S11316E081915F01B70190E00E94B10C31103A94EE
S11316F0F1E04F1A51084114510471F7E5C08436E2
S113170011F0893639F5F80127FF07C0608171812E
S1131710828193810C5F1F4F08C06081718188278B
S113172077FD8095982F0E5F1F4F2F76B22E97FF6F
S113173009C090958095709561957F4F8F4F9F4F0D
S11317402068B22E2AE030E0A4010E94E30CA82E07
S1131750A81844C0853729F42F7EB22E2AE030E041
S113176025C0F22FF97FBF2E8F36C1F018F48835CB
S113177079F0B4C0803719F0883721F0AFC02F2F2B
S11317802061B22EB4FE0DC08B2D8460B82E09C02A
S113179024FF0AC09F2F9660B92E06C028E030E0CF
S11317A005C020E130E002C020E132E0F801B7FEDC
S11317B007C060817181828193810C5F1F4F06C0D5
S11317C06081718180E090E00E5F1F4FA4010E9450
S11317D0E30CA82EA818FB2DFF77BF2EB6FE0BC076
S11317E02B2D2E7FA51450F4B4FE0AC0B2FC08C001
S11317F02B2D2E7E05C07A2C2B2D03C07A2C01C0F4
S1131800752C24FF0DC0FE01EA0DF11D808180338B
S113181011F4297E09C022FF06C07394739404C096
S1131820822F867809F0739423FD13C020FF06C02D
S11318305A2C731418F4530C5718732C731468F43B
S1131840B70180E290E02C870E94B10C73942C8540
S1131850F5CF731410F4371801C0312C24FF12C0D3
S1131860B70180E390E02C870E94B10C2C8522FF05
S113187017C021FF03C088E590E002C088E790E02C
S1131880B7010CC0822F867859F021FD02C080E296
S113189001C08BE227FD8DE2B70190E00E94B10CFC
S11318A0A51438F4B70180E390E00E94B10C5A9477
S11318B0F7CFAA94F401EA0DF11D8081B70190E0FD
S11318C00E94B10CA110F5CF332009F451CEB70119
S11318D080E290E00E94B10C3A94F6CFF701868141
S11318E0978102C08FEF9FEF2C96E2E10C948F0D4D
S11318F00F931F93CF93DF93869F8001879F100DD3
S1131900969F100D1124C8010E949508EC010097C0
S113191029F0A80160E070E00E949F0CCE01DF91E5
S1131920CF911F910F910895FC0105906150704073
S11319300110D8F7809590958E0F9F1F0895DC01B4
S113194001C06D9341505040E0F70895FC0161508F
S1131950704001900110D8F7809590958E0F9F1FCD
S113196008950F931F93CF93DF93182F092FEB0143
S11319708B8181FD03C08FEF9FEF20C082FF10C0D9
S11319804E815F812C813D81421753077CF4E881AD
S1131990F9819F012F5F3F4F39832883108306C04D
S11319A0E885F985812F0995892B29F72E813F81B7
S11319B02F5F3F4F3F832E83812F902FDF91CF9155
S11319C01F910F910895FA01AA27283051F120316F
S11319D081F1E8946F936E7F6E5F7F4F8F4F9F4FBF
S11319E0AF4FB1E03ED0B4E03CD0670F781F891F01
S11319F09A1FA11D680F791F8A1F911DA11D6A0FCF
S1131A00711D811D911DA11D20D009F468943F9181
S1131A102AE0269F11243019305D3193DEF6CF0180
S1131A200895462F4770405D4193B3E00FD0C9F746
S1131A30F6CF462F4F70405D4A3318F0495D31FDB3
S1131A404052419302D0A9F7EACFB4E0A695979506
S1131A50879577956795BA95C9F7009761057105DC
S1131A6008959B01AC010A2E069457954795379526
S1131A702795BA95C9F7620F731F841F951FA01D80
S1131A800895052E97FB1EF400940E94580D57FDEF
S1131A9007D00E94AA0D07FC03D04EF40C94580DF5
S1131AA050954095309521953F4F4F4F5F4F089586
S1131AB090958095709561957F4F8F4F9F4F0895B6
S1131AC00E94CC0DA59F900DB49F900DA49F800DF6
S1131AD0911D11240895B7FF0C94600D0E94600DB0
S1131AE0821B930B08952F923F924F925F926F92B5
S1131AF07F928F929F92AF92BF92CF92DF92EF929A
S1131B00FF920F931F93CF93DF93CDB7DEB7CA1B1A
S1131B10DB0B0FB6F894DEBF0FBECDBF09942A8845
S1131B20398848885F846E847D848C849B84AA84ED
S1131B30B984C884DF80EE80FD800C811B81AA817A
S1131B40B981CE0FD11D0FB6F894DEBF0FBECDBF45
S1131B50ED010895A1E21A2EAA1BBB1BFD010DC0C5
S1131B60AA1FBB1FEE1FFF1FA217B307E407F50749
S1131B7020F0A21BB30BE40BF50B661F771F881F25
S1131B80991F1A9469F760957095809590959B01BB
S1131B90AC01BD01CF010895A29FB001B39FC00164
S1131BA0A39F700D811D1124911DB29F700D811D85
S10D1BB01124911D0895F894FFCF4D
S1131BBA00002D0320000100000000140800001298
S1131BCA00100000000200000000170600000000D8
S1131BDA0000000200000000D0050000000002001E
S1131BEA4E6F742076616C6964206368616E6E65F9
S1131BFA6C005374617274696E67205352414D20AC
S1131C0A746573742E2E2E0D0057726974652070D4
S1131C1A68617365206572726F723A206578745FC1
S1131C2A72616D5B2534645D203D20253032582075
S1131C3A2873686F756C64206265202530325829D0
S1131C4A0D0A0052657472696576616C2070686168
S1131C5A7365206572726F723A206578745F726177
S1131C6A6D5B2534645D203D20253032582028736D
S1131C7A686F756C642062652025303258290D0A14
S1131C8A005352414D207465737420636F6D706CF8
S1131C9A657465642077697468200A25346420654C
S1131CAA72726F727320696E20777269746520701C
S1131CBA6861736520616E64200A25346420657244
S1131CCA726F727320696E207265747269657661C7
S1131CDA6C2070686173650D0A0A005278302025F9
S1131CEA64202052783120202564200A0D00202502
S1131CFA6320000D20004D4350323531352069737D
S1131D0A204E4F5420696E20436F6E666967757260
S1131D1A6174696F6E206D6F6465206166746572A3
S1131D2A207265736574212049747320636F6E662B
S1131D3A69672062697473206172652025780A00D4
S1131D4A4D435032353135206973204E4F54206942
S1131D5A6E20636F7272656374206D6F64652061AF
S1131D6A66746572207265736574212049747320E0
S1131D7A636F6E6669672062697473206172652095
S1131D8A25780A000A21004D61696E204D656E7539
S1131D9A00506C61792047616D6500486967687312
S1131DAA636F726573005465737400546573743198
S1131DBA0054657374320054657374500054657327
S1071DCA7448000055
S9030000FC
