S00F00004279676765726E2E7372656347
S11300000C94B4010C94A7020C94D3010C94D10168
S11300100C94D1010C94D1010C94D1010C94D10114
S11300200C94D1010C94D1010C94D1010C94D10104
S11300300C94D1010C94D1010C94D1010C94D101F4
S11300400C94D1010C94D1010C94D1010C94D101E4
S11300500C94D1010C94D1010C94D1010C94D101D4
S11300600C94D1010C94D1010C94D1010C94D101C4
S1130070000000000000000000065F5F06000000B2
S11300800007070007070000147F7F147F7F140018
S1130090242E6B6B3A120000466630180C66620020
S11300A0307A4F5D377A48000407030000000000EF
S11300B0001C3E63410000000041633E1C00000040
S11300C0082A3E1C1C3E2A0808083E3E0808000078
S11300D000A0E0600000000008080808080800000C
S11300E000006060000000006030180C060301008E
S11300F03E7F594D7F3E000042427F7F40400000DA
S1130100627359496F660000226349497F360000D3
S1130110181C16137F7F1000276745457D390000A2
S11301203C7E4B4979300000036371190F070000CE
S1130130367F49497F360000064F49693F1E00005B
S113014000006C6C0000000000A0EC6C00000000DB
S1130150081C366341000000141414141414000025
S1130160004163361C080000020351590F060000C9
S11301703E7F415D5D1F1E007C7E13137E7C00006C
S1130180417F7F49497F36001C3E63414163220021
S1130190417F7F41637F1C00417F7F495D41630054
S11301A0417F7F491D0103001C3E6341517372006E
S11301B07F7F08087F7F000000417F7F41000000AF
S11301C0307040417F3F0100417F7F081C7763000E
S11301D0417F7F41406070007F7F060C067F7F0077
S11301E07F7F060C187F7F001C3E6341633E1C002A
S11301F0417F7F49090F06001E3F21717F5E000089
S1130200417F7F19396F460026674D597B320000C4
S113021003417F7F410300007F7F40407F7F0000D8
S11302201F3F60603F1F00007F7F3018307F7F00DA
S113023063771C081C776300074F78784F0700002A
S11302406773594D47637100007F7F41410000008F
S11302500103060C183060000041417F7F0000005C
S1130260080C0603060C0800808080808080808053
S11302700000030704000000207454543C7840003C
S1130280413F7F44447C3800387C44446C2800005F
S1130290307848493F7F4000387C54545C18000053
S11302A0487E7F490302000098BCA4A4F87C0400A3
S11302B0417F7F08047C780000447D7D400000007D
S11302C040C484FD7D000000417F7F10386C4400F1
S11302D000417F7F400000007C7C0C180C7C78007F
S11302E07C7C04047C780000387C44447C38000026
S11302F084FCF8A4243C1800183C24A4F8FC8400D2
S1130300447C78441C180000485C54547424000055
S113031000043E7F442400003C7C40403C7C400080
S11303201C3C60603C1C00003C7C6030607C3C00F9
S1130330446C3810386C44009CBCA0A0FC7C0000C9
S11303404C64745C4C64000008083E774141000032
S113035000000077770000004141773E0808000064
S1130360020301030203010011241FBECFEFD4E0F6
S1130370DEBFCDBF13E0A0E0B1E0E6E0FFE102C0E4
S113038005900D92A83BB107D9F723E0A8EBB3E0A1
S113039001C01D92A13FB207E1F70E9437020C94FD
S11303A0810F0C9400001F920F920FB60F9211242C
S11303B08F93EF93FF93E0910601F0910701808101
S11303C08093C403FF91EF918F910F900FBE0F9014
S11303D01F9018958B98939AF89485B7886085BF79
S11303E085B78B7F85BF8BB780688BBF7894089562
S11303F0E0910601F0910701808108958130A9F010
S113040090F0823019F0833019F004C086E00EC0F9
S113041087E00CC085E491E09F938F930E946E0C5B
S11304200F900F90089584E001C085E0E0910601EB
S1130430F0910701808308955D9BFECF8CB90895E8
S11304405F9BFECF8CB1089525B7206825BF20B7E8
S1130450206220BF90BD89B988E18AB98EE880BD49
S113046060E272E08CE192E00E94230C0895CF9345
S1130470DF9300D000D01F92CDB7DEB78FE190E0BC
S11304800E9424022FEF8FEF9EE021508040904085
S1130490E1F700C000000E94EA010E9441050E94A9
S11304A094080E94B40980E090E00E94180A80E059
S11304B00E94BB0287E892E09F938F930E946E0C88
S11304C00F900F90812C912C55245394612C312C36
S11304D0412C0E94EA046B017C010E151F0521F4D6
S11304E0A616B70621F405C0852C962C02C0852CCF
S11304F0962C0E949A0529833A834B835C836D83EF
S1130500662329F0643059F027E0721208C00E9473
S1130510180AB701A6010E943806782E0AC0811471
S1130520910439F0B701A601872D0E943806832C67
S1130530942C0E94B9048FEF9FEF22E081509040E9
S11305402040E1F700C000C056018701C2CF1F92CE
S11305500F920FB60F9211248F939F9381E090E036
S11305609093BB038093BA039F918F910F900FBE1A
S11305700F901F9018950E945C0463E08BE20E9428
S11305804304F89485B7826085BF85B78E7F85BFA5
S11305908BB780648BBF789408958091BA0390914F
S11305A0BB03892B31F01092BB031092BA0381E094
S11305B0089580E00895CF93DF93EC018CE20E94CC
S11305C031049E012E5F3F4F422F440F8423482F56
S11305D050E0220F331F81E090E04217530711F4DB
S11305E080E090E0DF91CF910895EF92FF920F9316
S11305F01F93CF93DF93EC0111C02091B803309186
S1130600B9032F5F3F4F3093B9032093B8032330CE
S1130610310524F01092B9031092B8038091B80305
S11306209091B9030E94DB02892B39F38881998167
S1130630282F2770F22EBC017695679576956795DD
S11306407695679508EB13E0F80180818295807FA9
S11306508F5C0E9443046F2D6295660F607EF801E3
S113066080818295807F8E5C0E944304EA80F80139
S113067080818295807F6E2D8B5C0E94430423963B
S1130680EE2081F0F12C6991F80180812F2DF0E1A9
S11306908F9F200D1124822F8A5C0E944304F394BF
S11306A0FE10F1CF8091B8038F570E949404DF911C
S11306B0CF911F910F91FF90EF9008950F931F9387
S11306C0CF93DF93EB01182F1295107F81E6810FF2
S11306D00E943104082F82E6810F0E943104202FEA
S11306E030E0220F331F220F331F220F331F829556
S11306F086958770280F311D3983288385E6810FFD
S11307000E943104982F9F709A83882359F01A59B4
S11307102396082F010F812F0E94310489931F5FB4
S11307201013F9CFDF91CF911F910F910895CF93BB
S1130730DF93EC018CE20E943104982F917098832E
S11307401982827090E09B838A83DF91CF91089510
S11307500F931F93CF93DF93CDB7DEB768970FB690
S1130760F894DEBF0FBECDBF8C011A821982CE0170
S113077001960E9497038981882329F1BE016D5F48
S11307807F4F80E090E00E945E0340E061E08CE2F5
S11307900E949F0440E061E08CE20E949F04CE012D
S11307A001960E9497038A81811104C01092BB03B1
S11307B01092BA038BE0FE013396D80101900D929A
S11307C08A95E1F730C08A81882329F1BE01625FEE
S11307D07F4F81E090E00E945E0340E062E08CE2A3
S11307E00E949F0440E062E08CE20E949F04CE01DC
S11307F001960E9497038981811104C01092BB0362
S11308001092BA038BE0FE013E96D80101900D923E
S11308108A95E1F708C08BE0FE013396D801019078
S11308200D928A95E1F7C80168960FB6F894DEBF79
S11308300FBECDBFDF91CF911F910F910895C49842
S11308400895C49A08950E941F0480EC0E94CB0A64
S11308500E94210483EC99E00197F1F700C00000A5
S11308600895CF93C82F0E941F0483E00E94CB0AEF
S11308708C2F0E94CB0A0E94CF0AC82F0E94210409
S11308808C2FCF910895CF93DF93D82FC62F0E943A
S11308901F0482E00E94CB0A8D2F0E94CB0A8C2F6A
S11308A00E94CB0A0E942104DF91CF910895682F02
S11308B08FE00E9443040895CF93C82F0E94C50A75
S11308C00E9423048EE00E943104807E803871F0FF
S11308D01F928F9385E992E09F938F930E946E0CF1
S11308E00F900F900F900F9081E01CC08C2F0E94EE
S11308F057048EE00E943104807E8C1791F01F9281
S11309008F938FED92E09F938F930E946E0C83E2FE
S113091093E00E94820C0F900F900F900F9081E053
S113092001C080E0CF910895CF93C82F0E941F0487
S11309308C2F0E94CB0A0E942104CF9108951F930B
S1130940CF93DF93182FD62FC42F0E941F0485E066
S11309500E94CB0A812F0E94CB0A8D2F0E94CB0AC2
S11309608C2F0E94CB0A0E942104DF91CF911F910A
S113097008950F931F93CF93DF93CDB7DEB760979E
S11309800FB6F894DEBF0FBECDBF0E94A70A082F92
S1130990192F0E949A056D8309871A870E94BF0A3E
S11309A08B878D81811105C082E58C8784E08887DF
S11309B002C083E08887CE0106960E94F502609605
S11309C00FB6F894DEBF0FBECDBFDF91CF911F915C
S11309D00F910895CF93DF93CDB7DEB72B970FB662
S11309E0F894DEBF0FBECDBF0E94CD028823D9F09C
S11309F0CE0101960E94A8038BE0FE013196A5EC7E
S1130A00B3E001900D928A95E1F78091C80390E0DC
S1130A109093BF038093BE038091C90390E09093A9
S1130A20BD038093BC03EEEBF3E081818F9380815F
S1130A308F9386E293E09F938F930E946E0CECEB6E
S1130A40F3E081818F9380818F938AE393E09F9376
S1130A508F930E946E0C6091BC037091BD038091D2
S1130A60BE039091BF030FB6F894DEBF0FBECDBF97
S1130A702B960FB6F894DEBF0FBECDBFDF91CF919A
S1130A80089580E00E94FE0182E48A95F1F700C097
S1130A900E94F8018093D00381E00E94FE0182E469
S1130AA08A95F1F700C00E94F8018093D10308955C
S1130AB0CF93DF93CDB7DEB72A970FB6F894DEBF96
S1130AC00FBECDBF4E835F83688779872E813F81B8
S1130AD0488559852E3C9FEF390724F0233331058F
S1130AE01CF403C080E001C081E04E3C9FEF590735
S1130AF024F0433351051CF403C083E001C082E0B9
S1130B002115310521F44115510509F484E03A8396
S1130B1029835C834B833A815C81682F70E080E099
S1130B2090E02A960FB6F894DEBF0FBECDBFDF91DA
S1130B30CF9108950F931F93CF93DF93CDB7DEB773
S1130B402A970FB6F894DEBF0FBECDBF80E00E9497
S1130B50FE0182E48A95F1F700C00E94F801209119
S1130B60D0032817A0F430E09927AC01421B530BA3
S1130B7064E6649FC001659F900D11246FEF70E0DF
S1130B80621B730B0E94D40A162F072F15C08217FD
S1130B9088F4622F70E099279C01261B370B44E6EA
S1130BA0429FC001439F900D11240E94D40A162F26
S1130BB0072F02C010E000E081E00E94FE0182E401
S1130BC08A95F1F700C00E94F8012091D1032817FB
S1130BD0A0F430E09927AC01421B530B64E6649FF8
S1130BE0C001659F900D11244FEF50E0BA01621BC4
S1130BF0730B0E94D40A862F14C0821780F430E04D
S1130C009927AC01421B530B64E6649FC001659FA6
S1130C10900D1124B9010E94D40A862F02C080E0ED
S1130C2070E0412F682F502F8A850E9458052E832B
S1130C303F83488759876A8785E0FE013696DE013F
S1130C40119601900D928A95E1F729813A814B81A1
S1130C505C816D8170E080E090E02A960FB6F89494
S1130C60DEBF0FBECDBFDF91CF911F910F910895CD
S1130C709F92AF92BF92CF92DF92EF92FF920F9327
S1130C801F93CF93DF9300D000D000D0CDB7DEB751
S1130C90982E6A017B018A0181E0981609F4C1C08B
S1130CA0981648F085E0981609F449C086E098162D
S1130CB009F47BC0C5C00E9484088DE493E09F932F
S1130CC08F930E94ED0760E070E081E090E00E9465
S1130CD059080F2EFAE0AF2EB12CF02DC601B50144
S1130CE00E94D40A9C01E0ECF3E0C60164E670E0E3
S1130CF00E94D40A821B930BB5010E94D40A605D42
S1130D006083205D2093C103FF93EF930E94ED075E
S1130D100F900F900F900F901E141F040CF090C0B2
S1130D2060E070E082E090E00E9459088DE593E075
S1130D309F938F930E94ED070F900F9081C00E94A4
S1130D4084088DE493E09F938F930E94ED0760E005
S1130D5070E081E090E00E9459088FE392E0809374
S1130D60C4030F2EFAE0EF2EF12CF02DC801B701C9
S1130D700E94D40A9C01E0ECF3E0C80164E670E050
S1130D800E94D40A821B930BB7010E94D40A605DAF
S1130D906083205D2093C103FF93EF930E94ED07CE
S1130DA00F900F900F900F904BC00E94840887E61D
S1130DB093E09F938F930E94ED070F2EF8E0AF2EE0
S1130DC0F1E0BF2EF02D0F900F90C12CD12C8E018D
S1130DD00F5F1F4F7E0186E0E80EF11C8FEFC81AEB
S1130DE0D80A60E070E0C6010E94590819821A828C
S1130DF01B821C821E821D82F801D5018D91819374
S1130E00EE15FF05D9F71F930F930E94ED0785E0B8
S1130E10A80EB11C0F900F9085E0C816D104F1F60E
S1130E200FC08AE090E09093D3038093D203109292
S1130E30D50381E08093D40382ED93E00E94F50210
S1130E40892D26960FB6F894DEBF0FBECDBFDF9175
S1130E50CF911F910F91FF90EF90DF90CF90BF90B3
S1130E60AF909F9008958091DF039091E0038038C4
S1130E709105BCF0EFEDF3E08081918180589109F8
S1130E8091838083EDEDF3E08081918101969183DC
S1130E90808380819181089724F01092DE03109260
S1130EA0DD030895EF92FF920F931F93CF93DF9387
S1130EB0805220912101309122011216130684F5EB
S1130EC0E82EF12CC701880F991F880F991F880FEE
S1130ED0991FC0E0D0E09C0120593F4F79010FEDEC
S1130EE013E0F701EC0FFD1F85919491E09123012C
S1130EF0F09124018083F8012081318180912101C6
S1130F0090912201820F931F918380830E94330763
S1130F1021968091210190912201C817D9070CF3E1
S1130F2080E090E0DF91CF911F910F91FF90EF90BF
S1130F300895EF92FF920F931F93CF93DF93805204
S1130F402091210130912201121613068CF5E82E0E
S1130F50F12CC701880F991F880F991F880F991FBB
S1130F60C0E0D0E09C0120593F4F79010FED13E020
S1130F70F701EC0FFD1F859194918095E091230179
S1130F80F09124018083F801208131818091210135
S1130F9090912201820F931F918380830E943307D3
S1130FA021968091210190912201C817D90704F359
S1130FB080E090E0DF91CF911F910F91FF90EF902F
S1130FC00895E0912501F091260190E29083E0914B
S1130FD02501F091260180830895CF93DF93CDB747
S1130FE0DEB7FE01359661917191AF0185E391E021
S1130FF00E94AF0CDF91CF910895CF93DF93CDB7CB
S1131000DEB7FE01359661917191AF0187E291E0FF
S11310100E94AF0CDF91CF910895CF93DF93EC0141
S11310208830910580F49093DE038093DD0382E0A1
S11310300E94E107C055E0912501F0912601C0838B
S113104080E00E94E107DF91CF910895CF93DF9371
S1131050EC018038910550F59093E0038093DF0311
S113106082E00E94E107CE018F709078992324F4E6
S11310700197806F9F6F0196E0912501F091260101
S11310808083CE01DD230CF40F9695958795959575
S113109087959595879595958795805FE09125012E
S11310A0F0912601808380E00E94E107DF91CF91D7
S11310B00895CF93DF93EB010E940D08CE010E94A7
S11310C02608DF91CF91089560E070E080E090E021
S11310D00E9459080895CF93DF93EC0160E070E01B
S11310E00E94590820E830E0E0912301F0912401A6
S11310F010822150310921153105B1F7CE010E942A
S11311000D08DF91CF910895CF93DF93C0E0D0E035
S1131110CE010E946B082196C830D105C9F70E9400
S11311206408DF91CF910895E0912501F0912601A3
S11311308EEA8083E0912501F091260181EA808383
S1131140E0912501F09126018AED8083E09125014B
S1131150F091260182E18083E0912501F09126013E
S113116088EC8083E0912501F091260188EA808350
S1131170E0912501F09126018FE38083E091250120
S1131180F091260185ED8083E0912501F0912601FF
S113119080E88083E0912501F091260181E8808335
S11311A0E0912501F091260180E58083E0912501FD
S11311B0F091260189ED8083E0912501F0912601CB
S11311C081E2808380E00E94E107E0912501F091B3
S11311D026018BED8083E0912501F091260180E3C7
S11311E08083E0912501F09126018DEA8083E091CE
S11311F02501F09126011082E0912501F09126014C
S113120084EA8083E0912501F091260186EA8083B7
S1131210E0912501F09126018FEA80830E948408E1
S113122008950F931F93CF93DF938C01EB0189E013
S113123090E00E94FC0AFC0111830083D483C383E1
S11312401086178216821582DF91CF911F910F911C
S11312500895DC011596ED91FC911697309779F07D
S11312600780F085E02D309769F021E030E02F5FB2
S11312703F4F0780F085E02D3097C9F706C080E026
S113128090E0089581E090E00895822F932F0895CF
S1131290E091E303F091E40385819681892BB9F011
S11312A00580F681E02D8091430190914401181648
S11312B019066CF480E090E00780F085E02D01963B
S11312C0209143013091440182179307ACF3F093CA
S11312D0E403E093E30308950F931F93CF93DF9305
S11312E0EC010E948408CE010E9429099093E60330
S11312F08093E5030D811E818091E5039091E603BF
S11313001816190664F5C0E0D0E060E070E0CE0184
S11313100E94590880914301909144018C179D07C4
S113132051F4F80181818F9380818F930E94FD078E
S11313300F900F9009C0F80181818F9380818F9362
S11313400E94ED070F900F90F801078110852196F8
S11313508091E5039091E603C817D907B4F2DF91B1
S1131360CF911F910F9108958F929F92AF92BF9248
S1131370CF92DF92EF92FF920F931F93CF93DF935D
S113138081E090E09093E2038093E10360E070E0F9
S113139084E793E00E941109EC01BC018EE793E01D
S11313A00E9411098C01BE0188E893E00E94110992
S11313B04C01BE0183E993E00E9411095C01B8016C
S11313C08CE993E00E9411097C01B8018AEA93E058
S11313D00E9411096C01D093E403C093E303CE018E
S11313E00E9429099093E6038093E503CE010E94AD
S11313F06C091E830D83F80190868782F401B08600
S1131400A782F801F682E582F701D086C78280912F
S1131410E3039091E403DF91CF911F910F91FF902B
S1131420EF90DF90CF90BF90AF909F908F900895F2
S11314301F93CF93DF9300D000D01F92CDB7DEB7B8
S11314400E949A0529833A834B835C836D83162F0C
S11314508091E3039091E4030E9429099093E603A9
S11314608093E503123051F480914301909144013B
S1131470019790934401809343010BC0133049F4C6
S1131480809143019091440101969093440180938B
S113149043012091E5033091E6038091430190914B
S11314A0440121503109281739074CF48091E50390
S11314B09091E603019790934401809343018091B6
S11314C0430190914401992324F410924401109211
S11314D043011130B1F40E944809E091E303F09113
S11314E0E403808191818C59934019F18081918129
S11314F08858934001F1808191818A5A934089F4FC
S11315001CC011110EC0E091E303F091E403838148
S11315109481892B31F0838194819093E4038093A7
S1131520E3038091E3039091E4030E946C0987E054
S113153005C080E003C086E001C085E00F900F90F5
S11315400F900F900F90DF91CF911F910895CF933B
S113155082E00E94FE0182E48A95F1F700C00E94B5
S1131560F801C82F83E00E94FE0182E48A95F1F716
S113157000C00E94F801982F8C2FCF91089586B354
S113158082FB882780F990E0089580EB87BB81E592
S11315908DB9C49A08958FB9779BFECF08951FB86B
S11315A0779BFECF8FB1089597FB072E16F4009416
S11315B007D077FD09D00E94E80A07FC05D03EF465
S11315C0909581959F4F0895709561957F4F0895EB
S11315D0AA1BBB1B51E107C0AA1FBB1FA617B70755
S11315E010F0A61BB70B881F991F5A95A9F7809571
S11315F09095BC01CD010895CF93DF93823091057E
S113160010F482E090E0E091E903F091EA0320E035
S113161030E0A0E0B0E0309739F1408151814817C3
S11316205907B8F04817590771F4828193811097CC
S113163029F013969C938E9312972CC09093EA03EF
S11316408093E90327C02115310531F04217530770
S113165018F0A901DB0101C0EF019A01BD01DF010E
S11316600280F381E02DD7CF21153105F9F0281B35
S1131670390B2430310580F48A819B816115710511
S113168021F0FB019383828304C09093EA03809347
S1131690E903FE01329644C0FE01E20FF31F819379
S11316A0919322503109398328833AC02091E7036A
S11316B03091E803232B41F420910201309103017E
S11316C03093E8032093E703209100013091010156
S11316D02115310541F42DB73EB7409104015091D5
S11316E00501241B350BE091E703F091E803E217B1
S11316F0F307A0F42E1B3F0B2817390778F0AC0131
S11317004E5F5F4F2417350748F04E0F5F1F50930D
S1131710E8034093E7038193919302C0E0E0F0E093
S1131720CF01DF91CF910895CF93DF93009709F410
S113173087C0FC01329713821282C091E903D091D1
S1131740EA03209781F420813181280F391F809189
S1131750E7039091E8038217930779F5F093E80380
S1131760E093E7036DC0DE0120E030E0AE17BF0771
S113177050F412964D915C9113979D0141155105BA
S113178009F1DA01F3CFB383A28340815181840F3D
S1131790951F8A179B0771F48D919C911197840F63
S11317A0951F02969183808312968D919C91139735
S11317B0938382832115310529F4F093EA03E0939E
S11317C0E9033EC0D9011396FC93EE9312974D9111
S11317D05D91A40FB51FEA17FB0779F4808191810D
S11317E0840F951F0296D90111969C938E93828142
S11317F0938113969C938E931297E0E0F0E08A8194
S11318009B81009719F0FE01EC01F9CFCE010296FD
S113181028813981820F931F2091E7033091E803D7
S11318202817390769F4309729F41092EA031092C3
S1131830E90302C013821282D093E803C093E70342
S1131840DF91CF9108950F931F93CF93DF93EC0112
S11318508B01009731F46115710519F480E090E073
S113186038C06EE070E081E090E00E94810EFC01DF
S11318700097A1F380E883830115110571F01387A4
S1131880028781E883838091EB039091EC03892B99
S113189021F4F093EC03E093EB032097C9F0D18794
S11318A0C0878381826083838091ED039091EE03EE
S11318B0892B71F4F093EE03E093ED038091EF0331
S11318C09091F003892B21F4F093F003E093EF035C
S11318D0CF01DF91CF911F910F910895A0E0B0E067
S11318E0E4E7FCE00C945A0FFE0135966191719186
S11318F0AF018091ED039091EE030E94AF0CE2E002
S11319000C94760F0F931F93CF93DF93E091ED0325
S1131910F091EE03238121FF1BC0EC0100E010E0F5
S113192089916091ED037091EE03DB011896ED91BE
S1131930FC911997882331F00995892B89F30FEFCE
S11319401FEFEECF8AE00995892B11F4C80102C07C
S11319508FEF9FEFDF91CF911F910F910895ACE02E
S1131960B0E0E5EBFCE00C944A0F7C016B018A01CA
S1131970FC0117821682838181FFBDC1CE010196CD
S11319804C01F7019381F60193FD859193FF8191B9
S11319906F01882309F4ABC1853239F493FD859135
S11319A093FF81916F01853229F4B70190E00E9481
S11319B0BA0EE7CF512C312C20E02032A0F48B3228
S11319C069F030F4803259F0833269F420612CC01C
S11319D08D3239F0803339F4216026C022602460CE
S11319E023C0286021C027FD27C030ED380F3A30CE
S11319F078F426FF06C0FAE05F9E300D1124532EC2
S1131A0013C08AE0389E300D1124332E20620CC09E
S1131A108E3221F426FD6BC1206406C08C3611F48D
S1131A20206802C0883641F4F60193FD859193FF46
S1131A3081916F018111C1CF982F9F7D955493306F
S1131A4028F40C5F1F4FFFE3F9830DC0833631F098
S1131A50833771F0833509F05BC022C0F8018081BF
S1131A6089830E5F1F4F44244394512C540115C0A5
S1131A703801F2E06F0E711CF801A080B18026FFDE
S1131A8003C0652D70E002C06FEF7FEFC5012C87A6
S1131A900E94AF0E2C0183012C852F77222E17C0B4
S1131AA03801F2E06F0E711CF801A080B18026FFAE
S1131AB003C0652D70E002C06FEF7FEFC5012C8776
S1131AC00E949D0E2C012C852068222E830123FC6C
S1131AD01BC0832D90E048165906B0F4B70180E28C
S1131AE090E00E94BA0E3A94F4CFF50127FC859158
S1131AF027FE81915F01B70190E00E94BA0E311078
S1131B003A94F1E04F1A51084114510471F7E5C0B9
S1131B10843611F0893639F5F80127FF07C0608152
S1131B207181828193810C5F1F4F08C06081718134
S1131B30882777FD8095982F0E5F1F4F2F76B22E42
S1131B4097FF09C090958095709561957F4F8F4F51
S1131B509F4F2068B22E2AE030E0A4010E94EC0ED0
S1131B60A82EA81844C0853729F42F7EB22E2AE067
S1131B7030E025C0F22FF97FBF2E8F36C1F018F464
S1131B80883579F0B4C0803719F0883721F0AFC0B8
S1131B902F2F2061B22EB4FE0DC08B2D8460B82E81
S1131BA009C024FF0AC09F2F9660B92E06C028E002
S1131BB030E005C020E130E002C020E132E0F8016D
S1131BC0B7FE07C060817181828193810C5F1F4FD2
S1131BD006C06081718180E090E00E5F1F4FA40118
S1131BE00E94EC0EA82EA818FB2DFF77BF2EB6FE80
S1131BF00BC02B2D2E7FA51450F4B4FE0AC0B2FCEA
S1131C0008C02B2D2E7E05C07A2C2B2D03C07A2CD8
S1131C1001C0752C24FF0DC0FE01EA0DF11D808169
S1131C20803311F4297E09C022FF06C07394739493
S1131C3004C0822F867809F0739423FD13C020FF1B
S1131C4006C05A2C731418F4530C5718732C7314BD
S1131C5068F4B70180E290E02C870E94BA0E739476
S1131C602C85F5CF731410F4371801C0312C24FFE0
S1131C7012C0B70180E390E02C870E94BA0E2C8535
S1131C8022FF17C021FF03C088E590E002C088E767
S1131C9090E0B7010CC0822F867859F021FD02C074
S1131CA080E201C08BE227FD8DE2B70190E00E9443
S1131CB0BA0EA51438F4B70180E390E00E94BA0E7E
S1131CC05A94F7CFAA94F401EA0DF11D8081B7016B
S1131CD090E00E94BA0EA110F5CF332009F451CE42
S1131CE0B70180E290E00E94BA0E3A94F6CFF70171
S1131CF08681978102C08FEF9FEF2C96E2E10C94CE
S1131D00660F0F931F93CF93DF93869F8001879F66
S1131D10100D969F100D1124C8010E94FC0AEC01BD
S1131D20009729F0A80160E070E00E94A80ECE019F
S1131D30DF91CF911F910F910895FC01059061509F
S1131D4070400110D8F7809590958E0F9F1F0895CD
S1131D50DC0101C06D9341505040E0F70895FC014F
S1131D606150704001900110D8F7809590958E0FC6
S1131D709F1F08950F931F93CF93DF93182F092F5D
S1131D80EB018B8181FD03C08FEF9FEF20C082FFA9
S1131D9010C04E815F812C813D81421753077CF432
S1131DA0E881F9819F012F5F3F4F39832883108396
S1131DB006C0E885F985812F0995892B29F72E819D
S1131DC03F812F5F3F4F3F832E83812F902FDF91E1
S1131DD0CF911F910F910895FA01AA27283051F14C
S1131DE0203181F1E8946F936E7F6E5F7F4F8F4F48
S1131DF09F4FAF4FB1E03ED0B4E03CD0670F781FA7
S1131E00891F9A1FA11D680F791F8A1F911DA11D8B
S1131E106A0F711D811D911DA11D20D009F46894C4
S1131E203F912AE0269F11243019305D3193DEF66C
S1131E30CF010895462F4770405D4193B3E00FD022
S1131E40C9F7F6CF462F4F70405D4A3318F0495D0D
S1131E5031FD4052419302D0A9F7EACFB4E0A695F0
S1131E609795879577956795BA95C9F70097610512
S1131E70710508959B01AC010A2E06945795479568
S1131E8037952795BA95C9F7620F731F841F951F5D
S1131E90A01D08952F923F924F925F926F927F926E
S1131EA08F929F92AF92BF92CF92DF92EF92FF9266
S1131EB00F931F93CF93DF93CDB7DEB7CA1BDB0B12
S1131EC00FB6F894DEBF0FBECDBF09942A883988B7
S1131ED048885F846E847D848C849B84AA84B984BE
S1131EE0C884DF80EE80FD800C811B81AA81B981CA
S1131EF0CE0FD11D0FB6F894DEBF0FBECDBFED01DE
S1091F000895F894FFCFE0
S1131F060000F103200000146161613030626262F6
S1131F1630306363633030636363303063636330EC
S1131F2630080000120010000000020000000099B2
S1131F360700000000000000020000000052070035
S1131F4600000002004E6F742076616C69642063A1
S1131F5668616E6E656C005374617274696E672095
S1131F665352414D20746573742E2E2E0D005772F4
S1131F76697465207068617365206572726F723A60
S1131F86206578745F72616D5B2534645D203D2045
S1131F9625303258202873686F756C64206265207A
S1131FA625303258290D0A005265747269657661C6
S1131FB66C207068617365206572726F723A206571
S1131FC678745F72616D5B2534645D203D20253035
S1131FD63258202873686F756C642062652025303A
S1131FE63258290D0A005352414D207465737420EA
S1131FF6636F6D706C657465642077697468200A14
S1132006253464206572726F727320696E2077724C
S113201669746520706861736520616E64200A25A1
S11320263464206572726F727320696E20726574EF
S113203672696576616C2070686173650D0A0A00C1
S113204652783020256420205278312020256420BF
S11320560A0D00736C69646572203A202564200DAC
S11320660A00204A6F79737469636B2078203D20D7
S113207625642C204A6F79737469636B2079203D3B
S1132086202564200D0A004E4557205354415254CE
S113209621212121004D43503235313520697320E9
S11320A64E4F5420696E20436F6E66696775726180
S11320B674696F6E206D6F64652061667465722045
S11320C67265736574212049747320636F6E666943
S11320D6672062697473206172652025780A004D51
S11320E6435032353135206973204E4F5420696E82
S11320F620636F7272656374206D6F646520616618
S11321067465722072657365742120497473206343
S11321166F6E666967206269747320617265202533
S1132126780A000A2100454E454D59504F494E54F0
S1132136532020202025642020004D5920504F494B
S11321464E5453202020202564200D0A00596F7513
S1132156722073636F7265206973203A0047414D9C
S113216645204F564552004849474853434F524528
S1132176533A20004D61696E204D656E7500506CB2
S113218661792047616D65004869676873636F729A
S113219665730053657474696E67730053696E677B
S11321A6656C20506C61796572004D756C7469209C
S10B21B6506C617965720000B0
S9030000FC
