:100000000C94B4010C94D1010C94D3010C94D10143
:100010000C94D1010C94D1010C94D1010C94D10118
:100020000C94D1010C94D1010C94D1010C94D10108
:100030000C94D1010C94D1010C94D1010C94D101F8
:100040000C94D1010C94D1010C94D1010C94D101E8
:100050000C94D1010C94D1010C94D1010C94D101D8
:100060000C94D1010C94D1010C94D1010C94D101C8
:10007000000000000000000000065F5F06000000B6
:100080000007070007070000147F7F147F7F14001C
:10009000242E6B6B3A120000466630180C66620024
:1000A000307A4F5D377A48000407030000000000F3
:1000B000001C3E63410000000041633E1C00000044
:1000C000082A3E1C1C3E2A0808083E3E080800007C
:1000D00000A0E06000000000080808080808000010
:1000E00000006060000000006030180C0603010092
:1000F0003E7F594D7F3E000042427F7F40400000DE
:10010000627359496F660000226349497F360000D7
:10011000181C16137F7F1000276745457D390000A6
:100120003C7E4B4979300000036371190F070000D2
:10013000367F49497F360000064F49693F1E00005F
:1001400000006C6C0000000000A0EC6C00000000DF
:10015000081C366341000000141414141414000029
:10016000004163361C080000020351590F060000CD
:100170003E7F415D5D1F1E007C7E13137E7C000070
:10018000417F7F49497F36001C3E63414163220025
:10019000417F7F41637F1C00417F7F495D41630058
:1001A000417F7F491D0103001C3E63415173720072
:1001B0007F7F08087F7F000000417F7F41000000B3
:1001C000307040417F3F0100417F7F081C77630012
:1001D000417F7F41406070007F7F060C067F7F007B
:1001E0007F7F060C187F7F001C3E6341633E1C002E
:1001F000417F7F49090F06001E3F21717F5E00008D
:10020000417F7F19396F460026674D597B320000C8
:1002100003417F7F410300007F7F40407F7F0000DC
:100220001F3F60603F1F00007F7F3018307F7F00DE
:1002300063771C081C776300074F78784F0700002E
:100240006773594D47637100007F7F414100000093
:100250000103060C183060000041417F7F00000060
:10026000080C0603060C0800808080808080808057
:100270000000030704000000207454543C78400040
:10028000413F7F44447C3800387C44446C28000063
:10029000307848493F7F4000387C54545C18000057
:1002A000487E7F490302000098BCA4A4F87C0400A7
:1002B000417F7F08047C780000447D7D4000000081
:1002C00040C484FD7D000000417F7F10386C4400F5
:1002D00000417F7F400000007C7C0C180C7C780083
:1002E0007C7C04047C780000387C44447C3800002A
:1002F00084FCF8A4243C1800183C24A4F8FC8400D6
:10030000447C78441C180000485C54547424000059
:1003100000043E7F442400003C7C40403C7C400084
:100320001C3C60603C1C00003C7C6030607C3C00FD
:10033000446C3810386C44009CBCA0A0FC7C0000CD
:100340004C64745C4C64000008083E774141000036
:1003500000000077770000004141773E0808000068
:10036000020301030203010011241FBECFEFD4E0FA
:10037000DEBFCDBF12E0A0E0B1E0EAEDF9E102C0DE
:1003800005900D92A237B107D9F722E0A2E7B2E0BB
:1003900001C01D92A738B207E1F70E94C2020C9477
:1003A000EB0C0C9400001F920F920FB60F921124C9
:1003B0008F93EF93FF93E0910A01F0910B018081FD
:1003C00080937202FF91EF918F910F900FBE0F906B
:1003D0001F9018958B98939AF89485B7886085BF7D
:1003E00085B78B7F85BF8BB780688BBF7894089566
:1003F000E0910A01F0910B01808108958130A9F00C
:1004000090F0823019F0833019F004C086E00EC0FD
:1004100087E00CC082E391E09F938F930E9475095F
:100420000F900F90089584E001C085E0E0910A01EB
:10043000F0910B01808308955D9BFECF8CB90895E8
:100440005F9BFECF8CB1089525B7206825BF20B7EC
:10045000206220BF90BD89B988E18AB98EE880BD4D
:1004600060E272E08CE192E00E942A090895CF9246
:10047000DF92EF92FF920F931F93CF93DF9385B795
:10048000806885BF80B7806280BF84E491E00E946D
:1004900089090E941A096C010E941F09C0E0D0E07E
:1004A00000E010E00F2EFBE5EF2EF1E0FF2EF02D27
:1004B0000E941A09FE01F85E808320812817A9F0A6
:1004C00099279F938F931F922F93DF93CF93FF9240
:1004D000EF920E9475090F5F1F4F8DB79EB7089668
:1004E0000FB6F8949EBF0FBE8DBF2196C11598E040
:1004F000D907F1F6C6010E941F09C0E0D0E0E12C47
:10050000F12C0F2EF5E9CF2EF1E0DF2EF02D0E9419
:100510001A09FE01F85E20812817B1F099279F93F0
:100520008F931F922F93DF93CF93DF92CF920E94EE
:1005300075098FEFE81AF80A8DB79EB708960FB6BF
:10054000F8949EBF0FBE8DBF2196C11598E0D907C4
:10055000F1F6FF92EF921F930F9383ED91E09F933B
:100560008F930E9475090F900F900F900F900F902E
:100570000F90DF91CF911F910F91FF90EF90DF903F
:10058000CF9008958FE190E00E9424022FEF8FEF2B
:100590009EE0215080409040E1F700C000000E94A2
:1005A000EA010E9437020E94F7020E9456050E944B
:1005B00052060FEFCDE2D2E007BB18B380E00E94F5
:1005C0007C040E94CA061F921F93DF93CF930E9460
:1005D00075099FEF2FE781E0915020408040E1F7BF
:1005E00000C000C00F900F900F900F90E5CF80E0FB
:1005F0000E94FE0182E48A95F1F700C00E94F80192
:100600008093730281E00E94FE0182E48A95F1F7F3
:1006100000C00E94F8018093740208950F931F9305
:10062000CF93DF9300D000D01F92CDB7DEB780E02C
:100630000E94FE0182E48A95F1F700C00E94F80151
:10064000209173022817A0F430E09927AC01421BD7
:10065000530B64E6649FC001659F900D11246FEFFA
:1006600070E0621B730B0E947D07162F072F15C0C9
:10067000821788F4622F70E099279C01261B370BA4
:1006800044E6429FC001439F900D11240E947D07C4
:10069000162F072F02C010E000E081E00E94FE014B
:1006A00082E48A95F1F700C00E94F801409174023B
:1006B000481798F450E09927FC01E41BF50B24E659
:1006C0002E9FC0012F9F900D1124EFEFF0E0BF018E
:1006D000641B750B0E947D0713C0841778F450E0EB
:1006E00099279C01241B350B64E6629FC001639F20
:1006F000900D1124BA010E947D0702C060E070E0F5
:10070000212F302F462F572F6D8170E080E090E031
:100710000F900F900F900F900F90DF91CF911F913E
:100720000F910895CF93DF93CDB7DEB72A970FB619
:10073000F894DEBF0FBECDBF0E940E032E833F8311
:10074000488759872E813F81488559852E3C8FEFF8
:10075000380724F0233331051CF403C060E001C0E6
:1007600061E04E3C8FEF580724F0433351051CF4F1
:1007700003C063E001C062E03A8329835C834B835A
:100780003A815C8170E080E090E02A960FB6F894A0
:10079000DEBF0FBECDBFDF91CF910895809177026C
:1007A0009091780280389105BCF0E7E7F2E0808113
:1007B00091818058910991838083E5E7F2E08081FF
:1007C000918101969183808380819181089724F0A3
:1007D00010927602109275020895EF92FF920F9395
:1007E0001F93CF93DF93805220910E0130910F0120
:1007F0001216130684F5E82EF12CC701880F991FF5
:10080000880F991F880F991FC0E0D0E09C012059E4
:100810003F4F790107E712E0F701EC0FFD1F8591CB
:100820009491E0911001F09111018083F8012081F1
:10083000318180910E0190910F01820F931F91835E
:1008400080830E94CE03219680910E0190910F012A
:10085000C817D9070CF380E090E0DF91CF911F918A
:100860000F91FF90EF900895EF92FF920F931F93D7
:10087000CF93DF93805220910E0130910F01121619
:1008800013068CF5E82EF12CC701880F991F880FED
:10089000991F880F991FC0E0D0E09C0120593F4F5D
:1008A000790107E712E0F701EC0FFD1F85919491A4
:1008B0008095E0911001F09111018083F801208171
:1008C000318180910E0190910F01820F931F9183CE
:1008D00080830E94CE03219680910E0190910F019A
:1008E000C817D90704F380E090E0DF91CF911F9102
:1008F0000F91FF90EF900895282F30E030930D0175
:1009000020930C01813061F028F0823079F083303F
:1009100099F0089584E090E090930F0180930E0188
:1009200085E090E090930F0180930E0185E090E0C8
:1009300090930F0180930E0188E090E090930F0157
:1009400080930E010895E0911201F091130190E25D
:100950009083E0911201F091130180830895CF9369
:10096000DF93CDB7DEB7FE01359661917191AF018E
:1009700082E291E00E94B609DF91CF910895CF9372
:10098000DF93CDB7DEB7FE01359661917191AF016E
:1009900084E191E00E94B609DF91CF910895CF9351
:1009A000DF93EC018830910580F490937602809378
:1009B000750282E00E94A304C055E0911201F091FB
:1009C0001301C08380E00E94A304DF91CF910895BA
:1009D000CF93DF93EC018038910550F59093780226
:1009E0008093770282E00E94A304CE018F709078FA
:1009F000992324F40197806F9F6F0196E091120173
:100A0000F09113018083CE01DD230CF40F969595B0
:100A10008795959587959595879595958795805F09
:100A2000E0911201F0911301808380E00E94A30401
:100A3000DF91CF910895CF93DF93EB010E94CF0414
:100A4000CE010E94E804DF91CF91089560E070E04C
:100A500080E090E00E941B050895CF93DF93EC01A6
:100A600060E070E00E941B0520E830E0E09110019A
:100A7000F091110110822150310921153105B1F792
:100A8000CE010E94CF04DF91CF910895CF93DF93E1
:100A9000C0E0D0E0CE010E942D052196C830D105DE
:100AA000C9F70E942605DF91CF910895E0911201C8
:100AB000F09113018EEA8083E0911201F09113010D
:100AC00081EA8083E0911201F09113018AED808325
:100AD000E0911201F091130182E18083E091120113
:100AE000F091130188EC8083E0911201F0911301E1
:100AF00088EA8083E0911201F09113018FE38083F3
:100B0000E0911201F091130185ED8083E0911201D3
:100B1000F091130180E88083E0911201F0911301BC
:100B200081E88083E0911201F091130180E58083D8
:100B3000E0911201F091130189ED8083E09112019F
:100B4000F091130181E2808380E00E94A304E09190
:100B50001201F09113018BED8083E0911201F0916D
:100B6000130180E38083E0911201F09113018DEA7B
:100B70008083E0911201F09113011082E091120143
:100B8000F091130184EA8083E0911201F091130146
:100B900086EA8083E0911201F09113018FEA80834D
:100BA0000E94460508950F931F93CF93DF938C0106
:100BB000EB0189E090E00E94A507FC01118300830E
:100BC000D483C3831086178216821582DF91CF915A
:100BD0001F910F910895DC011596ED91FC911697E8
:100BE000309779F00780F085E02D309769F021E0AB
:100BF00030E02F5F3F4F0780F085E02D3097C9F739
:100C000006C080E090E0089581E090E00895822F92
:100C1000932F08950F931F93CF93DF93EC010E94BE
:100C20004605CE010E94EB0590937C0280937B02E7
:100C30000D811E8180917B0290917C02181619060D
:100C400064F5C0E0D0E060E070E0CE010E941B05DA
:100C500080913001909131018C179D0751F4F8017A
:100C600081818F9380818F930E94BF040F900F909A
:100C700009C0F80181818F9380818F930E94AF0416
:100C80000F900F90F80107811085219680917B02CB
:100C900090917C02C817D907B4F2DF91CF911F91D0
:100CA0000F9108954F925F926F927F928F929F92D1
:100CB000AF92BF92CF92DF92EF92FF920F931F936A
:100CC000CF93DF9360E070E085E392E00E94D3056C
:100CD000EC01BC018FE392E00E94D3057C01BE01D0
:100CE00089E492E00E94D3058C01BE0184E592E084
:100CF0000E94D3054C01BC0189E592E00E94D30516
:100D00006C01BC018FE592E00E94D3052C01B70174
:100D100085E692E00E94D3055C01B8018BE692E083
:100D20000E94D3053C01D0937A02C0937902CE0190
:100D30000E94EB0590937C0280937B02CE010E947F
:100D40000A06FE82ED82F70110870783F80190867C
:100D50008782F401D682C582F701B682A582F801A6
:100D600076826582F6015682458280917902909161
:100D70007A02DF91CF911F910F91FF90EF90DF905A
:100D8000CF90BF90AF909F908F907F906F905F902B
:100D90004F900895EF92FF920F931F93CF93DF939D
:100DA00000D000D01F92CDB7DEB70E949203F62E7E
:100DB00029833A834B835C836D83E62E009179020D
:100DC00010917A02C8010E94EB0590937C028093F7
:100DD0007B0282E0F8120AC08091300190913101CB
:100DE000019790933101809330010CC0E3E0FE1233
:100DF00009C08091300190913101019690933101A9
:100E00008093300120917B0230917C0280913001EF
:100E10009091310121503109281739074CF4809104
:100E20007B0290917C020197909331018093300175
:100E30008091300190913101992324F41092310175
:100E400010923001F1E0EF122DC0F80185819681FA
:100E5000892B31F08581968190937A028093790273
:100E6000809130019091310118161906B4F4E09187
:100E70007902F0917A0220E030E00780F085E02DE1
:100E80002F5F3F4F409130015091310124173507BA
:100E9000A4F3F0937A02E093790210923101109258
:100EA000300110C0E1100EC0E0917902F0917A0299
:100EB00083819481892B31F08381948190937A028C
:100EC000809379020091790210917A02C8010E9400
:100ED000EB0590937C0280937B02C8010E940A0676
:100EE0008F2D0F900F900F900F900F90DF91CF915B
:100EF0001F910F91FF90EF90089597FB072E16F426
:100F0000009407D077FD09D00E94910707FC05D017
:100F10003EF4909581959F4F0895709561957F4F10
:100F20000895AA1BBB1B51E107C0AA1FBB1FA61730
:100F3000B70710F0A61BB70B881F991F5A95A9F782
:100F400080959095BC01CD010895CF93DF938230B9
:100F5000910510F482E090E0E0917F02F091800230
:100F600020E030E0A0E0B0E0309739F140815181DD
:100F700048175907B8F04817590771F482819381CF
:100F8000109729F013969C938E9312972CC09093F0
:100F9000800280937F0227C02115310531F042176E
:100FA000530718F0A901DB0101C0EF019A01BD014F
:100FB000DF010280F381E02DD7CF21153105F9F053
:100FC000281B390B2430310580F48A819B816115FF
:100FD000710521F0FB019383828304C0909380020A
:100FE00080937F02FE01329644C0FE01E20FF31FA0
:100FF0008193919322503109398328833AC02091FB
:101000007D0230917E02232B41F420910201309128
:10101000030130937E0220937D02209100013091E4
:1010200001012115310541F42DB73EB7409104016E
:1010300050910501241B350BE0917D02F0917E0259
:10104000E217F307A0F42E1B3F0B2817390778F09F
:10105000AC014E5F5F4F2417350748F04E0F5F1FFE
:1010600050937E0240937D028193919302C0E0E011
:10107000F0E0CF01DF91CF910895CF93DF930097F8
:1010800009F487C0FC01329713821282C0917F025B
:10109000D0918002209781F420813181280F391F5F
:1010A00080917D0290917E028217930779F5F093EB
:1010B0007E02E0937D026DC0DE0120E030E0AE17DD
:1010C000BF0750F412964D915C9113979D01411505
:1010D000510509F1DA01F3CFB383A2834081518135
:1010E000840F951F8A179B0771F48D919C9111971E
:1010F000840F951F02969183808312968D919C9107
:101100001397938382832115310529F4F09380028C
:10111000E0937F023EC0D9011396FC93EE931297A1
:101120004D915D91A40FB51FEA17FB0779F48081FB
:101130009181840F951F0296D90111969C938E93ED
:101140008281938113969C938E931297E0E0F0E056
:101150008A819B81009719F0FE01EC01F9CFCE0145
:10116000029628813981820F931F20917D02309150
:101170007E022817390769F4309729F4109280020B
:1011800010927F0202C013821282D0937E02C0931B
:101190007D02DF91CF9108958F929F92AF92BF927F
:1011A000CF92DF92EF92FF92CF93DF93EC016881B1
:1011B00079818A819B81611571058105910521F4F1
:1011C00064E279ED8BE597E02DE133EF41E050E00B
:1011D0000E94510C49015A019B01AC01A7EAB1E4FC
:1011E0000E94700C6B017C01ACEEB4EFA501940180
:1011F0000E947E0CC60ED71EE81EF91EF7FE06C022
:1012000081E0C81AD108E10880E8F80AC882D982CA
:10121000EA82FB82C6019F77DF91CF91FF90EF902A
:10122000DF90CF90BF90AF909F908F9008950E94D5
:10123000CC08089586E091E00E94CC080895A0E0D3
:10124000B0E08093060190930701A0930801B0934A
:10125000090108950F931F93CF93DF93EC018B0146
:10126000009731F46115710519F480E090E038C001
:101270006EE070E081E090E00E94880BFC01009736
:10128000A1F380E883830115110571F013870287AC
:1012900081E883838091810290918202892B21F4DD
:1012A000F0938202E09381022097C9F0D187C08732
:1012B0008381826083838091830290918402892B51
:1012C00071F4F0938402E0938302809185029091FF
:1012D0008602892B21F4F0938602E0938502CF01E8
:1012E000DF91CF911F910F910895A0E0B0E0EBE75F
:1012F000F9E00C94930CFE01359661917191AF0168
:1013000080918302909184020E94B609E2E00C94DD
:10131000AF0C0F931F93CF93DF93E0918302F09173
:101320008402238121FF1BC0EC0100E010E08991C1
:101330006091830270918402DB011896ED91FC911B
:101340001997882331F00995892B89F30FEF1FEF47
:10135000EECF8AE00995892B11F4C80102C08FEF06
:101360009FEFDF91CF911F910F910895ACE0B0E016
:10137000ECEBF9E00C94830C7C016B018A01FC011D
:1013800017821682838181FFBDC1CE0101964C0177
:10139000F7019381F60193FD859193FF81916F0190
:1013A000882309F4ABC1853239F493FD859193FF0D
:1013B00081916F01853229F4B70190E00E94C10B41
:1013C000E7CF512C312C20E02032A0F48B3269F091
:1013D00030F4803259F0833269F420612CC08D32B0
:1013E00039F0803339F4216026C02260246023C0A4
:1013F000286021C027FD27C030ED380F3A3078F43F
:1014000026FF06C0FAE05F9E300D1124532E13C054
:101410008AE0389E300D1124332E20620CC08E32AB
:1014200021F426FD6BC1206406C08C3611F42068BF
:1014300002C0883641F4F60193FD859193FF8191B6
:101440006F018111C1CF982F9F7D9554933028F45F
:101450000C5F1F4FFFE3F9830DC0833631F08337F4
:1014600071F0833509F05BC022C0F8018081898367
:101470000E5F1F4F44244394512C540115C0380172
:10148000F2E06F0E711CF801A080B18026FF03C04E
:10149000652D70E002C06FEF7FEFC5012C870E94C1
:1014A000B60B2C0183012C852F77222E17C0380113
:1014B000F2E06F0E711CF801A080B18026FF03C01E
:1014C000652D70E002C06FEF7FEFC5012C870E9491
:1014D000A40B2C012C852068222E830123FC1BC029
:1014E000832D90E048165906B0F4B70180E290E0F1
:1014F0000E94C10B3A94F4CFF50127FC859127FE99
:1015000081915F01B70190E00E94C10B31103A94C4
:10151000F1E04F1A51084114510471F7E5C08436C7
:1015200011F0893639F5F80127FF07C06081718114
:10153000828193810C5F1F4F08C060817181882771
:1015400077FD8095982F0E5F1F4F2F76B22E97FF55
:1015500009C090958095709561957F4F8F4F9F4FF3
:101560002068B22E2AE030E0A4010E94F30BA82EDE
:10157000A81844C0853729F42F7EB22E2AE030E027
:1015800025C0F22FF97FBF2E8F36C1F018F48835B1
:1015900079F0B4C0803719F0883721F0AFC02F2F11
:1015A0002061B22EB4FE0DC08B2D8460B82E09C010
:1015B00024FF0AC09F2F9660B92E06C028E030E0B5
:1015C00005C020E130E002C020E132E0F801B7FEC2
:1015D00007C060817181828193810C5F1F4F06C0BB
:1015E0006081718180E090E00E5F1F4FA4010E9436
:1015F000F30BA82EA818FB2DFF77BF2EB6FE0BC04D
:101600002B2D2E7FA51450F4B4FE0AC0B2FC08C0E6
:101610002B2D2E7E05C07A2C2B2D03C07A2C01C0D9
:10162000752C24FF0DC0FE01EA0DF11D8081803371
:1016300011F4297E09C022FF06C07394739404C07C
:10164000822F867809F0739423FD13C020FF06C013
:101650005A2C731418F4530C5718732C731468F421
:10166000B70180E290E02C870E94C10B73942C8517
:10167000F5CF731410F4371801C0312C24FF12C0B9
:10168000B70180E390E02C870E94C10B2C8522FFDC
:1016900017C021FF03C088E590E002C088E790E012
:1016A000B7010CC0822F867859F021FD02C080E27C
:1016B00001C08BE227FD8DE2B70190E00E94C10BD3
:1016C000A51438F4B70180E390E00E94C10B5A944E
:1016D000F7CFAA94F401EA0DF11D8081B70190E0E3
:1016E0000E94C10BA110F5CF332009F451CEB701F0
:1016F00080E290E00E94C10B3A94F6CFF701868118
:10170000978102C08FEF9FEF2C96E2E10C949F0C23
:101710000F931F93CF93DF93869F8001879F100DB8
:10172000969F100D1124C8010E94A507EC01009797
:1017300029F0A80160E070E00E94AF0BCE01DF91BC
:10174000CF911F910F910895FC0105906150704059
:101750000110D8F7809590958E0F9F1F0895DC019A
:1017600001C06D9341505040E0F70895FC01615075
:10177000704001900110D8F7809590958E0F9F1FB3
:1017800008950F931F93CF93DF93182F092FEB0129
:101790008B8181FD03C08FEF9FEF20C082FF10C0BF
:1017A0004E815F812C813D81421753077CF4E88193
:1017B000F9819F012F5F3F4F39832883108306C033
:1017C000E885F985812F0995892B29F72E813F819D
:1017D0002F5F3F4F3F832E83812F902FDF91CF913B
:1017E0001F910F910895FA01AA27283051F1203155
:1017F00081F1E8946F936E7F6E5F7F4F8F4F9F4FA5
:10180000AF4FB1E03ED0B4E03CD0670F781F891FE6
:101810009A1FA11D680F791F8A1F911DA11D6A0FB4
:10182000711D811D911DA11D20D009F468943F9167
:101830002AE0269F11243019305D3193DEF6CF0166
:101840000895462F4770405D4193B3E00FD0C9F72C
:10185000F6CF462F4F70405D4A3318F0495D31FD99
:101860004052419302D0A9F7EACFB4E0A6959795EC
:10187000879577956795BA95C9F7009761057105C2
:1018800008959B01AC010A2E06945795479537950C
:101890002795BA95C9F7620F731F841F951FA01D66
:1018A0000895052E97FB1EF400940E94680C57FDC6
:1018B00007D00E94BA0C07FC03D04EF40C94680CBD
:1018C00050954095309521953F4F4F4F5F4F08956C
:1018D00090958095709561957F4F8F4F9F4F08959C
:1018E0000E94DC0CA59F900DB49F900DA49F800DCD
:1018F000911D11240895B7FF0C94700C0E94700C78
:10190000821B930B08952F923F924F925F926F929A
:101910007F928F929F92AF92BF92CF92DF92EF927F
:10192000FF920F931F93CF93DF93CDB7DEB7CA1B00
:10193000DB0B0FB6F894DEBF0FBECDBF09942A882B
:10194000398848885F846E847D848C849B84AA84D3
:10195000B984C884DF80EE80FD800C811B81AA8160
:10196000B981CE0FD11D0FB6F894DEBF0FBECDBF2B
:10197000ED010895A1E21A2EAA1BBB1BFD010DC0AB
:10198000AA1FBB1FEE1FFF1FA217B307E407F5072F
:1019900020F0A21BB30BE40BF50B661F771F881F0B
:1019A000991F1A9469F760957095809590959B01A1
:1019B000AC01BD01CF010895A29FB001B39FC0014A
:1019C000A39F700D811D1124911DB29F700D811D6B
:0A19D0001124911D0895F894FFCF33
:1019DA000000870220000100000000140300080034
:1019EA000012001000000002000000003404000091
:1019FA0000000000000200000000ED0300000000EB
:101A0A0002004E6F742076616C6964206368616EAF
:101A1A006E656C005374617274696E67205352412B
:101A2A004D20746573742E2E2E0D005772697465DD
:101A3A00207068617365206572726F723A206578EA
:101A4A00745F72616D5B2534645D203D2025303200
:101A5A0058202873686F756C6420626520253032BF
:101A6A0058290D0A0052657472696576616C207096
:101A7A0068617365206572726F723A206578745F67
:101A8A0072616D5B2534645D203D2025303258201B
:101A9A002873686F756C6420626520253032582976
:101AAA000D0A005352414D207465737420636F6DA3
:101ABA00706C657465642077697468200A253464DB
:101ACA00206572726F727320696E2077726974650D
:101ADA0020706861736520616E64200A2534642071
:101AEA006572726F727320696E20726574726965AD
:101AFA0076616C2070686173650D0A0A002564209E
:101B0A00200D200A004D61696E204D656E750050EA
:101B1A006C61792047616D65004869676873636F16
:101B2A00726573005465737400546573743100549C
:101B3A006573743200546573745000546573744845
:021B4A00000099
:00000001FF
