:100000000C94B4010C9465020C94D3010C94D101AE
:100010000C94D1010C94D1010C94D1010C94D10118
:100020000C94D1010C94D1010C94D1010C94D10108
:100030000C94D1010C94D1010C94D1010C94D101F8
:100040000C94D1010C94D1010C94D1010C94D101E8
:100050000C94D1010C94D1010C94D1010C94D101D8
:100060000C94D1010C94D1010C94D1010C94D101C8
:10007000000000000000000000065F5F06000000B6
:100080000007070007070000147F7F147F7F14001C
:10009000242E6B6B3A120000466630180C66620024
:1000A000307A4F5D377A48000407030000000000F3
:1000B000001C3E63410000000041633E1C00000044
:1000C000082A3E1C1C3E2A0808083E3E080800007C
:1000D00000A0E06000000000080808080808000010
:1000E00000006060000000006030180C0603010092
:1000F0003E7F594D7F3E000042427F7F40400000DE
:10010000627359496F660000226349497F360000D7
:10011000181C16137F7F1000276745457D390000A6
:100120003C7E4B4979300000036371190F070000D2
:10013000367F49497F360000064F49693F1E00005F
:1001400000006C6C0000000000A0EC6C00000000DF
:10015000081C366341000000141414141414000029
:10016000004163361C080000020351590F060000CD
:100170003E7F415D5D1F1E007C7E13137E7C000070
:10018000417F7F49497F36001C3E63414163220025
:10019000417F7F41637F1C00417F7F495D41630058
:1001A000417F7F491D0103001C3E63415173720072
:1001B0007F7F08087F7F000000417F7F41000000B3
:1001C000307040417F3F0100417F7F081C77630012
:1001D000417F7F41406070007F7F060C067F7F007B
:1001E0007F7F060C187F7F001C3E6341633E1C002E
:1001F000417F7F49090F06001E3F21717F5E00008D
:10020000417F7F19396F460026674D597B320000C8
:1002100003417F7F410300007F7F40407F7F0000DC
:100220001F3F60603F1F00007F7F3018307F7F00DE
:1002300063771C081C776300074F78784F0700002E
:100240006773594D47637100007F7F414100000093
:100250000103060C183060000041417F7F00000060
:10026000080C0603060C0800808080808080808057
:100270000000030704000000207454543C78400040
:10028000413F7F44447C3800387C44446C28000063
:10029000307848493F7F4000387C54545C18000057
:1002A000487E7F490302000098BCA4A4F87C0400A7
:1002B000417F7F08047C780000447D7D4000000081
:1002C00040C484FD7D000000417F7F10386C4400F5
:1002D00000417F7F400000007C7C0C180C7C780083
:1002E0007C7C04047C780000387C44447C3800002A
:1002F00084FCF8A4243C1800183C24A4F8FC8400D6
:10030000447C78441C180000485C54547424000059
:1003100000043E7F442400003C7C40403C7C400084
:100320001C3C60603C1C00003C7C6030607C3C00FD
:10033000446C3810386C44009CBCA0A0FC7C0000CD
:100340004C64745C4C64000008083E774141000036
:1003500000000077770000004141773E0808000068
:10036000020301030203010011241FBECFEFD4E0FA
:10037000DEBFCDBF13E0A0E0B1E0E2E2FAE102C0EF
:1003800005900D92AA34B107D9F723E0AAE4B3E0AF
:1003900001C01D92A336B207E1F70E9437020C9408
:1003A0000F0D0C9400001F920F920FB60F921124A4
:1003B0008F93EF93FF93E0910601F0910701808105
:1003C00080934E03FF91EF918F910F900FBE0F908E
:1003D0001F9018958B98939AF89485B7886085BF7D
:1003E00085B78B7F85BF8BB780688BBF7894089566
:1003F000E0910601F0910701808108958130A9F014
:1004000090F0823019F0833019F004C086E00EC0FD
:1004100087E00CC08CE291E09F938F930E94FC09CF
:100420000F900F90089584E001C085E0E0910601EF
:10043000F0910701808308955D9BFECF8CB90895EC
:100440005F9BFECF8CB1089525B7206825BF20B7EC
:10045000206220BF90BD89B988E18AB98EE880BD4D
:1004600060E272E08CE192E00E94B10908958FE1B0
:1004700090E00E9424022FEF8FEF9EE021508040F9
:100480009040E1F700C000000E94EA010E94B6031C
:100490000E940E060E940A0780E00E9479028EE602
:1004A00092E09F938F930E94FC090F900F900E94FF
:1004B00082070E948E032FEF8FEF92E02150804041
:1004C0009040E1F700C000C0F2CF1F920F920FB62C
:1004D0000F9211248F939F9381E090E090934D03AE
:1004E00080934C039F918F910F900FBE0F901F90A0
:1004F00018950E944B0363E08BE20E943203F8944C
:1005000085B7826085BF85B78E7F85BF8BB78064D6
:100510008BBF78940895CF93DF93EC018CE20E9417
:1005200020039E012E5F3F4F422F440F8423482F0C
:1005300050E0220F331F81E090E04217530711F47F
:1005400080E090E0DF91CF910895EF92FF920F93BA
:100550001F93CF93DF93EC0111C020914A03309198
:100560004B032F5F3F4F30934B0320934A032330BD
:10057000310524F010924B0310924A0380914A03F4
:1005800090914B030E948B02892B39F388819981CA
:10059000282F2770F22EBC01769567957695679582
:1005A000769567950AE413E0F80180818295807F53
:1005B0008F5C0E9432036F2D6295660F607EF8019A
:1005C00080818295807F8E5C0E943203EA80F801F0
:1005D00080818295807F6E2D8B5C0E9432032396F2
:1005E000EE2081F0F12C6991F80180812F2DF0E14E
:1005F0008F9F200D1124822F8A5C0E943203F39476
:10060000FE10F1CF80914A038F570E948303DF9140
:10061000CF911F910F91FF90EF900895C498089586
:10062000C49A08950E940E0380EC0E9459080E940B
:10063000100383EC99E00197F1F700C000000895E2
:10064000CF93C82F0E940E0383E00E9459088C2F7D
:100650000E9459080E945D08C82F0E9410038C2F29
:10066000CF910895CF93DF93D82FC62F0E940E030A
:1006700082E00E9459088D2F0E9459088C2F0E94F9
:1006800059080E941003DF91CF910895682F8FE0E1
:100690000E9432030895CF93C82F0E9453080E94EE
:1006A00012038EE00E942003807E803871F01F923A
:1006B0008F938CE792E09F938F930E94FC090F9099
:1006C0000F900F900F9081E01CC08C2F0E9446036A
:1006D0008EE00E942003807E8C1791F01F928F93F2
:1006E00086EC92E09F938F930E94FC098AE093E04E
:1006F0000E94100A0F900F900F900F9081E001C0A0
:1007000080E0CF910895CF93C82F0E940E038C2FC5
:100710000E9459080E941003CF9108950F931F93D0
:10072000CF93DF93CDB7DEB760970FB6F894DEBFF7
:100730000FBECDBF0E943508082F192F0E940F044D
:1007400009871A870E944D088B8783E08887CE012E
:1007500006960E94A50260960FB6F894DEBF0FBE03
:10076000CDBFDF91CF911F910F91089580E00E943E
:10077000FE0182E48A95F1F700C00E94F80180939F
:100780004F0381E00E94FE0182E48A95F1F700C0E8
:100790000E94F801809350030895CF93DF93CDB763
:1007A000DEB72A970FB6F894DEBF0FBECDBF4E83DB
:1007B0005F83688779872E813F81488559852E3CE4
:1007C0009FEF390724F0233331051CF403C080E088
:1007D00001C081E04E3C9FEF590724F0433351059F
:1007E0001CF403C083E001C082E02115310521F42F
:1007F0004115510509F484E03A8329835C834B83D6
:100800003A815C81682F70E080E090E02A960FB614
:10081000F894DEBF0FBECDBFDF91CF9108950F9347
:100820001F93CF93DF93CDB7DEB72A970FB6F89417
:10083000DEBF0FBECDBF80E00E94FE0182E48A953C
:10084000F1F700C00E94F80120914F032817A0F48F
:1008500030E09927AC01421B530B64E6649FC00152
:10086000659F900D11246FEF70E0621B730B0E9467
:100870006208162F072F15C0821788F4622F70E0C8
:1008800099279C01261B370B44E6429FC001439FDA
:10089000900D11240E946208162F072F02C010E04D
:1008A00000E081E00E94FE0182E48A95F1F700C039
:1008B0000E94F801209150032817A0F430E09927F6
:1008C000AC01421B530B64E6649FC001659F900D11
:1008D00011244FEF50E0BA01621B730B0E946208B3
:1008E000862F14C0821780F430E09927AC01421B98
:1008F000530B64E6649FC001659F900D1124B901FC
:100900000E946208862F02C080E070E0412F682FAD
:10091000502F8A850E94CD032E833F8348875987B5
:100920006A8785E0FE013696DE01119601900D92F0
:100930008A95E1F729813A814B815C816D8170E074
:1009400080E090E02A960FB6F894DEBF0FBECDBFD0
:10095000DF91CF911F910F91089580915303909152
:10096000540380389105BCF0E3E5F3E08081918188
:100970008058910991838083E1E5F3E08081918142
:1009800001969183808380819181089724F0109251
:100990005203109251030895EF92FF920F931F9309
:1009A000CF93DF93805220910801309109011216F4
:1009B000130684F5E82EF12CC701880F991F880FC4
:1009C000991F880F991FC0E0D0E09C0120593F4F2C
:1009D000790103E513E0F701EC0FFD1F8591949178
:1009E000E0910A01F0910B018083F80120813181AF
:1009F0008091080190910901820F931F9183808358
:100A00000E94AD0421968091080190910901C817B8
:100A1000D9070CF380E090E0DF91CF911F910F9107
:100A2000FF90EF900895EF92FF920F931F93CF9353
:100A3000DF938052209108013091090112161306AC
:100A40008CF5E82EF12CC701880F991F880F991F8C
:100A5000880F991FC0E0D0E09C0120593F4F7901D9
:100A600003E513E0F701EC0FFD1F8591949180954C
:100A7000E0910A01F0910B018083F801208131811E
:100A80008091080190910901820F931F91838083C7
:100A90000E94AD0421968091080190910901C81728
:100AA000D90704F380E090E0DF91CF911F910F917F
:100AB000FF90EF900895E0910C01F0910D0190E20C
:100AC0009083E0910C01F0910D0180830895CF9304
:100AD000DF93CDB7DEB7FE01359661917191AF011D
:100AE0008CE191E00E943D0ADF91CF910895CF9370
:100AF000DF93CDB7DEB7FE01359661917191AF01FD
:100B00008EE091E00E943D0ADF91CF910895CF934E
:100B1000DF93EC018830910580F490935203809329
:100B2000510382E00E945B05C055E0910C01F091F9
:100B30000D01C08380E00E945B05DF91CF91089595
:100B4000CF93DF93EC018038910550F590935403D7
:100B50008093530382E00E945B05CE018F709078F2
:100B6000992324F40197806F9F6F0196E0910C0107
:100B7000F0910D018083CE01DD230CF40F96959545
:100B80008795959587959595879595958795805F98
:100B9000E0910C01F0910D01808380E00E945B05E3
:100BA000DF91CF910895CF93DF93EB010E948705EA
:100BB000CE010E94A005DF91CF91089560E070E022
:100BC00080E090E00E94D3050895CF93DF93EC017D
:100BD00060E070E00E94D30520E830E0E0910A0177
:100BE000F0910B0110822150310921153105B1F727
:100BF000CE010E948705DF91CF910895CF93DF93B7
:100C0000C0E0D0E0CE010E94E5052196C830D105B4
:100C1000C9F70E94DE05DF91CF910895E0910C01A4
:100C2000F0910D018EEA8083E0910C01F0910D01AD
:100C300081EA8083E0910C01F0910D018AED8083BF
:100C4000E0910C01F0910D0182E18083E0910C01B3
:100C5000F0910D0188EC8083E0910C01F0910D0181
:100C600088EA8083E0910C01F0910D018FE380838D
:100C7000E0910C01F0910D0185ED8083E0910C0174
:100C8000F0910D0180E88083E0910C01F0910D015D
:100C900081E88083E0910C01F0910D0180E5808373
:100CA000E0910C01F0910D0189ED8083E0910C0140
:100CB000F0910D0181E2808380E00E945B05E0916C
:100CC0000C01F0910D018BED8083E0910C01F0910E
:100CD0000D0180E38083E0910C01F0910D018DEA1C
:100CE0008083E0910C01F0910D011082E0910C01E4
:100CF000F0910D0184EA8083E0910C01F0910D01E7
:100D000086EA8083E0910C01F0910D018FEA8083E7
:100D10000E94FE0508950F931F93CF93DF938C01DC
:100D2000EB0189E090E00E948A08FC0111830083B6
:100D3000D483C3831086178216821582DF91CF91E8
:100D40001F910F910895DC011596ED91FC91169776
:100D5000309779F00780F085E02D309769F021E039
:100D600030E02F5F3F4F0780F085E02D3097C9F7C7
:100D700006C080E090E0089581E090E00895822F21
:100D8000932F08950F931F93CF93DF93EC010E944D
:100D9000FE05CE010E94A30690935803809357034B
:100DA0000D811E81809157039091580318161906E2
:100DB00064F5C0E0D0E060E070E0CE010E94D305B1
:100DC00080912A0190912B018C179D0751F4F80115
:100DD00081818F9380818F930E9477050F900F9070
:100DE00009C0F80181818F9380818F930E946705EC
:100DF0000F900F90F801078110852196809157037D
:100E000090915803C817D907B4F2DF91CF911F9181
:100E10000F9108954F925F926F927F928F929F925F
:100E2000AF92BF92CF92DF92EF92FF920F931F93F8
:100E3000CF93DF9360E070E08DE093E00E948B063B
:100E4000EC01BC0187E193E00E948B067C01BE01AE
:100E500081E293E00E948B068C01BE018CE293E05C
:100E60000E948B064C01BC0181E393E00E948B063B
:100E70006C01BC0187E393E00E948B062C01B70153
:100E80008DE393E00E948B065C01B80183E493E05C
:100E90000E948B063C01D0935603C0935503CE01AC
:100EA0000E94A3069093580380935703CE010E949B
:100EB000C206FE82ED82F70110870783F801908653
:100EC0008782F401D682C582F701B682A582F80135
:100ED00076826582F6015682458280915503909113
:100EE0005603DF91CF911F910F91FF90EF90DF900C
:100EF000CF90BF90AF909F908F907F906F905F90BA
:100F00004F900895EF92FF920F931F93CF93DF932B
:100F100000D000D01F92CDB7DEB70E940F04F62E8E
:100F200029833A834B835C836D83E62E00915503BE
:100F300010915603C8010E94A30690935803809312
:100F4000570382E0F8120AC080912A0190912B0188
:100F5000019790932B0180932A010CC0E3E0FE12CD
:100F600009C080912A0190912B01019690932B0149
:100F700080932A01209157033091580380912A01D0
:100F800090912B0121503109281739074CF4809199
:100F9000570390915803019790932B0180932A0156
:100FA00080912A0190912B01992324F410922B0116
:100FB00010922A01F1E0EF122DC0F801858196818F
:100FC000892B31F085819681909356038093550348
:100FD00080912A0190912B0118161906B4F4E09122
:100FE0005503F091560320E030E00780F085E02DB6
:100FF0002F5F3F4F40912A0150912B012417350755
:10100000A4F3F0935603E093550310922B01109232
:101010002A0110C0E1100EC0E0915503F091560373
:1010200083819481892B31F083819481909356033D
:10103000809355030091550310915603C8010E94F7
:10104000A3069093580380935703C8010E94C206D9
:101050008F2D0F900F900F900F900F90DF91CF91E9
:101060001F910F91FF90EF900895CF9382E00E941F
:10107000FE0182E48A95F1F700C00E94F801C82FB2
:1010800083E00E94FE0182E48A95F1F700C00E948D
:10109000F801982F8C2FCF91089586B382FB882773
:1010A00080F990E0089580EB87BB81E58DB9C49A03
:1010B00008958FB9779BFECF08951FB8779BFECF19
:1010C0008FB1089597FB072E16F4009407D077FD93
:1010D00009D00E94760807FC05D03EF490958195D2
:1010E0009F4F0895709561957F4F0895AA1BBB1B74
:1010F00051E107C0AA1FBB1FA617B70710F0A61B18
:10110000B70B881F991F5A95A9F780959095BC0138
:10111000CD010895CF93DF938230910510F482E0E2
:1011200090E0E0915B03F0915C0320E030E0A0E010
:10113000B0E0309739F14081518148175907B8F034
:101140004817590771F482819381109729F01396FB
:101150009C938E9312972CC090935C0380935B03B7
:1011600027C02115310531F04217530718F0A901A6
:10117000DB0101C0EF019A01BD01DF010280F381B3
:10118000E02DD7CF21153105F9F0281B390B24307C
:10119000310580F48A819B816115710521F0FB0185
:1011A0009383828304C090935C0380935B03FE016E
:1011B000329644C0FE01E20FF31F819391932250B7
:1011C0003109398328833AC02091590330915A0359
:1011D000232B41F4209102013091030130935A03F3
:1011E000209359032091000130910101211531050F
:1011F00041F42DB73EB74091040150910501241BE5
:10120000350BE0915903F0915A03E217F307A0F46C
:101210002E1B3F0B2817390778F0AC014E5F5F4F4C
:101220002417350748F04E0F5F1F50935A03409321
:1012300059038193919302C0E0E0F0E0CF01DF9188
:10124000CF910895CF93DF93009709F487C0FC01F5
:10125000329713821282C0915B03D0915C03209776
:1012600081F420813181280F391F80915903909199
:101270005A038217930779F5F0935A03E0935903C1
:101280006DC0DE0120E030E0AE17BF0750F41296CB
:101290004D915C9113979D014115510509F1DA01BA
:1012A000F3CFB383A28340815181840F951F8A17A6
:1012B0009B0771F48D919C911197840F951F029655
:1012C0009183808312968D919C911397938382834F
:1012D0002115310529F4F0935C03E0935B033EC0D4
:1012E000D9011396FC93EE9312974D915D91A40F43
:1012F000B51FEA17FB0779F480819181840F951F50
:101300000296D90111969C938E93828193811396B4
:101310009C938E931297E0E0F0E08A819B81009786
:1013200019F0FE01EC01F9CFCE0102962881398136
:10133000820F931F2091590330915A0328173907C0
:1013400069F4309729F410925C0310925B0302C099
:1013500013821282D0935A03C0935903DF91CF9125
:1013600008950F931F93CF93DF93EC018B010097A8
:1013700031F46115710519F480E090E038C06EE039
:1013800070E081E090E00E940F0CFC010097A1F357
:1013900080E883830115110571F01387028781E8C6
:1013A000838380915D0390915E03892B21F4F093F8
:1013B0005E03E0935D032097C9F0D187C0878381E6
:1013C0008260838380915F0390916003892B71F425
:1013D000F0936003E0935F03809161039091620357
:1013E000892B21F4F0936203E0936103CF01DF9135
:1013F000CF911F910F910895A0E0B0E0E2E0FAE0F4
:101400000C94E80CFE01359661917191AF018091C9
:101410005F03909160030E943D0AE2E00C94040D8A
:101420000F931F93CF93DF93E0915F03F0916003DD
:10143000238121FF1BC0EC0100E010E08991609145
:101440005F0370916003DB011896ED91FC91199791
:10145000882331F00995892B89F30FEF1FEFEECF29
:101460008AE00995892B11F4C80102C08FEF9FEF24
:10147000DF91CF911F910F910895ACE0B0E0E3E4CC
:10148000FAE00C94D80C7C016B018A01FC011782F4
:101490001682838181FFBDC1CE0101964C01F70107
:1014A0009381F60193FD859193FF81916F018823CC
:1014B00009F4ABC1853239F493FD859193FF819195
:1014C0006F01853229F4B70190E00E94480CE7CF04
:1014D000512C312C20E02032A0F48B3269F030F412
:1014E000803259F0833269F420612CC08D3239F09A
:1014F000803339F4216026C02260246023C0286034
:1015000021C027FD27C030ED380F3A3078F426FF90
:1015100006C0FAE05F9E300D1124532E13C08AE0FE
:10152000389E300D1124332E20620CC08E3221F4EF
:1015300026FD6BC1206406C08C3611F4206802C001
:10154000883641F4F60193FD859193FF81916F01F7
:101550008111C1CF982F9F7D9554933028F40C5F53
:101560001F4FFFE3F9830DC0833631F0833771F0ED
:10157000833509F05BC022C0F801808189830E5F4A
:101580001F4F44244394512C540115C03801F2E0FC
:101590006F0E711CF801A080B18026FF03C0652D7D
:1015A00070E002C06FEF7FEFC5012C870E943D0CF9
:1015B0002C0183012C852F77222E17C03801F2E0F1
:1015C0006F0E711CF801A080B18026FF03C0652D4D
:1015D00070E002C06FEF7FEFC5012C870E942B0CDB
:1015E0002C012C852068222E830123FC1BC0832D17
:1015F00090E048165906B0F4B70180E290E00E94EE
:10160000480C3A94F4CFF50127FC859127FE81918F
:101610005F01B70190E00E94480C31103A94F1E06C
:101620004F1A51084114510471F7E5C0843611F086
:10163000893639F5F80127FF07C060817181828101
:1016400093810C5F1F4F08C060817181882777FDEF
:101650008095982F0E5F1F4F2F76B22E97FF09C0EF
:1016600090958095709561957F4F8F4F9F4F206823
:10167000B22E2AE030E0A4010E947A0CA82EA8180D
:1016800044C0853729F42F7EB22E2AE030E025C0F1
:10169000F22FF97FBF2E8F36C1F018F4883579F01C
:1016A000B4C0803719F0883721F0AFC02F2F2061E8
:1016B000B22EB4FE0DC08B2D8460B82E09C024FF5D
:1016C0000AC09F2F9660B92E06C028E030E005C002
:1016D00020E130E002C020E132E0F801B7FE07C0AF
:1016E00060817181828193810C5F1F4F06C0608190
:1016F000718180E090E00E5F1F4FA4010E947A0C80
:10170000A82EA818FB2DFF77BF2EB6FE0BC02B2DE1
:101710002E7FA51450F4B4FE0AC0B2FC08C02B2DD5
:101720002E7E05C07A2C2B2D03C07A2C01C0752C7F
:1017300024FF0DC0FE01EA0DF11D8081803311F4FC
:10174000297E09C022FF06C07394739404C0822FBF
:10175000867809F0739423FD13C020FF06C05A2C2D
:10176000731418F4530C5718732C731468F4B701DE
:1017700080E290E02C870E94480C73942C85F5CF72
:10178000731410F4371801C0312C24FF12C0B701B4
:1017900080E390E02C870E94480C2C8522FF17C024
:1017A00021FF03C088E590E002C088E790E0B70120
:1017B0000CC0822F867859F021FD02C080E201C062
:1017C0008BE227FD8DE2B70190E00E94480CA51442
:1017D00038F4B70180E390E00E94480C5A94F7CFA8
:1017E000AA94F401EA0DF11D8081B70190E00E94F6
:1017F000480CA110F5CF332009F451CEB70180E297
:1018000090E00E94480C3A94F6CFF70186819781C8
:1018100002C08FEF9FEF2C96E2E10C94F40C0F9333
:101820001F93CF93DF93869F8001879F100D969F14
:10183000100D1124C8010E948A08EC01009729F0BC
:10184000A80160E070E00E94360CCE01DF91CF91DC
:101850001F910F910895FC01059061507040011097
:10186000D8F7809590958E0F9F1F0895DC0101C0D9
:101870006D9341505040E0F70895FC016150704075
:1018800001900110D8F7809590958E0F9F1F0895B5
:101890000F931F93CF93DF93182F092FEB018B81A9
:1018A00081FD03C08FEF9FEF20C082FF10C04E81EB
:1018B0005F812C813D81421753077CF4E881F981D7
:1018C0009F012F5F3F4F39832883108306C0E8852F
:1018D000F985812F0995892B29F72E813F812F5F6B
:1018E0003F4F3F832E83812F902FDF91CF911F9108
:1018F0000F910895FA01AA27283051F1203181F182
:10190000E8946F936E7F6E5F7F4F8F4F9F4FAF4F07
:10191000B1E03ED0B4E03CD0670F781F891F9A1F1A
:10192000A11D680F791F8A1F911DA11D6A0F711DCE
:10193000811D911DA11D20D009F468943F912AE0DA
:10194000269F11243019305D3193DEF6CF010895C2
:10195000462F4770405D4193B3E00FD0C9F7F6CFF3
:10196000462F4F70405D4A3318F0495D31FD4052BB
:10197000419302D0A9F7EACFB4E0A6959795879551
:1019800077956795BA95C9F7009761057105089530
:101990009B01AC010A2E06945795479537952795DC
:1019A000BA95C9F7620F731F841F951FA01D089574
:1019B0002F923F924F925F926F927F928F929F925F
:1019C000AF92BF92CF92DF92EF92FF920F931F934D
:1019D000CF93DF93CDB7DEB7CA1BDB0B0FB6F894FE
:1019E000DEBF0FBECDBF09942A88398848885F843E
:1019F0006E847D848C849B84AA84B984C884DF80AF
:101A0000EE80FD800C811B81AA81B981CE0FD11D92
:101A10000FB6F894DEBF0FBECDBFED010895F89468
:021A2000FFCFF6
:101A220000006303200000140800001200100000F0
:101A32000002000000001305000000000000000288
:101A420000000000CC040000000002004E6F742071
:101A520076616C6964206368616E6E656C005374B4
:101A6200617274696E67205352414D2074657374BC
:101A72002E2E2E0D00577269746520706861736591
:101A8200206572726F723A206578745F72616D5B65
:101A92002534645D203D2025303258202873686F3C
:101AA200756C642062652025303258290D0A005277
:101AB200657472696576616C207068617365206512
:101AC20072726F723A206578745F72616D5B253451
:101AD200645D203D2025303258202873686F756C74
:101AE200642062652025303258290D0A0053524184
:101AF2004D207465737420636F6D706C65746564DA
:101B02002077697468200A253464206572726F72C6
:101B12007320696E207772697465207068617365DD
:101B220020616E64200A253464206572726F7273BC
:101B320020696E2072657472696576616C207068C6
:101B42006173650D0A0A0052783020256420205204
:101B5200783120202564200A0D00736C6964657257
:101B6200203A202564200D0A00204A6F7973746997
:101B7200636B2078203D2025642C204A6F79737492
:101B820069636B2079203D202564200D0A004E45B3
:101B92005720535441525421212121004D435032A8
:101BA200353135206973204E4F5420696E20436FC2
:101BB2006E66696775726174696F6E206D6F6465B8
:101BC20020616674657220726573657421204974A0
:101BD2007320636F6E666967206269747320617235
:101BE200652025780A004D4350323531352069731E
:101BF200204E4F5420696E20636F727265637420A9
:101C02006D6F6465206166746572207265736574B8
:101C1200212049747320636F6E666967206269745C
:101C220073206172652025780A000A21004D6169DE
:101C32006E204D656E7500506C61792047616D654F
:101C4200004869676873636F7265730054657374E3
:101C520000546573743100546573743200546573B3
:0A1C620074500054657374480000CC
:00000001FF
